:100000000C9462000C948A000C948A000C948A0070
:100010000C948A000C948A000C948A000C948A0038
:100020000C948A000C948A000C948A000C948A0028
:100030000C948A000C948A000C948A000C948A0018
:100040000C94DE070C948A000C944E080C9428083B
:100050000C948A000C948A000C948A000C948A00F8
:100060000C948A000C948A000000000024002700F1
:100070002A0000000000250028002B0000000008D6
:10008000000201000003040700000000000000005F
:1000900000000000230026002900040404040404D6
:1000A0000404020202020202030303030303010227
:1000B00004081020408001020408102001020408F6
:1000C0001020800811241FBECFEFD8E0DEBFCDBFC7
:1000D00023E0AAE7B2E001C01D92A63CB207E1F717
:1000E00012E0A0E0B1E0E8E9F0E202C005900D9274
:1000F000AA37B107D9F710E0C2E6D0E004C02197D3
:10010000FE010E94520EC136D107C9F70E94540960
:100110000C944A100C940000CF92DF92EF92FF9261
:10012000CF93DF93B091B603A0E08111AB2F809104
:10013000B70390E0880F991FAC0140575F4FC09004
:10014000BC03D090BD03E090BE03F090BF0330E04D
:1001500020E0FA01C591D491E881B90190E080E0F6
:10016000EB23EA130AC02F5F3F4F6C157D058E0508
:100170009F0578F36FEF7FEFCB01DF91CF91FF9079
:10018000EF90DF90CF90089596E0899FD0011124E1
:10019000A85DBC4F90967C936E935F9791E091968B
:1001A0009C939197E0919503F0919603909194031D
:1001B000992339F0309751F0811108C080914403A0
:1001C0000994309719F05C968C91FACF089583309A
:1001D00081F028F4813099F08230A9F008958730B9
:1001E000A9F08830C9F08430B1F4809180008F7D0F
:1001F00003C0809180008F7780938000089584B53C
:100200008F7784BD089584B58F7DFBCF8091B0003A
:100210008F778093B00008958091B0008F7DF9CFE3
:10022000CF93DF93282F30E0F901E458FF4F8491FA
:10023000F901E255FF4FD491F901E656FF4FC49101
:10024000CC23A1F081110E94E700EC2FF0E0EE0F2B
:10025000FF1FE057FF4FA591B491EC91ED2381E092
:1002600090E009F480E0DF91CF91089580E090E084
:10027000FACF862F0C9410011F93CF93DF93282F72
:1002800030E0F901E458FF4F8491F901E255FF4F46
:10029000D491F901E656FF4FC491CC23A9F0162F53
:1002A00081110E94E700EC2FF0E0EE0FFF1FEE58E7
:1002B000FF4FA591B4918FB7F894EC91111108C03C
:1002C000D095DE23DC938FBFDF91CF911F910895EE
:1002D000DE2BF8CF862F642F0C943C01CF93DF9355
:1002E00090E0FC01E255FF4F249186569F4FFC01A0
:1002F00084918823C9F090E0880F991FFC01E85988
:10030000FF4FA591B491FC01EE58FF4FC591D491D8
:1003100061110DC09FB7F8948C91209582238C9326
:100320008881282328839FBFDF91CF910895623071
:1003300051F49FB7F8943C91822F809583238C933E
:10034000E8812E2BEFCF8FB7F894EC912E2B2C93C6
:100350008FBFEACF862F642F0C946E013FB7F894BD
:100360008091870290918802A0918902B0918A02BF
:1003700026B5A89B05C02F3F19F00196A11DB11D00
:100380003FBFBA2FA92F982F8827BC01CD01620F3C
:10039000711D811D911D42E0660F771F881F991FF7
:1003A0004A95D1F708958F929F92AF92BF92CF92C4
:1003B000DF92EF92FF924B015C010E94AE016B0154
:1003C0007C010E94AE016C197D098E099F09683E6F
:1003D000734081059105A8F321E0821A9108A108D4
:1003E000B10888EEC80E83E0D81EE11CF11C811410
:1003F0009104A104B10429F7FF90EF90DF90CF9012
:10040000BF90AF909F908F9008952FB7F894609110
:1004100083027091840280918502909186022FBFA1
:100420000895CF92DF92EF92FF920F931F93CF9395
:10043000DF93CDB7DEB7C054D1400FB6F894DEBF1E
:100440000FBECDBF0E9405020091B8031091B90301
:100450002091BA033091BB036B017C01C01AD10A11
:10046000E20AF30A97018601003D17402105310594
:1004700090F48091C003C05CDE4F0FB6F894DEBFED
:100480000FBECDBFDF91CF911F910F91FF90EF90E5
:10049000DF90CF9008956093B8037093B903809371
:1004A000BA039093BB031092B3031092B20310925D
:1004B000B1031092B0031092AF0362E08091B403D5
:1004C0000E946E0161E070E080E090E00E94D30144
:1004D00061E08091B4030E946E0160E08091B403FA
:1004E0000E943C018091B5038551823020F58BE25A
:1004F00091E10197F1F762E08091B4030E946E01EF
:100500008091C10390E08230910538F0880F991FE7
:10051000880F991F05970197F1F7F89480E00E94E2
:100520008C006F3F7F4F8F4F9F4F61F41092C0033D
:10053000789480E0A0CF64E170E080E090E00E94D9
:10054000D301D9CF81E00E948C006F3F7F4F8F4F46
:100550009F4F61F38E010F5F1F4F6E012FEBC21A89
:100560002EEFD20A780180E00E948C00F7016083B0
:1005700071838283938381E00E948C00F7016483FE
:10058000758386839783F8E0EF0EF11CEC14FD046D
:1005900051F7789430E020E0F801C080D180E2800B
:1005A000F3804481558166817781FFEFCF16DF06A6
:1005B000EF06FF0631F04F3F8FEF580768077807C7
:1005C00019F41092C003B5CFF90183E0F595E795D2
:1005D0008A95E1F7E155FC4F8081880FC416D50656
:1005E000E606F70610F180832F5F3F4F085F1F4F2D
:1005F0002832310589F64091B3032091AF038091F1
:10060000B003280F3327331F8091B103280F311D0A
:100610008091B203820F932F911D992748171906D5
:1006200081F681E08093C00326CF8160DCCF0F93F9
:100630001F93CF93DF93C82FD62F86E0C89FF0017A
:100640001124E85DFC4F11A2878D90A181309105A6
:10065000F1F058F082309105F1F1039709F440C0B0
:10066000DF91CF911F910F9108956623C9F361E047
:1006700070E08C2F0E94C4000E94050260938003EA
:10068000709381038093820390938303E9CF0E9448
:100690000502009180031091810320918203309123
:1006A0008303AB01BC01401B510B620B730B8091A8
:1006B000920390919303B0E0A0E084179507A607FA
:1006C000B70748F462E070E08C2FDF91CF911F9163
:1006D0000F910C94C40063E070E0D111C1CFF4CF4E
:1006E00070E060E0F1CF6F927F928F929F92AF9215
:1006F000BF92CF92DF92EF92FF920F931F93CF930F
:10070000DF9381E0809394030E94050200918403AB
:10071000109185032091860330918703AB01BC01C2
:10072000401B510B620B730B8091900390919103CE
:10073000B0E0A0E084179507A607B70708F014C13A
:10074000C0E080918E03C81760F4E0918A03F091B5
:100750008B03EC0FF11D62E080810E946E01CF5F80
:10076000F0CF712C812C912C5401839480918F03B4
:10077000781608F05FC0072D10E0E0918C03F0912F
:100780008D03E00FF11F61E080810E946E01E09116
:100790008C03F0918D03E00FF11F60E080810E94D7
:1007A0003C01D501C401072C04C0880F991FAA1F62
:1007B000BB1F0A94D2F76C017C01E094F094612C89
:1007C00080918E036816F8F4C62DD0E0E0918A037C
:1007D000F0918B03EC0FFD1F80810E941001249685
:1007E000CC0FDD1FC85DDC4F892B41F488819981D6
:1007F0008C299D29998388836394E2CF888199818C
:100800008E219F21F7CFE0918C03F0918D03E00FB3
:10081000F11F61E080810E943C0180918C039091E6
:100820008D03080F191F60E0F80180810E946E019E
:1008300073949CCFC8E2D3E0FE018FEF9FEF278D2A
:1008400030A1232B21F4148E968F858F11A236961A
:1008500023E0E436F20799F7F12C96E0D92E809147
:100860008E03F81608F050C0E12C0F2D10E0000F99
:10087000111F005D1C4F20918F03E21608F042C04B
:10088000F801608171810E2C02C0769567950A94FB
:10089000E2F7F29E900111242E0D311DE8E2F3E003
:1008A00080E0458D568D2417350709F461C08F5FB0
:1008B00036968A30B1F760FF23C0E8E2F3E090E0BB
:1008C00080E0448D411117C0E0918803F0918903C5
:1008D000E20FF31F4081D89EF001D99EF00D112444
:1008E000E85DFC4F448F368F258F10A2178E61E094
:1008F0000E94170305C0019636968A30910509F7C4
:10090000E394B9CFF394ABCF10E089A18111182FF4
:100910002696F3E0C436DF07C1F70E940502609314
:100920008403709385038093860390938703112338
:10093000D9F0809149038823B9F0809147039091C1
:100940004803019789F480914403DF91CF911F916F
:100950000F91FF90EF90DF90CF90BF90AF909F905E
:100960008F907F906F9008951092940380E0EDCF68
:100970006170BECFAF92BF92CF92DF92EF92FF92A3
:100980000F931F93CF93DF936C017B018B01040FB7
:10099000151FEB015E01AE18BF08C017D10759F053
:1009A0006991D601ED91FC910190F081E02DC60195
:1009B0000995892B79F7C501DF91CF911F910F918F
:1009C000FF90EF90DF90CF90BF90AF900895FC0123
:1009D000538D448D252F30E0842F90E0821B930BA4
:1009E000541710F0CF96089501970895FC01918D4A
:1009F000828D981761F0A28DAE0FBF2FB11D5D964D
:100A00008C91928D9F5F9F73928F90E008958FEFEE
:100A10009FEF0895FC01918D828D981731F0828DA2
:100A2000E80FF11D858D90E008958FEF9FEF0895F9
:100A3000FC01918D228D892F90E0805C9F4F821B5D
:100A400091098F73992708958BE892E00E94180509
:100A500021E0892B09F420E0822F089580E090E0C6
:100A6000892B29F00E94240581110C94000008951F
:100A7000FC01A48DA80FB92FB11DA35ABF4F2C9113
:100A8000848D90E001968F739927848FA689B7890A
:100A90002C93A089B1898C91837080648C93938D01
:100AA000848D981306C00288F389E02D80818F7DA4
:100AB00080830895EF92FF920F931F93CF93DF935C
:100AC000EC0181E0888F9B8D8C8D98131AC0E8898A
:100AD000F989808185FF15C09FB7F894EE89FF8959
:100AE0006083E889F98980818370806480839FBFF7
:100AF00081E090E0DF91CF911F910F91FF90EF90F7
:100B00000895F62E0B8D10E00F5F1F4F0F73112706
:100B1000E02E8C8D8E110CC00FB607FCFACFE88941
:100B2000F989808185FFF5CFCE010E943805F1CF8C
:100B3000EB8DEC0FFD2FF11DE35AFF4FF0829FB7B5
:100B4000F8940B8FEA89FB8980818062CFCFCF93A5
:100B5000DF93EC01888D8823B9F0AA89BB89E889E5
:100B6000F9898C9185FD03C0808186FD0DC00FB68B
:100B700007FCF7CF8C9185FFF2CF808185FFEDCF09
:100B8000CE010E943805E9CFDF91CF9108950895F5
:100B900090E080E00895CF93DF93EC0160E08E81D8
:100BA0000E943C0161E08E810E943C0160E08E81E8
:100BB0000E943C018BE891E00197F1F7DF91CF9122
:100BC0000895CF92DF92EF92FF920F931F93CF93EE
:100BD000DF936C017C0187E0E80EF11CD0E0C0E0FF
:100BE000062F10E0B8010C2E02C0759567950A9487
:100BF000E2F76170F70181917F010E943C0121962B
:100C0000C430D10579F7C601DF91CF911F910F91C3
:100C1000FF90EF90DF90CF900C94CB05CF92DF92B6
:100C2000EF92FF920F931F93CF93DF93EC01F62E79
:100C3000642F8C810E943C018D818F3F19F060E010
:100C40000E943C010F2D10E08F8584FF25C06E01AE
:100C500087E0C80ED11CF12CE12CB8010E2C02C08B
:100C6000759567950A94E2F76170F60181916F01BD
:100C70000E943C01FFEFEF1AFF0A88E0E816F1043A
:100C800061F7CE01DF91CF911F910F91FF90EF900F
:100C9000DF90CF900C94CB05B80184E075956795F3
:100CA0008A95E1F7CE010E94E1056F2DCE01DF911B
:100CB000CF911F910F91FF90EF90DF90CF900C9408
:100CC000E10540E0682F87E993E00C940E06CF938E
:100CD000DF93823029F49091A60398609093A60345
:100CE0008093AA031092AB0380E48093AC0380E16D
:100CF0008093AD0380E58093AE0361E080919B0318
:100D00000E946E0180919C038F3F19F061E00E9468
:100D10006E0161E080919D030E946E01C7E9D3E0FE
:100D20009E01275933408091A60384FD0BC084E0C7
:100D300090E021962817390744F461E08E810E94E3
:100D40006E01EECF88E090E0F4CF8BE39DE0019759
:100D5000F1F760E080919B030E943C0160E080918C
:100D60009D030E943C0180919C038F3F19F060E03D
:100D70000E943C018091A60384FD39C063E087E9AD
:100D800093E00E94E105CBE4D6E4CE010197F1F7B0
:100D900063E087E993E00E94E1052197F1F763E0C2
:100DA00087E993E00E94E10583E592E00197F1F77E
:100DB00062E087E993E00E94E1058091A6038062EA
:100DC0000E94610684E08093A7038CE00E94610684
:100DD00081E00E9461068BE39FE10197F1F782E0D9
:100DE0008093A80386E0DF91CF910C946106806226
:100DF0000E9461068BE496E40197F1F78091A603C7
:100E000080620E94610683E592E00197F1F780918C
:100E1000A60380620E946106D0CF9091AA03891731
:100E200010F08FEF890FE82FF0E0E956FC4F84892E
:100E300080680C94610641E00E940E0681E090E01B
:100E40000895FB0101900020E9F73197AF01461B9F
:100E5000570BDC01ED91FC910280F381E02D0994A8
:100E60008F929F92AF92BF920F931F93CF93DF9376
:100E7000CDB7DEB7A1970FB6F894DEBF0FBECDBFDA
:100E800019A2423008F44AE08E010F5D1F4F842EF4
:100E9000912CB12CA12CA50194010E940A0EE62FE1
:100EA000B901CA01EA3004F5E05DD801EE938D0185
:100EB000232B242B252B79F790E080E0109729F045
:100EC000BD018BE892E00E942107A1960FB6F8942D
:100ED000DEBF0FBECDBFDF91CF911F910F91BF90AD
:100EE000AF909F908F900895E95CDFCFCF92DF9213
:100EF000EF92FF92CF93DF936B017C016DE28BE861
:100F000092E00E945A05EC0166277727CB016C1905
:100F10007D098E099F094AE00E9430078C0F9D1FB2
:100F2000DF91CF91FF90EF90DF90CF900895BC01BB
:100F3000990F880B990B97FD0C9476074AE00C9457
:100F40003007CF93DF93BC018BE892E00E9421072A
:100F5000EC0161E471E08BE892E00E9421078C0FC4
:100F60009D1FDF91CF9108950C9421070F931F933C
:100F7000CF93DF93EC0188819981009759F02A8102
:100F80003B812617370730F081E0DF91CF911F9129
:100F90000F9108958B016F5F7F4F0E947D0F009727
:100FA00059F0998388831B830A832C813D81232BED
:100FB00059F7FC011082E8CF80E0E7CF1F920F9233
:100FC0000FB60F9211242F933F938F939F93AF935C
:100FD000BF938091830290918402A0918502B09189
:100FE00086023091820223E0230F2D3758F50196B7
:100FF000A11DB11D209382028093830290938402ED
:10100000A0938502B0938602809187029091880216
:10101000A0918902B0918A020196A11DB11D809311
:10102000870290938802A0938902B0938A02BF91AD
:10103000AF919F918F913F912F910F900FBE0F9085
:101040001F90189526E8230F0296A11DB11DD2CF3F
:101050001F920F920FB60F9211242F933F934F932D
:101060005F936F937F938F939F93AF93BF93EF9310
:10107000FF938BE892E00E943805FF91EF91BF91BA
:10108000AF919F918F917F916F915F914F913F9120
:101090002F910F900FBE0F901F9018951F920F92D7
:1010A0000FB60F9211242F938F939F93EF93FF937B
:1010B000E0919B02F0919C028081E091A102F0916D
:1010C000A20282FD1BC090818091A4028F5F8F736A
:1010D0002091A502821741F0E091A402F0E0E557CB
:1010E000FD4F958F8093A402FF91EF919F918F9177
:1010F0002F910F900FBE0F901F9018958081F4CF05
:1011000010928E0210928D0288EE93E0A0E0B0E083
:1011100080938F0290939002A0939102B0939202D9
:101120008DE191E090938C0280938B0285EC90E0AE
:10113000909398028093970284EC90E090939A02A7
:101140008093990280EC90E090939C0280939B02A4
:1011500081EC90E090939E0280939D0282EC90E05F
:101160009093A00280939F0286EC90E09093A2025D
:101170008093A1021092A4021092A5021092A602DE
:101180001092A70283E18093B4038BE08093B503B0
:10119000E1ECF0E0E491E093B603EDEAF0E0E491F5
:1011A000E093B70340E85EE360E070E04093BC0387
:1011B0005093BD036093BE037093BF0310929A03D4
:1011C0001092990329E331E0309398032093970319
:1011D00080939B038FEF80939C0310929D038FE07D
:1011E00080939E0380E180939F038AE08093A00315
:1011F00089E08093A1031092A2031092A30310929E
:10120000A4031092A5031092A60381E00E94670632
:1012100010922A0310922E0310922D0310922F0386
:101220008FE291E09093290380932803E4E4F3E0B4
:101230001082148213821582369683E0E038F80714
:10124000B9F783E091E090938B0380938A0380E069
:1012500091E090938D0380938C0384E080938E03C0
:1012600083E080938F0387E091E0909389038093DC
:1012700088038AE090E0909391038093900384EF39
:1012800091E09093930380939203109296031092AF
:101290009503109284031092850310928603109296
:1012A0008703109294030895CF93DF93CDB7DEB7F1
:1012B00028970FB6F894DEBF0FBECDBF789484B5E3
:1012C000826084BD84B5816084BD85B5826085BD42
:1012D00085B5816085BD80916E00816080936E00D0
:1012E00010928100809181008260809381008091C2
:1012F0008100816080938100809180008160809373
:1013000080008091B10084608093B1008091B00032
:1013100081608093B00080917A00846080937A002D
:1013200080917A00826080937A0080917A00816057
:1013300080937A0080917A00806880937A0010927E
:10134000C100E0919B02F0919C0282E08083E091D9
:101350009702F09198021082E0919902F0919A021E
:1013600080E180831092A302E0919F02F091A0029D
:1013700086E08083E0919D02F0919E0280818061F1
:101380008083E0919D02F0919E028081886080833D
:10139000E0919D02F0919E02808180688083E091BF
:1013A0009D02F0919E0280818F7D808384E491E094
:1013B0000E94A10782E00E94670685E591E00E94F5
:1013C000A10760E671E087E993E00E94B40762E05C
:1013D0008091B4030E946E010E940502605D774017
:1013E000810991096093B8037093B9038093BA039C
:1013F0009093BB0387E38093C10381E791E00E9450
:10140000A10761E08CE00E946E018CE791E00E94F0
:10141000A10760E082E10E946E0187E891E00E94EE
:10142000A10782E991E00E94A10790E4A92EE12C96
:1014300024E0F22E0BE31FE130E0C32E30E0D32E88
:10144000A0927C0080917A00806480937A008091E1
:101450007A0086FDFCCF60907800709079007092E1
:1014600081026092800264E670E080E090E00E9479
:10147000D30120E137E2D3010E944B0E1B012C0166
:10148000D701A619B70926E930E00E944B0E9B014F
:10149000AC01C201B1010E942C0E30937F02209357
:1014A0007E026DEB71E08BE892E00E94B4078091C0
:1014B0007E0290917F020E9497076BEC71E08BE8AF
:1014C00092E00E94B4076091800270918102072E21
:1014D000000C880B990B97FF75C00E94760761E49A
:1014E00071E08BE892E00E94210782E10E941001E6
:1014F000019731F460ED71E08BE892E00E94B4074F
:101500000E947303B82E1A8219821C821B821E82CB
:101510001D8270E060E0CE0101960E94B60729812D
:101520003A81811153C02115310519F0C9010E947A
:10153000F40E1A8219821E821D821C821B8268EEA2
:1015400073E080E090E00E94D3018AE2B8126BC1A0
:1015500080E00E940D076BED71E087E993E00E9447
:10156000B40781E00E940D0789EE91E00E94A10777
:101570000E947303B82E682F8BE892E00E945A05F0
:10158000BB20B1F383E2B81609F426C1BF821886E6
:101590006D807E808FEF681A780AB301CE010196C4
:1015A0000E94B607882321F329813A818D819E818B
:1015B000BE01695F7F4F820F931F0E9443107E829E
:1015C0006D82D6CF4AE00E94300789CF1E821D82ED
:1015D00063E471E0C9010E944310B1CF85518230AC
:1015E00008F02FC1B090B1036B2D70E0762F662705
:1015F00066277F778091B203682B90E080E00E949D
:10160000260C2DEC3CEC4CEC5DE30E94630C5DC0C1
:101610006091B10370E090E080E00E94260C2B0105
:101620003C01B090B203B7FE0AC0AC019B0160E080
:1016300070E080E89FEB0E94670D2B013C016B2D51
:101640006F7070E090E080E00E94280C2DEC3CEC84
:101650004CEC5DE30E94630CA30192010E94680DB3
:101660000E94D40D70937D0260937C020E9411024F
:10167000882351F08091B5038B3030F08D3048F1E4
:101680008551823008F496C060E070E080EC9FE7FE
:101690003CC0B090B1036B2D70E090E080E00E9400
:1016A000260C2B013C016091B2036F7070E090E05A
:1016B00080E00E94280C2DEC3CEC4CEC5DE30E9499
:1016C000630CA30192010E94680DB7FEC9CF905828
:1016D000C7CF6091B00370E090E080E00E94280CDA
:1016E0002DEC3CEC4CEC5DE30E94630C2B013C01C7
:1016F0006091AF0370E090E080E00E94280C9B01B5
:10170000AC01C301B2010E94680D0E94D40D709318
:101710007B0260937A026FEF71E08BE892E00E94A7
:10172000B40780917C0290917D020E9497076CE043
:1017300072E08BE892E00E94B40780917A02909167
:101740007B020E9497078AE192E00E94A10764E66B
:1017500070E080E090E00E94D30181E00E940D07DC
:1017600080917C0290917D026CE172E08233910560
:1017700059F06DE272E08A31910534F46EE372E063
:10178000429714F06FE472E087E993E00E94B40797
:1017900089819A81009711F00E94F40EC114D1043E
:1017A00009F44ECE0E942405882309F449CE0E94F4
:1017B000000046CE6091AF037091B0037627672793
:1017C000762790E080E00E94260C2DEC3CEC4CEC5F
:1017D0005DE30E94630C99CF83E491E00E94A1072E
:1017E00060E672E08BE892E00E94B4074D815E8172
:1017F00069817A818BE892E00E94BA0461E471E029
:101800008BE892E00E94210781E00E946106C801F6
:101810000197F1F780E00E940D0760E671E087E92B
:1018200093E00E94B4070E941102882351F0809136
:10183000B5038C3009F42DCF08F0D0CE8B3009F4ED
:10184000E7CE60E070E080EC9FE70ACFE89409C043
:1018500097FB3EF490958095709561957F4F8F4FE3
:101860009F4F9923A9F0F92F96E9BB279395F695F9
:10187000879577956795B795F111F8CFFAF4BB0F77
:1018800011F460FF1BC06F5F7F4F8F4F9F4F16C0DB
:10189000882311F096E911C0772321F09EE8872F65
:1018A000762F05C0662371F096E8862F70E060E021
:1018B0002AF09A95660F771F881FDAF7880F96959A
:1018C000879597F908950E94760C0C94E70C0E9476
:1018D000D90C38F00E94E00C20F0952311F00C9404
:1018E000D00C0C94D60C11240C941B0D0E94F80CF7
:1018F00070F3959FC1F3950F50E0551F629FF00163
:10190000729FBB27F00DB11D639FAA27F00DB11D7B
:10191000AA1F649F6627B00DA11D661F829F222704
:10192000B00DA11D621F739FB00DA11D621F839F8B
:10193000A00D611D221F749F3327A00D611D231F61
:10194000849F600D211D822F762F6A2F11249F57AF
:1019500050409AF0F1F088234AF0EE0FFF1FBB1FB2
:10196000661F771F881F91505040A9F79E3F510571
:1019700080F00C94D00C0C941B0D5F3FE4F3983E68
:10198000D4F3869577956795B795F795E7959F5F1B
:10199000C1F7FE2B880F911D9695879597F90895AD
:1019A00097F99F6780E870E060E008959FEF80EC12
:1019B000089500240A9416161706180609060895B5
:1019C00000240A9412161306140605060895092E1B
:1019D0000394000C11F4882352F0BB0F40F4BF2B8A
:1019E00011F460FF04C06F5F7F4F8F4F9F4F0895CA
:1019F00057FD9058440F551F59F05F3F71F04795C0
:101A0000880F97FB991F61F09F3F79F087950895A4
:101A1000121613061406551FF2CF4695F1DF08C0C3
:101A2000161617061806991FF1CF869571056105E0
:101A300008940895E894BB2766277727CB0197F988
:101A400008952F923F924F925F926F927F928F9262
:101A50009F92AF92BF92CF92DF92EF92FF920F933D
:101A60001F93CF93DF93CDB7DEB7CA1BDB0B0FB647
:101A7000F894DEBF0FBECDBF09942A883988488804
:101A80005F846E847D848C849B84AA84B984C8849A
:101A9000DF80EE80FD800C811B81AA81B981CE0F91
:101AA000D11D0FB6F894DEBF0FBECDBFED01089576
:101AB000A29FB001B39FC001A39F700D811D11248F
:101AC000911DB29F700D811D1124911D08955058D4
:101AD000BB27AA270E947F0D0C94E70C0E94D90C0B
:101AE00038F00E94E00C20F039F49F3F19F426F4FE
:101AF0000C94D60C0EF4E095E7FB0C94D00CE92F77
:101B00000E94F80C58F3BA17620773078407950709
:101B100020F079F4A6F50C941A0D0EF4E0950B2E36
:101B2000BA2FA02D0B01B90190010C01CA01A0012F
:101B30001124FF27591B99F0593F50F4503E68F18A
:101B40001A16F040A22F232F342F4427585FF3CFCB
:101B5000469537952795A795F0405395C9F77EF49C
:101B60001F16BA0B620B730B840BBAF09150A1F0E5
:101B7000FF0FBB1F661F771F881FC2F70EC0BA0F6B
:101B8000621F731F841F48F4879577956795B795F3
:101B9000F7959E3F08F0B0CF9395880F08F09927EE
:101BA000EE0F9795879508950E94DB0D6894B1110B
:101BB0000C941B0D08950E94000D88F09F5798F01B
:101BC000B92F9927B751B0F0E1F0660F771F881F42
:101BD000991F1AF0BA95C9F714C0B13091F00E945C
:101BE0001A0DB1E008950C941A0D672F782F8827ED
:101BF000B85F39F0B93FCCF3869577956795B39583
:101C0000D9F73EF490958095709561957F4F8F4FF1
:101C10009F4F0895A1E21A2EAA1BBB1BFD010DC008
:101C2000AA1FBB1FEE1FFF1FA217B307E407F5078C
:101C300020F0A21BB30BE40BF50B661F771F881F68
:101C4000991F1A9469F760957095809590959B01FE
:101C5000AC01BD01CF010895052E97FB1EF4009441
:101C60000E94430E57FD07D00E940A0E07FC03D0C6
:101C70004EF40C94430E50954095309521953F4F6E
:101C80004F4F5F4F089590958095709561957F4F68
:101C90008F4F9F4F08950E94580DB7FF0895821BE4
:101CA000930B0895EE0FFF1F0590F491E02D09941A
:101CB0000F931F93CF93DF938230910510F482E04E
:101CC00090E0E091C403F091C50330E020E0B0E083
:101CD000A0E0309799F42115310509F44AC0281B7A
:101CE000390B24303105D8F58A819B816115710546
:101CF00089F1FB0193838283FE0111C040815181F0
:101D00000281138148175907E0F04817590799F4E1
:101D1000109761F012960C93129713961C933296BB
:101D2000CF01DF91CF911F910F9108950093C403CC
:101D30001093C503F4CF2115310551F04217530715
:101D400038F0A901DB019A01BD01DF01F801C1CF23
:101D5000EF01F9CF9093C5038093C403CDCFFE016B
:101D6000E20FF31F81939193225031093983288325
:101D7000D7CF2091C2033091C303232B41F420918C
:101D80001501309116013093C3032093C2032091B3
:101D90001301309114012115310541F42DB73EB7DF
:101DA0004091170150911801241B350BE091C2039B
:101DB000F091C303E217F307A0F42E1B3F0B281783
:101DC000390778F0AC014E5F5F4F2417350748F0B4
:101DD0004E0F5F1F5093C3034093C20381939193AF
:101DE0009FCFF0E0E0E09CCFCF93DF930097E9F046
:101DF000FC01329713821282A091C403B091C503F3
:101E0000ED0130E020E01097A1F420813181820FB4
:101E1000931F2091C2033091C3032817390709F09B
:101E200061C0F093C303E093C203DF91CF910895A3
:101E3000EA01CE17DF07E8F54A815B819E01411573
:101E40005105B1F7E901FB83EA8349915991C40F28
:101E5000D51FEC17FD0761F4808191810296840FF4
:101E6000951FE90199838883828193819B838A836B
:101E7000F0E0E0E012968D919C9113970097B9F5F0
:101E80002D913C911197CD010296820F931F2091C5
:101E9000C2033091C3032817390739F6309751F53B
:101EA0001092C5031092C403B093C303A093C2035E
:101EB000BCCFD383C28340815181840F951FC81743
:101EC000D90761F44E5F5F4F88819981480F591F90
:101ED000518340838A819B819383828321153105BD
:101EE00009F0B0CFF093C503E093C4039ECFFD018A
:101EF000DC01C0CF13821282D7CFB0E0A0E0E3E8CC
:101F0000FFE00C94230D8C01009751F4CB010E944B
:101F1000580E8C01C801CDB7DEB7E0E10C943F0D3F
:101F2000FC01E60FF71F9C0122503109E217F3076D
:101F300008F49DC0D901CD91DC911197C617D70740
:101F400098F0C530D10530F3CE0104978617970776
:101F500008F3C61BD70B2297C193D1936D937C9343
:101F6000CF010E94F40ED6CF5B01AC1ABD0A4C0122
:101F70008C0E9D1EA091C403B091C503512C412C21
:101F8000F12CE12C109731F58091C2039091C3039D
:101F90008815990509F05CC04616570608F058C028
:101FA0008091130190911401009741F48DB79EB771
:101FB0004091170150911801841B950BE817F90700
:101FC00008F055C0F093C303E093C203F901718395
:101FD0006083A0CF8D919C91119712966C9012976F
:101FE00013967C901397A815B90559F56C0142E03A
:101FF000C40ED11CCA14DB0420F1AC014A195B09E0
:10200000DA011296159780F06282738251834083C1
:10201000D9016D937C93E114F10471F0D70113960B
:10202000FC93EE93129776CF22968C0F9D1FF901A9
:1020300091838083F301EFCFF093C503E093C40352
:1020400069CF4816590608F42C017D01D3019ACFB7
:10205000CB010E94580E7C01009749F0AE01B801F7
:102060000E943A10C8010E94F40E870153CF10E07D
:1020700000E050CFFB01DC0102C001900D92415005
:102080005040D8F70895FB01DC0101900D9200202B
:08209000E1F70895F894FFCF79
:102098000403020807060531323334353637383938
:1020A8002A30230000C6038000000000005A05BA49
:1020B80004E704A7051805F6040A0500000000AAAD
:1020C800016A013901000000001B07BA04C805C7EE
:1020D800050D0A00496E696369616C697A616E640D
:1020E8006F2E2E2E004C4344206C6973746F2E00A3
:1020F800202020204C4659412054504620202020A2
:1021080000444854206C6973746F2E004C45442079
:102118006C6973746F2E00504952206C6973746F28
:102128002E00282A29207061726120696E67726505
:1021380073617220636C617665207C2066696E61CC
:102148006C697A6120636F6E2028232900494C55F9
:102158004D494E4143494F4E3A200020563A2000FF
:102168006D6F76696D69656E746F00494E475245AB
:10217800534520434C415645002A2A2A20494E47B8
:102188005245534520434C415645202A2A2A00549B
:10219800656D706572617475726120006F43202DE2
:1021A8002048756D6564616420002500202020208A
:1021B800494E43454E44494F2020202000202020EE
:1021C80056454E54494C41444F522020200020434C
:1021D800414C4546414343494F4E204F4E20002035
:1021E800202020204E4F524D414C202020202000FE
:1021F800456C20636F6469676F20696E67726573E9
:0A22080061646F2065733A20000046
:00000001FF
