:020000040000FA
:100000000C9462000C948A000C948A000C948A0070
:100010000C948A000C948A000C948A000C948A0038
:100020000C948A000C948A000C948A000C948A0028
:100030000C948A000C948A000C948A000C948A0018
:100040000C946D060C948A000C94DD060C94B70693
:100050000C948A000C948A000C948A000C948A00F8
:100060000C948A000C948A000000000024002700F1
:100070002A0000000000250028002B0000000008D6
:10008000000201000003040700000000000000005F
:1000900000000000230026002900040404040404D6
:1000A0000404020202020202030303030303010227
:1000B00004081020408001020408102001020408F6
:1000C00010200F0711241FBECFEFD8E0DEBFCDBF39
:1000D00011E0A0E0B1E0EEE4FAE102C005900D927B
:1000E000A83CB107D9F723E0A8ECB1E001C01D920C
:1000F000AC30B207E1F710E0C2E6D0E004C02197CF
:10010000FE010E941F0DC136D107C9F70E94E50705
:100110000C94250D0C94000096E0899FD0011124C9
:10012000A356BD4F90967C936E935F9791E0919606
:100130009C939197E0910A03F0910B03909109032E
:10014000992339F0309751F0811108C08091B9029C
:100150000994309719F05C968C91FACF0895CF925C
:10016000DF92EF92FF92CF93DF93B0917902A0E0FC
:100170008111AB2F80917A0290E0880F991FAC011A
:1001800040575F4FC0907F02D0908002E090810284
:10019000F090820230E020E0FA01C591D491E8812C
:1001A000B90190E080E0EB23EA130AC02F5F3F4FD4
:1001B0006C157D058E059F0578F36FEF7FEFCB0102
:1001C000DF91CF91FF90EF90DF90CF900895833033
:1001D00081F028F4813099F08230A9F008958730B9
:1001E000A9F08830C9F08430B1F4809180008F7D0F
:1001F00003C0809180008F7780938000089584B53C
:100200008F7784BD089584B58F7DFBCF8091B0003A
:100210008F778093B00008958091B0008F7DF9CFE3
:10022000CF93DF93282F30E0F901E458FF4F8491FA
:10023000F901E255FF4FD491F901E656FF4FC49101
:10024000CC23A1F081110E94E700EC2FF0E0EE0F2B
:10025000FF1FE057FF4FA591B491EC91ED2381E092
:1002600090E009F480E0DF91CF91089580E090E084
:10027000FACF1F93CF93DF93282F30E0F901E45892
:10028000FF4F8491F901E255FF4FD491F901E656F1
:10029000FF4FC491CC23A9F0162F81110E94E700D3
:1002A000EC2FF0E0EE0FFF1FEE58FF4FA591B49139
:1002B0008FB7F894EC91111108C0D095DE23DC9330
:1002C0008FBFDF91CF911F910895DE2BF8CFCF9391
:1002D000DF9390E0FC01E255FF4F249186569F4F3B
:1002E000FC0184918823C9F090E0880F991FFC01DC
:1002F000E859FF4FA591B491FC01EE58FF4FC5910D
:10030000D49161110DC09FB7F8948C9120958223F0
:100310008C938881282328839FBFDF91CF910895F4
:10032000623051F49FB7F8943C91822F80958323DB
:100330008C93E8812E2BEFCF8FB7F894EC912E2B76
:100340002C938FBFEACF3FB7F8948091D101909161
:10035000D201A091D301B091D40126B5A89B05C0CC
:100360002F3F19F00196A11DB11D3FBFBA2FA92F34
:10037000982F8827BC01CD01620F711D811D911D31
:1003800042E0660F771F881F991F4A95D1F708959D
:100390008F929F92AF92BF92CF92DF92EF92FF9295
:1003A0004B015C010E94A3016B017C010E94A3012F
:1003B0006C197D098E099F09683E7340810591057E
:1003C000A8F321E0821A9108A108B10888EEC80EAE
:1003D00083E0D81EE11CF11C81149104A104B10436
:1003E00029F7FF90EF90DF90CF90BF90AF909F9054
:1003F0008F9008952FB7F8946091CD017091CE0140
:100400008091CF019091D0012FBF08950F931F933A
:10041000CF93DF93C82FD62F86E0C89FF001112419
:10042000E356FD4F11A2878D90A181309105F1F027
:1004300058F082309105F1F1039709F440C0DF9143
:10044000CF911F910F9108956623C9F361E070E089
:100450008C2F0E948C000E94FA016093F502709329
:10046000F6028093F7029093F802E9CF0E94FA0116
:100470000091F5021091F6022091F7023091F802F6
:10048000AB01BC01401B510B620B730B8091070346
:1004900090910803B0E0A0E084179507A607B7077E
:1004A00048F462E070E08C2FDF91CF911F910F91A3
:1004B0000C948C0063E070E0D111C1CFF4CF70E0F8
:1004C00060E0F1CFCF92DF92EF92FF920F931F93F4
:1004D000CF93DF93CDB7DEB7C054D1400FB6F894B9
:1004E000DEBF0FBECDBF0E94FA0100917B021091CA
:1004F0007C0220917D0230917E026B017C01C01A4A
:10050000D10AE20AF30A97018601003D174021054E
:10051000310590F480918302C05CDE4F0FB6F894F1
:10052000DEBF0FBECDBFDF91CF911F910F91FF9026
:10053000EF90DF90CF90089560937B0270937C02E0
:1005400080937D0290937E02109276021092750243
:1005500010927402109273021092720262E0809103
:1005600077020E94670161E070E080E090E00E9405
:10057000C80161E0809177020E94670160E080918C
:1005800077020E943901809178028551823020F5EE
:100590008BE291E10197F1F762E0809177020E948E
:1005A00067018091840290E08230910538F0880FD5
:1005B000991F880F991F05970197F1F7F89480E02C
:1005C0000E94AF006F3F7F4F8F4F9F4F61F410929B
:1005D0008302789480E0A0CF64E170E080E090E056
:1005E0000E94C801D9CF81E00E94AF006F3F7F4FCA
:1005F0008F4F9F4F61F38E010F5F1F4F6E012FEBE7
:10060000C21A2EEFD20A780180E00E94AF00F701F3
:10061000608371838283938381E00E94AF00F7013E
:100620006483758386839783F8E0EF0EF11CEC14E6
:10063000FD0451F7789430E020E0F801C080D180CB
:10064000E280F3804481558166817781FFEFCF1688
:10065000DF06EF06FF0631F04F3F8FEF58076807C0
:10066000780719F410928302B5CFF90183E0F5956C
:10067000E7958A95E1F7EE58FD4F8081880FC41603
:10068000D506E606F70610F180832F5F3F4F085F1F
:100690001F4F2832310589F640917602209172026F
:1006A00080917302280F3327331F80917402280F23
:1006B000311D80917502820F932F911D9927481744
:1006C000190681F681E08093830226CF8160DCCF1A
:1006D000862F642F0C946701862F642F0C943901A8
:1006E000862F0C941001AF92BF92CF92DF92EF92BF
:1006F000FF920F931F93CF93DF936C017B018B01CC
:10070000040F151FEB015E01AE18BF08C017D1071B
:1007100059F06991D601ED91FC910190F081E02DA5
:10072000C6010995892B79F7C501DF91CF911F91FA
:100730000F91FF90EF90DF90CF90BF90AF90089512
:10074000FC01538D448D252F30E0842F90E0821BD7
:10075000930B541710F0CF96089501970895FC015C
:10076000918D828D981761F0A28DAE0FBF2FB11DB4
:100770005D968C91928D9F5F9F73928F90E008950C
:100780008FEF9FEF0895FC01918D828D981731F0C6
:10079000828DE80FF11D858D90E008958FEF9FEF1A
:1007A0000895FC01918D228D892F90E0805C9F4FF0
:1007B000821B91098F739927089585ED91E00E941E
:1007C000D10321E0892B09F420E0822F089580E0F5
:1007D00090E0892B29F00E94DD0381110C94000028
:1007E0000895FC01A48DA80FB92FB11DA35ABF4FC6
:1007F0002C91848D90E001968F739927848FA68920
:10080000B7892C93A089B1898C91837080648C9373
:10081000938D848D981306C00288F389E02D808122
:100820008F7D80830895EF92FF920F931F93CF9354
:10083000DF93EC0181E0888F9B8D8C8D98131AC01B
:10084000E889F989808185FF15C09FB7F894EE8902
:10085000FF896083E889F98980818370806480835F
:100860009FBF81E090E0DF91CF911F910F91FF90AA
:10087000EF900895F62E0B8D10E00F5F1F4F0F7352
:100880001127E02E8C8D8E110CC00FB607FCFACF0D
:10089000E889F989808185FFF5CFCE010E94F103B7
:1008A000F1CFEB8DEC0FFD2FF11DE35AFF4FF082DE
:1008B0009FB7F8940B8FEA89FB8980818062CFCF44
:1008C000CF93DF93EC01888D8823B9F0AA89BB8987
:1008D000E889F9898C9185FD03C0808186FD0DC072
:1008E0000FB607FCF7CF8C9185FFF2CF808185FF93
:1008F000EDCFCE010E94F103E9CFDF91CF910895B2
:10090000089590E080E00895CF93DF93EC0160E0DC
:100910008E810E94390161E08E810E94390160E080
:100920008E810E9439018BE891E00197F1F7DF9108
:10093000CF910895CF92DF92EF92FF920F931F9382
:10094000CF93DF936C017C0187E0E80EF11CD0E0CF
:10095000C0E0062F10E0B8010C2E02C07595679517
:100960000A94E2F76170F70181917F010E943901D9
:100970002196C430D10579F7C601DF91CF911F913F
:100980000F91FF90EF90DF90CF900C948404CF9262
:10099000DF92EF92FF920F931F93CF93DF93EC01BF
:1009A000F62E642F8C810E9439018D818F3F19F0C2
:1009B00060E00E9439010F2D10E08F8584FF25C073
:1009C0006E0187E0C80ED11CF12CE12CB8010E2C71
:1009D00002C0759567950A94E2F76170F6018191FE
:1009E0006F010E943901FFEFEF1AFF0A88E0E81655
:1009F000F10461F7CE01DF91CF911F910F91FF902C
:100A0000EF90DF90CF900C948404B80184E075954A
:100A100067958A95E1F7CE010E949A046F2DCE0169
:100A2000DF91CF911F910F91FF90EF90DF90CF90CA
:100A30000C949A0440E0682F85E892E00C94C70477
:100A4000CF93DF93823029F4909194029860909331
:100A50009402809398021092990280E480939A0203
:100A600080E180939B0280E580939C0261E080910D
:100A700089020E94670180918A028F3F19F061E02C
:100A80000E94670161E080918B020E946701C5E8C6
:100A9000D2E09E01255832408091940284FD0BC023
:100AA00084E090E021962817390744F461E08E81B4
:100AB0000E946701EECF88E090E0F4CF8BE39DE0E9
:100AC0000197F1F760E0809189020E94390160E0AE
:100AD00080918B020E94390180918A028F3F19F028
:100AE00060E00E9439018091940284FD39C063E086
:100AF00085E892E00E949A04CBE4D6E4CE01019707
:100B0000F1F763E085E892E00E949A042197F1F7FB
:100B100063E085E892E00E949A0483E592E0019701
:100B2000F1F762E085E892E00E949A0480919402D5
:100B300080620E941A0584E0809395028CE00E94F6
:100B40001A0581E00E941A058BE39FE10197F1F7F6
:100B500082E08093960286E0DF91CF910C941A0593
:100B600080620E941A058BE496E40197F1F7809168
:100B7000940280620E941A0583E592E00197F1F7E2
:100B80008091940280620E941A05D0CF90919802C1
:100B9000691710F06FEF690FE62FF0E0EB57FD4F8C
:100BA0009489890F80680C941A0541E00E94C7045B
:100BB00081E090E00895FB0101900020E9F7319772
:100BC000AF01461B570BDC01ED91FC910280F381D4
:100BD000E02D09948F929F92AF92BF92CF92DF92B5
:100BE000EF92FF920F931F93CF93DF93CDB7DEB7B2
:100BF000A1970FB6F894DEBF0FBECDBF6C01990F61
:100C0000EE08FF08F7FE43C06DE285ED91E00E941B
:100C100013048C0122273327A9012C193D094E0901
:100C20005F0919A2CE0181967C019AE0892E912C50
:100C3000A12CB12CCA01B901A50194010E94FD0C9F
:100C4000605DF70162937F01211531054105510572
:100C500089F790E080E0309729F0BF0185ED91E0C1
:100C60000E94DB05800F911FA1960FB6F894DEBF9E
:100C70000FBECDBFDF91CF911F910F91FF90EF90ED
:100C8000DF90CF90BF90AF909F908F900895A70175
:100C9000960119A28E010F5D1F4F8AE0C82ED12C3C
:100CA000E12CF12CCA01B901A70196010E94FD0CAB
:100CB000605DF80162938F012115310541055105F1
:100CC00089F790E080E0309779F2BF0185ED91E0FF
:100CD0000E94DB05C9CF0C94DB051F920F920FB663
:100CE0000F9211242F933F938F939F93AF93BF93B2
:100CF0008091CD019091CE01A091CF01B091D00112
:100D00003091CC0123E0230F2D3758F50196A11D1A
:100D1000B11D2093CC018093CD019093CE01A0937F
:100D2000CF01B093D0018091D1019091D201A091D7
:100D3000D301B091D4010196A11DB11D8093D101C1
:100D40009093D201A093D301B093D401BF91AF91FE
:100D50009F918F913F912F910F900FBE0F901F90F9
:100D6000189526E8230F0296A11DB11DD2CF1F9220
:100D70000F920FB60F9211242F933F934F935F93CF
:100D80006F937F938F939F93AF93BF93EF93FF9353
:100D900085ED91E00E94F103FF91EF91BF91AF913A
:100DA0009F918F917F916F915F914F913F912F9183
:100DB0000F900FBE0F901F9018951F920F920FB6B5
:100DC0000F9211242F938F939F93EF93FF93E091B2
:100DD000E501F091E6018081E091EB01F091EC01F9
:100DE00082FD1BC090818091EE018F5F8F732091F7
:100DF000EF01821741F0E091EE01F0E0EB52FE4F7F
:100E0000958F8093EE01FF91EF919F918F912F919C
:100E10000F900FBE0F901F9018958081F4CFCF9345
:100E20001092D8011092D70188EE93E0A0E0B0E0D4
:100E30008093D9019093DA01A093DB01B093DC0198
:100E400087E191E09093D6018093D50185EC90E005
:100E50009093E2018093E10184EC90E09093E401AF
:100E60008093E30180EC90E09093E6018093E501AC
:100E700081EC90E09093E8018093E70182EC90E0B0
:100E80009093EA018093E90186EC90E09093EC0165
:100E90008093EB011092EE011092EF011092F0019D
:100EA0001092F10110929F021092A3021092A202DE
:100EB0001092A40285E391E090939E0280939D029C
:100EC000E9EBF2E01082148213821582369682E0FA
:100ED000E53FF807B9F783E091E090930003809332
:100EE000FF0280E091E0909302038093010384E08D
:100EF0008093030383E08093040387E091E0909361
:100F0000FE028093FD028AE090E0909306038093B6
:100F1000050384EF91E090930803809307031092F8
:100F20000B0310920A031092F9021092FA02109227
:100F3000FB021092FC021092090310928802109298
:100F4000870289E291E09093860280938502CBE04C
:100F5000C09389028FEF80938A0210928B028FE0F8
:100F600080938C0280E180938D028AE080938E02D0
:100F700089E080938F021092900210929102109259
:100F80009202109293021092940281E00E94200536
:100F900083E180937702C0937802E1ECF0E0E49182
:100FA000E0937902EDEAF0E0E491E0937A0280E8E0
:100FB0009EE3A0E0B0E080937F0290938002A09334
:100FC0008102B0938202CF910895789484B58260B3
:100FD00084BD84B5816084BD85B5826085BD85B5DD
:100FE000816085BD80916E00816080936E0010925B
:100FF00081008091810082608093810080918100D6
:101000008160809381008091800081608093800066
:101010008091B10084608093B1008091B0008160C4
:101020008093B00080917A00846080937A008091F0
:101030007A00826080937A0080917A008160809348
:101040007A0080917A00806880937A001092C100C3
:10105000E091E501F091E60182E08083E091E10119
:10106000F091E2011082E091E301F091E4018FEC54
:1010700080831092ED01E091E901F091EA0186E0B0
:101080008083E091E701F091E801808180618083B5
:10109000E091E701F091E801808188608083E09130
:1010A000E701F091E801808180688083E091E701A9
:1010B000F091E80180818F7D808362E080917702EA
:1010C0000E9467010E94FA01605D774081099109E1
:1010D00060937B0270937C0280937D0290937E02EA
:1010E00087E38093840282E00E9420056BE371E035
:1010F00085E892E00E946B0661E08CE00E94670147
:10110000412C512C3201439422242A94322C60E049
:10111000C62E60E0D62E0E946202882341F08091A4
:1011200078028C3009F462C038F48B30F1F060E062
:1011300070E080EC9FE741C085518230C0F7C091DC
:1011400074026C2F70E0762F662766277F77809178
:101150007502682B90E080E00E94020C2DEC3CECC4
:101160004CEC5DE30E94900C5DC06091740270E0F5
:1011700090E080E00E94020C4B015C01C09175027E
:10118000C7FF0AC0AC019B0160E070E080E89FEB04
:101190000E945F0B4B015C01CF706C2F70E090E000
:1011A00080E00E94040C2DEC3CEC4CEC5DE30E94D2
:1011B000900CA50194010E94600B0E94CC0B7093CF
:1011C000CB016093CA010E946202882351F0809192
:1011D00078028B3030F08D3048F18551823008F440
:1011E000C9C060E070E080EC9FE73CC0C091740231
:1011F0006C2F70E090E080E00E94020C4B015C01DB
:10120000609175026F7070E090E080E00E94040CC5
:101210002DEC3CEC4CEC5DE30E94900CA50194019C
:101220000E94600BC7FFC9CF9058C7CF609173026F
:1012300070E090E080E00E94040C2DEC3CEC4CEC63
:101240005DE30E94900C4B015C016091720270E0C2
:1012500090E080E00E94040C9B01AC01C501B40148
:101260000E94600B0E94CC0B7093C9016093C8016F
:101270006FE371E085ED91E00E946B068091CA01F9
:101280009091CB010E94EA056DE471E085ED91E05B
:101290000E946B0660E571E085ED91E00E946B06AF
:1012A0008091C8019091C9010E94EA056BE571E047
:1012B00085ED91E00E94DB056DE571E085ED91E043
:1012C0000E94DB0564EF71E080E090E00E94C801BD
:1012D0008091CA019091CB01C29751F461E080E006
:1012E0000E94C60560E671E085E892E00E946B0608
:1012F0008091CA019091CB018A3191050CF44CC0C8
:1013000061E080E00E94C60561E771E085E892E057
:101310000E946B0681E0809309030E94FA0100910C
:10132000F9021091FA022091FB023091FC02AB010C
:10133000BC01401B510B620B730B80910503909114
:101340000603B0E0A0E084179507A607B70708F0EA
:101350002AC1C0E080910303C81740F5E091FF0265
:10136000F0910003EC0FF11D62E080810E946701A3
:10137000CF5FF0CF6091720270917302762767277A
:10138000762790E080E00E94020C2DEC3CEC4CECC7
:101390005DE30E94900C66CF42970CF0BBCF61E0FA
:1013A00080E00E94C60562E871E0B0CF912C809188
:1013B0000403981608F05FC0092D10E0E0910103C6
:1013C000F0910203E00FF11F61E080810E9467014C
:1013D000E0910103F0910203E00FF11F60E08081D2
:1013E0000E943901D301C201092C04C0880F991F42
:1013F000AA1FBB1F0A94D2F75C017C01E094F09411
:10140000812C809103038816F8F4C82DD0E0E09178
:10141000FF02F0910003EC0FFD1F80810E9410017C
:101420002496CC0FDD1FC356DD4F892B41F48881F4
:1014300099818A299B29998388838394E2CF888123
:1014400099818E219F21F7CFE0910103F091020352
:10145000E00FF11F61E080810E943901809101035A
:1014600090910203080F191F60E0F80180810E942B
:10147000670193949CCFCDE9D2E0FE01878D90A1C6
:10148000892B21F4148E368E258E11A2369652E0C9
:10149000E93DF50799F710E080910303181708F06C
:1014A00053C000E0E12EF12CEE0CFF1CC7018B5560
:1014B0009D4F7C0120910403021708F043C0F701FF
:1014C00060817181002E02C0769567950A94E2F7DB
:1014D000129F90011124200F311DEDE9F2E080E010
:1014E000458D568D2417350709F4E7C08F5F369672
:1014F0008A30B1F760FF24C0EDE9F2E090E080E0CF
:10150000448D411118C0E091FD02F091FE02E20FFE
:10151000F31F408156E0589FF001599FF00D1124B0
:10152000E356FD4F448F368F258F10A2178E61E052
:101530000E94060205C0019636968A30910501F791
:101540000F5FB8CF1F5FA8CF10E089A18111182FBE
:10155000269682E0C93DD807C1F70E94FA01609340
:10156000F9027093FA028093FB029093FC0211231C
:10157000D1F08091BE028823B1F08091BC0290919D
:10158000BD02019781F4E091B902E1110FC0C114CD
:10159000D10409F4C0CD0E94DD03882309F4BBCD3A
:1015A0000E940000B8CD10920903F1CFE352E73159
:1015B00070F70E2E000CFF0BE052F54F0C941F0D30
:1015C0004D0BC70AC70AC70AC70AC70AC70A3A0B98
:1015D000C70AC70AC70AC70AC70AC70AF70A020B17
:1015E000090B100B170B1E0B250B2C0B330B60E09C
:1015F00088E00E94C60563E971E085E892E00E94F8
:101600006B06C5CF60E088E00E94C60567E971E01F
:10161000F4CF61E080E00E94C6056BE971E0EDCF98
:1016200061E080E00E94C6056FE971E0E6CF61E00D
:1016300080E00E94C60563EA71E0DFCF61E080E0F0
:101640000E94C60567EA71E0D8CF61E080E00E94A1
:10165000C6056BEA71E0D1CF61E080E00E94C6056B
:101660006FEA71E0CACF61E080E00E94C60563EBDB
:1016700071E0C3CF61E080E00E94C60567EB71E0D6
:1016800085E892E00E946B0661E08CE00E946701B1
:1016900061E08CE00E9439017ACF61E080E00E9435
:1016A000C6056FEB71E085E892E00E946B0661E091
:1016B0008CE00E94670160E0ECCF617039CF505838
:1016C000BB27AA270E94770B0C94560C0E94480C4B
:1016D00038F00E944F0C20F039F49F3F19F426F4A3
:1016E0000C94450C0EF4E095E7FB0C943F0CE92FAD
:1016F0000E94670C58F3BA176207730784079507AF
:1017000020F079F4A6F50C94890C0EF4E0950B2EDC
:10171000BA2FA02D0B01B90190010C01CA01A00143
:101720001124FF27591B99F0593F50F4503E68F19E
:101730001A16F040A22F232F342F4427585FF3CFDF
:10174000469537952795A795F0405395C9F77EF4B0
:101750001F16BA0B620B730B840BBAF09150A1F0F9
:10176000FF0FBB1F661F771F881FC2F70EC0BA0F7F
:10177000621F731F841F48F4879577956795B79507
:10178000F7959E3F08F0B0CF9395880F08F0992702
:10179000EE0F9795879508950E94D30B6894B11129
:1017A0000C948A0C08950E946F0C88F09F5798F053
:1017B000B92F9927B751B0F0E1F0660F771F881F56
:1017C000991F1AF0BA95C9F714C0B13091F00E9470
:1017D000890CB1E008950C94890C672F782F882725
:1017E000B85F39F0B93FCCF3869577956795B39597
:1017F000D9F73EF490958095709561957F4F8F4F06
:101800009F4F0895E89409C097FB3EF4909580950A
:10181000709561957F4F8F4F9F4F9923A9F0F92FB6
:1018200096E9BB279395F695879577956795B79534
:10183000F111F8CFFAF4BB0F11F460FF1BC06F5F1A
:101840007F4F8F4F9F4F16C0882311F096E911C02C
:10185000772321F09EE8872F762F05C0662371F04D
:1018600096E8862F70E060E02AF09A95660F771F61
:10187000881FDAF7880F9695879597F9089597F955
:101880009F6780E870E060E008959FEF80EC089526
:1018900000240A941616170618060906089500244F
:1018A0000A9412161306140605060895092E0394C9
:1018B000000C11F4882352F0BB0F40F4BF2B11F43D
:1018C00060FF04C06F5F7F4F8F4F9F4F089557FD9C
:1018D0009058440F551F59F05F3F71F04795880F9E
:1018E00097FB991F61F09F3F79F087950895121635
:1018F00013061406551FF2CF4695F1DF08C01616E1
:1019000017061806991FF1CF869571056105089491
:101910000895E894BB2766277727CB0197F90895A8
:101920000E94A30C0C94560C0E94480C38F00E94A4
:101930004F0C20F0952311F00C943F0C0C94450CA7
:1019400011240C948A0C0E94670C70F3959FC1F3CC
:10195000950F50E0551F629FF001729FBB27F00D5D
:10196000B11D639FAA27F00DB11DAA1F649F6627B2
:10197000B00DA11D661F829F2227B00DA11D621F01
:10198000739FB00DA11D621F839FA00D611D221FBB
:10199000749F3327A00D611D231F849F600D211D9F
:1019A000822F762F6A2F11249F5750409AF0F1F022
:1019B00088234AF0EE0FFF1FBB1F661F771F881F8B
:1019C00091505040A9F79E3F510580F00C943F0C78
:1019D0000C948A0C5F3FE4F3983ED4F38695779598
:1019E0006795B795F795E7959F5FC1F7FE2B880F31
:1019F000911D9695879597F90895A1E21A2EAA1B35
:101A0000BB1BFD010DC0AA1FBB1FEE1FFF1FA217AE
:101A1000B307E407F50720F0A21BB30BE40BF50BAB
:101A2000661F771F881F991F1A9469F76095709534
:101A3000809590959B01AC01BD01CF010895EE0FFB
:101A4000FF1F0590F491E02D0994F894FFCF040353
:101A500002080706053132333435363738392A3033
:101A6000230000000013047303A0036004D103AF3C
:101A700003C30300000000D5057303810480040044
:101A800000000068036C0370035450460054656DF9
:101A900070657261747572613A20006F430020486E
:101AA000756D656461643A200025000D0A002020F0
:101AB0002020496E63656E64696F2020202000201D
:101AC000202056656E74696C61646F72202020005E
:101AD0002043414C4546414343494F4E204F4E2001
:101AE000003E2031003E2032003E2033003E2034B4
:101AF000003E2035003E2036003E2037003E203894
:101B0000003E2039007465636C613A2A0074656395
:061B10006C613A230000A5
:107E0000112484B714BE81FFF0D085E080938100F7
:107E100082E08093C00088E18093C10086E0809377
:107E2000C20080E18093C4008EE0C9D0259A86E02C
:107E300020E33CEF91E0309385002093840096BBD3
:107E4000B09BFECF1D9AA8958150A9F7CC24DD24C4
:107E500088248394B5E0AB2EA1E19A2EF3E0BF2EE7
:107E6000A2D0813461F49FD0082FAFD0023811F036
:107E7000013811F484E001C083E08DD089C08234E0
:107E800011F484E103C0853419F485E0A6D080C0E4
:107E9000853579F488D0E82EFF2485D0082F10E0AE
:107EA000102F00270E291F29000F111F8ED06801E7
:107EB0006FC0863521F484E090D080E0DECF843638
:107EC00009F040C070D06FD0082F6DD080E0C81688
:107ED00080E7D80618F4F601B7BEE895C0E0D1E017
:107EE00062D089930C17E1F7F0E0CF16F0E7DF06D8
:107EF00018F0F601B7BEE89568D007B600FCFDCFD4
:107F0000A601A0E0B1E02C9130E011968C91119780
:107F100090E0982F8827822B932B1296FA010C0160
:107F200087BEE89511244E5F5F4FF1E0A038BF0790
:107F300051F7F601A7BEE89507B600FCFDCF97BE46
:107F4000E89526C08437B1F42ED02DD0F82E2BD052
:107F50003CD0F601EF2C8F010F5F1F4F84911BD097
:107F6000EA94F801C1F70894C11CD11CFA94CF0C13
:107F7000D11C0EC0853739F428D08EE10CD085E9AC
:107F80000AD08FE07ACF813511F488E018D01DD067
:107F900080E101D065CF982F8091C00085FFFCCF94
:107FA0009093C60008958091C00087FFFCCF809118
:107FB000C00084FD01C0A8958091C6000895E0E648
:107FC000F0E098E1908380830895EDDF803219F02E
:107FD00088E0F5DFFFCF84E1DECF1F93182FE3DFCA
:107FE0001150E9F7F2DF1F91089580E0E8DFEE27F6
:047FF000FF270994CA
:027FFE00040479
:00000001FF
