:100000000C9462000C948A000C948A000C948A0070
:100010000C948A000C948A000C948A000C948A0038
:100020000C948A000C948A000C948A000C948A0028
:100030000C948A000C948A000C948A000C948A0018
:100040000C94F8070C948A000C9468080C944208ED
:100050000C948A000C948A000C948A000C948A00F8
:100060000C948A000C948A000000000024002700F1
:100070002A0000000000250028002B0000000008D6
:10008000000201000003040700000000000000005F
:1000900000000000230026002900040404040404D6
:1000A0000404020202020202030303030303010227
:1000B00004081020408001020408102001020408F6
:1000C00010209A0811241FBECFEFD8E0DEBFCDBFAD
:1000D00023E0AEE8B2E001C01D92AA3DB207E1F70D
:1000E00012E0A0E0B1E0E4EBF1E202C005900D9275
:1000F000AE38B107D9F710E0C2E6D0E004C02197CE
:10010000FE010E94E00EC136D107C9F70E946E09B8
:100110000C94D8100C940000CF92DF92EF92FF92D3
:10012000CF93DF93B091CA03A0E08111AB2F8091F0
:10013000CB0390E0880F991FAC0140575F4FC090F0
:10014000D003D090D103E090D203F090D30330E0FD
:1001500020E0FA01C591D491E881B90190E080E0F6
:10016000EB23EA130AC02F5F3F4F6C157D058E0508
:100170009F0578F36FEF7FEFCB01DF91CF91FF9079
:10018000EF90DF90CF90089596E0899FD0011124E1
:10019000A45CBC4F90967C936E935F9791E0919690
:1001A0009C939197E091A903F091AA039091A803E1
:1001B000992339F0309751F0811108C0809158038C
:1001C0000994309719F05C968C91FACF089583309A
:1001D00081F028F4813099F08230A9F008958730B9
:1001E000A9F08830C9F08430B1F4809180008F7D0F
:1001F00003C0809180008F7780938000089584B53C
:100200008F7784BD089584B58F7DFBCF8091B0003A
:100210008F778093B00008958091B0008F7DF9CFE3
:10022000CF93DF93282F30E0F901E458FF4F8491FA
:10023000F901E255FF4FD491F901E656FF4FC49101
:10024000CC23A1F081110E94E700EC2FF0E0EE0F2B
:10025000FF1FE057FF4FA591B491EC91ED2381E092
:1002600090E009F480E0DF91CF91089580E090E084
:10027000FACF862F0C9410011F93CF93DF93282F72
:1002800030E0F901E458FF4F8491F901E255FF4F46
:10029000D491F901E656FF4FC491CC23A9F0162F53
:1002A00081110E94E700EC2FF0E0EE0FFF1FEE58E7
:1002B000FF4FA591B4918FB7F894EC91111108C03C
:1002C000D095DE23DC938FBFDF91CF911F910895EE
:1002D000DE2BF8CF862F642F0C943C01CF93DF9355
:1002E00090E0FC01E255FF4F249186569F4FFC01A0
:1002F00084918823C9F090E0880F991FFC01E85988
:10030000FF4FA591B491FC01EE58FF4FC591D491D8
:1003100061110DC09FB7F8948C91209582238C9326
:100320008881282328839FBFDF91CF910895623071
:1003300051F49FB7F8943C91822F809583238C933E
:10034000E8812E2BEFCF8FB7F894EC912E2B2C93C6
:100350008FBFEACF862F642F0C946E013FB7F894BD
:1003600080919B0290919C02A0919D02B0919E026F
:1003700026B5A89B05C02F3F19F00196A11DB11D00
:100380003FBFBA2FA92F982F8827BC01CD01620F3C
:10039000711D811D911D42E0660F771F881F991FF7
:1003A0004A95D1F708958F929F92AF92BF92CF92C4
:1003B000DF92EF92FF924B015C010E94AE016B0154
:1003C0007C010E94AE016C197D098E099F09683E6F
:1003D000734081059105A8F321E0821A9108A108D4
:1003E000B10888EEC80E83E0D81EE11CF11C811410
:1003F0009104A104B10429F7FF90EF90DF90CF9012
:10040000BF90AF909F908F9008952FB7F894609110
:100410009702709198028091990290919A022FBF51
:100420000895CF92DF92EF92FF920F931F93CF9395
:10043000DF93CDB7DEB7C054D1400FB6F894DEBF1E
:100440000FBECDBF0E9405020091CC031091CD03D9
:100450002091CE033091CF036B017C01C01AD10AE9
:10046000E20AF30A97018601003D17402105310594
:1004700090F48091D403C05CDE4F0FB6F894DEBFD9
:100480000FBECDBFDF91CF911F910F91FF90EF90E5
:10049000DF90CF9008956093CC037093CD03809349
:1004A000CE039093CF031092C7031092C60310920D
:1004B000C5031092C4031092C30362E08091C80385
:1004C0000E946E0161E070E080E090E00E94D30144
:1004D00061E08091C8030E946E0160E08091C803D2
:1004E0000E943C018091C9038551823020F58BE246
:1004F00091E10197F1F762E08091C8030E946E01DB
:100500008091D50390E08230910538F0880F991FD3
:10051000880F991F05970197F1F7F89480E00E94E2
:100520008C006F3F7F4F8F4F9F4F61F41092D40329
:10053000789480E0A0CF64E170E080E090E00E94D9
:10054000D301D9CF81E00E948C006F3F7F4F8F4F46
:100550009F4F61F38E010F5F1F4F6E012FEBC21A89
:100560002EEFD20A780180E00E948C00F7016083B0
:1005700071838283938381E00E948C00F7016483FE
:10058000758386839783F8E0EF0EF11CEC14FD046D
:1005900051F7789430E020E0F801C080D180E2800B
:1005A000F3804481558166817781FFEFCF16DF06A6
:1005B000EF06FF0631F04F3F8FEF580768077807C7
:1005C00019F41092D403B5CFF90183E0F595E795BE
:1005D0008A95E1F7ED53FC4F8081880FC416D5064C
:1005E000E606F70610F180832F5F3F4F085F1F4F2D
:1005F0002832310589F64091C7032091C3038091C9
:10060000C403280F3327331F8091C503280F311DE2
:100610008091C603820F932F911D992748171906C1
:1006200081F681E08093D40326CF8160DCCF0F93E5
:100630001F93CF93DF93C82FD62F86E0C89FF0017A
:100640001124E45CFC4F11A2878D90A181309105AB
:10065000F1F058F082309105F1F1039709F440C0B0
:10066000DF91CF911F910F9108956623C9F361E047
:1006700070E08C2F0E94C4000E94050260939403D6
:10068000709395038093960390939703E9CF0E940C
:1006900005020091940310919503209196033091E7
:1006A0009703AB01BC01401B510B620B730B809194
:1006B000A6039091A703B0E0A0E084179507A607D2
:1006C000B70748F462E070E08C2FDF91CF911F9163
:1006D0000F910C94C40063E070E0D111C1CFF4CF4E
:1006E00070E060E0F1CF6F927F928F929F92AF9215
:1006F000BF92CF92DF92EF92FF920F931F93CF930F
:10070000DF9381E08093A8030E9405020091980383
:100710001091990320919A0330919B03AB01BC0186
:10072000401B510B620B730B8091A4039091A503A6
:10073000B0E0A0E084179507A607B70708F014C13A
:10074000C0E08091A203C81760F4E0919E03F0918D
:100750009F03EC0FF11D62E080810E946E01CF5F6C
:10076000F0CF712C812C912C540183948091A303A0
:10077000781608F05FC0072D10E0E091A003F0911B
:10078000A103E00FF11F61E080810E946E01E09102
:10079000A003F091A103E00FF11F60E080810E94AF
:1007A0003C01D501C401072C04C0880F991FAA1F62
:1007B000BB1F0A94D2F76C017C01E094F094612C89
:1007C0008091A2036816F8F4C62DD0E0E0919E0354
:1007D000F0919F03EC0FFD1F80810E941001249671
:1007E000CC0FDD1FC45CDC4F892B41F488819981DB
:1007F0008C299D29998388836394E2CF888199818C
:100800008E219F21F7CFE091A003F091A103E00F8B
:10081000F11F61E080810E943C018091A0039091D2
:10082000A103080F191F60E0F80180810E946E018A
:1008300073949CCFCCE3D3E0FE018FEF9FEF278D25
:1008400030A1232B21F4148E968F858F11A236961A
:1008500023E0E837F20799F7F12C96E0D92E809142
:10086000A203F81608F050C0E12C0F2D10E0000F85
:10087000111F0C5B1C4F2091A303E21608F042C02D
:10088000F801608171810E2C02C0769567950A94FB
:10089000E2F7F29E900111242E0D311DECE3F3E0FE
:1008A00080E0458D568D2417350709F461C08F5FB0
:1008B00036968A30B1F760FF23C0ECE3F3E090E0B6
:1008C00080E0448D411117C0E0919C03F0919D039D
:1008D000E20FF31F4081D89EF001D99EF00D112444
:1008E000E45CFC4F448F368F258F10A2178E61E099
:1008F0000E94170305C0019636968A30910509F7C4
:10090000E394B9CFF394ABCF10E089A18111182FF4
:100910002696F3E0C837DF07C1F70E94050260930F
:1009200098037093990380939A0390939B031123E8
:10093000D9F080915D038823B9F080915B03909199
:100940005C03019789F480915803DF91CF911F9147
:100950000F91FF90EF90DF90CF90BF90AF909F905E
:100960008F907F906F9008951092A80380E0EDCF54
:100970006170BECFAF92BF92CF92DF92EF92FF92A3
:100980000F931F93CF93DF936C017B018B01040FB7
:10099000151FEB015E01AE18BF08C017D10759F053
:1009A0006991D601ED91FC910190F081E02DC60195
:1009B0000995892B79F7C501DF91CF911F910F918F
:1009C000FF90EF90DF90CF90BF90AF900895FC0123
:1009D000538D448D252F30E0842F90E0821B930BA4
:1009E000541710F0CF96089501970895FC01918D4A
:1009F000828D981761F0A28DAE0FBF2FB11D5D964D
:100A00008C91928D9F5F9F73928F90E008958FEFEE
:100A10009FEF0895FC01918D828D981731F0828DA2
:100A2000E80FF11D858D90E008958FEF9FEF0895F9
:100A3000FC01918D228D892F90E0805C9F4F821B5D
:100A400091098F73992708958FE992E00E94180504
:100A500021E0892B09F420E0822F089580E090E0C6
:100A6000892B29F00E94240581110C94000008951F
:100A7000FC01A48DA80FB92FB11DA35ABF4F2C9113
:100A8000848D90E001968F739927848FA689B7890A
:100A90002C93A089B1898C91837080648C93938D01
:100AA000848D981306C00288F389E02D80818F7DA4
:100AB00080830895EF92FF920F931F93CF93DF935C
:100AC000EC0181E0888F9B8D8C8D98131AC0E8898A
:100AD000F989808185FF15C09FB7F894EE89FF8959
:100AE0006083E889F98980818370806480839FBFF7
:100AF00081E090E0DF91CF911F910F91FF90EF90F7
:100B00000895F62E0B8D10E00F5F1F4F0F73112706
:100B1000E02E8C8D8E110CC00FB607FCFACFE88941
:100B2000F989808185FFF5CFCE010E943805F1CF8C
:100B3000EB8DEC0FFD2FF11DE35AFF4FF0829FB7B5
:100B4000F8940B8FEA89FB8980818062CFCFCF93A5
:100B5000DF93EC01888D8823B9F0AA89BB89E889E5
:100B6000F9898C9185FD03C0808186FD0DC00FB68B
:100B700007FCF7CF8C9185FFF2CF808185FFEDCF09
:100B8000CE010E943805E9CFDF91CF9108950895F5
:100B900090E080E00895CF93DF93EC0160E08E81D8
:100BA0000E943C0161E08E810E943C0160E08E81E8
:100BB0000E943C018BE891E00197F1F7DF91CF9122
:100BC0000895CF92DF92EF92FF920F931F93CF93EE
:100BD000DF936C017C0187E0E80EF11CD0E0C0E0FF
:100BE000062F10E0B8010C2E02C0759567950A9487
:100BF000E2F76170F70181917F010E943C0121962B
:100C0000C430D10579F7C601DF91CF911F910F91C3
:100C1000FF90EF90DF90CF900C94CB05CF92DF92B6
:100C2000EF92FF920F931F93CF93DF93EC01F62E79
:100C3000642F8C810E943C018D818F3F19F060E010
:100C40000E943C010F2D10E08F8584FF25C06E01AE
:100C500087E0C80ED11CF12CE12CB8010E2C02C08B
:100C6000759567950A94E2F76170F60181916F01BD
:100C70000E943C01FFEFEF1AFF0A88E0E816F1043A
:100C800061F7CE01DF91CF911F910F91FF90EF900F
:100C9000DF90CF900C94CB05B80184E075956795F3
:100CA0008A95E1F7CE010E94E1056F2DCE01DF911B
:100CB000CF911F910F91FF90EF90DF90CF900C9408
:100CC000E10540E0682F8BEA93E00C940E06CF9389
:100CD000DF93823029F49091BA0398609093BA031D
:100CE0008093BE031092BF0380E48093C00380E131
:100CF0008093C10380E58093C20361E08091AF03DC
:100D00000E946E018091B0038F3F19F061E00E9454
:100D10006E0161E08091B1030E946E01CBEAD3E0E5
:100D20009E012B5A33408091BA0384FD0BC084E0AE
:100D300090E021962817390744F461E08E810E94E3
:100D40006E01EECF88E090E0F4CF8BE39DE0019759
:100D5000F1F760E08091AF030E943C0160E0809178
:100D6000B1030E943C018091B0038F3F19F060E015
:100D70000E943C018091BA0384FD39C063E08BEA94
:100D800093E00E94E105CBE4D6E4CE010197F1F7B0
:100D900063E08BEA93E00E94E1052197F1F763E0BD
:100DA0008BEA93E00E94E10583E592E00197F1F779
:100DB00062E08BEA93E00E94E1058091BA038062D1
:100DC0000E94610684E08093BB038CE00E94610670
:100DD00081E00E9461068BE39FE10197F1F782E0D9
:100DE0008093BC0386E0DF91CF910C946106806212
:100DF0000E9461068BE496E40197F1F78091BA03B3
:100E000080620E94610683E592E00197F1F780918C
:100E1000BA0380620E946106D0CF9091BE03891709
:100E200010F08FEF890FE82FF0E0E555FC4F848933
:100E300080680C94610641E00E940E0681E090E01B
:100E40000895FB0101900020E9F73197AF01461B9F
:100E5000570BDC01ED91FC910280F381E02D0994A8
:100E60008F929F92AF92BF920F931F93CF93DF9376
:100E7000CDB7DEB7A1970FB6F894DEBF0FBECDBFDA
:100E800019A2423008F44AE08E010F5D1F4F842EF4
:100E9000912CB12CA12CA50194010E94840EE62F67
:100EA000B901CA01EA3004F5E05DD801EE938D0185
:100EB000232B242B252B79F790E080E0109729F045
:100EC000BD018FE992E00E942107A1960FB6F89428
:100ED000DEBF0FBECDBFDF91CF911F910F91BF90AD
:100EE000AF909F908F900895E95CDFCFCF92DF9213
:100EF000EF92FF92CF93DF936B017C016DE28FE95C
:100F000092E00E945A05EC0166277727CB016C1905
:100F10007D098E099F094AE00E9430078C0F9D1FB2
:100F2000DF91CF91FF90EF90DF90CF900895BC01BB
:100F3000990F880B990B97FD0C9476074AE00C9457
:100F40003007CF93DF93BC01990F880B990B97FF64
:100F50000EC00E947607EC0161E471E08FE992E037
:100F60000E9421078C0F9D1FDF91CF9108954AE0C9
:100F70000E943007F0CFCF93DF93BC018FE992E05E
:100F80000E942107EC0161E471E08FE992E00E9488
:100F900021078C0F9D1FDF91CF9108950C9421079D
:100FA0000F931F93CF93DF93EC0188819981009772
:100FB00059F02A813B812617370730F081E0DF9115
:100FC000CF911F910F9108958B016F5F7F4F0E940A
:100FD0000B10009759F0998388831B830A832C8117
:100FE0003D81232B59F7FC011082E8CF80E0E7CF49
:100FF0001F920F920FB60F9211242F933F938F934E
:101000009F93AF93BF938091970290919802A09184
:101010009902B0919A023091960223E0230F2D3766
:1010200058F50196A11DB11D209396028093970259
:1010300090939802A0939902B0939A0280919B0298
:1010400090919C02A0919D02B0919E020196A11DDB
:10105000B11D80939B0290939C02A0939D02B0933C
:101060009E02BF91AF919F918F913F912F910F90D1
:101070000FBE0F901F90189526E8230F0296A11D12
:10108000B11DD2CF1F920F920FB60F9211242F9342
:101090003F934F935F936F937F938F939F93AF9300
:1010A000BF93EF93FF938FE992E00E943805FF9181
:1010B000EF91BF91AF919F918F917F916F915F91D0
:1010C0004F913F912F910F900FBE0F901F90189549
:1010D0001F920F920FB60F9211242F938F939F930D
:1010E000EF93FF93E091AF02F091B0028081E09125
:1010F000B502F091B60282FD1BC090818091B802CA
:101100008F5F8F732091B902821741F0E091B8028E
:10111000F0E0E156FD4F958F8093B802FF91EF917B
:101120009F918F912F910F900FBE0F901F90189548
:101130008081F4CF1092A2021092A10288EE93E077
:10114000A0E0B0E08093A3029093A402A093A50234
:10115000B093A6028DE191E09093A00280939F024C
:1011600085EC90E09093AC028093AB0284EC90E02D
:101170009093AE028093AD0280EC90E09093B00229
:101180008093AF0281EC90E09093B2028093B10221
:1011900082EC90E09093B4028093B30286EC90E0EE
:1011A0009093B6028093B5021092B8021092B902E1
:1011B0001092BA021092BB0283E18093C8038BE0C5
:1011C0008093C903E1ECF0E0E491E093CA03EDEA17
:1011D000F0E0E491E093CB0340E85EE360E070E090
:1011E0004093D0035093D1036093D2037093D30301
:1011F0001092AE031092AD0329E331E03093AC03BB
:101200002093AB038093AF038FEF8093B0031092D2
:10121000B1038FE08093B20380E18093B3038AE04F
:101220008093B40389E08093B5031092B6031092C3
:10123000B7031092B8031092B9031092BA0381E079
:101240000E94670610923E031092420310924103DF
:10125000109243038FE291E090933D0380933C030F
:10126000E8E5F3E01082148213821582369683E05B
:10127000E439F807B9F783E091E090939F038093F6
:101280009E0380E091E09093A1038093A00384E00B
:101290008093A20383E08093A30387E091E090937F
:1012A0009D0380939C038AE090E09093A503809334
:1012B000A40384EF91E09093A7038093A603109278
:1012C000AA031092A9031092980310929903109206
:1012D0009A0310929B031092A8030895CF93DF9373
:1012E000CDB7DEB728970FB6F894DEBF0FBECDBFDF
:1012F000789484B5826084BD84B5816084BD85B5F1
:10130000826085BD85B5816085BD80916E008160FC
:1013100080936E00109281008091810082608093A2
:1013200081008091810081608093810080918000A4
:101330008160809380008091B10084608093B100CF
:101340008091B00081608093B00080917A008460C9
:1013500080937A0080917A00826080937A008091F5
:101360007A00816080937A0080917A00806880930F
:101370007A001092C100E091AF02F091B00282E0D9
:101380008083E091AB02F091AC021082E091AD025B
:10139000F091AE0280E180831092B702E091B30237
:1013A000F091B40286E08083E091B102F091B20244
:1013B000808180618083E091B102F091B2028081EE
:1013C00088608083E091B102F091B20280818068F0
:1013D0008083E091B102F091B20280818F7D8083A1
:1013E00084E491E00E94BB0782E00E94670685E5E5
:1013F00091E00E94BB0760E671E08BEA93E00E94F7
:10140000CE0762E08091C8030E946E010E9405022F
:10141000605D7740810991096093CC037093CD039F
:101420008093CE039093CF0387E38093D50381E726
:1014300091E00E94BB0761E08CE00E946E018CE7A6
:1014400091E00E94BB0760E082E10E946E0187E8A4
:1014500091E00E94BB0782E991E00E94BB0748EE41
:10146000E42E43E0F42E5BE3C52E5FE1D52E60E071
:10147000A62E60E0B62E30E4332E00E014E0309269
:101480007C0080917A00806480937A0080917A0059
:1014900086FDFCCF80907800909079009092950224
:1014A0008092940264E670E080E090E00E94D301B4
:1014B00020E137E2D4010E94C50E2B013C01D80186
:1014C000A819B90926E930E00E94C50E9B01AC01BC
:1014D000C301B2010E94A60E3093930220939202A0
:1014E0006DEB71E08FE992E00E94CE07809192024D
:1014F000909193020E9497076BEC71E08FE992E064
:101500000E94CE0780919402909195020E94A107BB
:1015100082E10E941001019731F460ED71E08FE9E2
:1015200092E00E94CE070E947303982E1A821982BD
:101530001C821B821E821D8270E060E0CE0101963B
:101540000E94D00729813A8181114FC021153105B0
:1015500019F0C9010E94820F1A8219821E821D820F
:101560001C821B8268EE73E080E090E00E94D30151
:101570008AE2981282C180E00E940D076BED71E053
:101580008BEA93E00E94CE0781E00E940D0789EE6E
:1015900091E00E94BB070E947303982E682F8FE989
:1015A00092E00E945A059920B1F383E2981609F45B
:1015B00022C19F8218868D809E808FEF881A980A9C
:1015C000B401CE0101960E94D007882321F329811E
:1015D0003A818D819E81BE01695F7F4F820F931F8B
:1015E0000E94D1109E828D82D6CF1E821D8263E41E
:1015F00071E0C9010E94D110B5CF8551823008F049
:101600004AC19090C503692D70E0762F6627662742
:101610007F778091C603682B90E080E00E948C0C5D
:101620002DEC3CEC4CEC5DE30E94C90C5DC060917C
:10163000C50370E090E080E00E948C0C2B013C011F
:101640009090C60397FE0AC0AC019B0160E070E079
:1016500080E89FEB0E94CD0D2B013C01692D6F703E
:1016600070E090E080E00E948E0C2DEC3CEC4CECA5
:101670005DE30E94C90CA30192010E94CE0D0E945D
:101680003A0E70939102609390020E941102882397
:1016900051F08091C9038B3030F08D3048F1855185
:1016A000823008F496C060E070E080EC9FE73CC0B8
:1016B0009090C503692D70E090E080E00E948C0C52
:1016C0002B013C016091C6036F7070E090E080E0F8
:1016D0000E948E0C2DEC3CEC4CEC5DE30E94C90C9E
:1016E000A30192010E94CE0D97FEC9CF9058C7CF9B
:1016F0006091C40370E090E080E00E948E0C2DECBD
:101700003CEC4CEC5DE30E94C90C2B013C01609168
:10171000C30370E090E080E00E948E0C9B01AC015E
:10172000C301B2010E94CE0D0E943A0E70938F0247
:1017300060938E0263E172E08FE992E00E94CE072F
:1017400080919002909191020E94970760E272E06E
:101750008FE992E00E94CE0780918E0290918F02D5
:101760000E9497078EE292E00E94BB0764E670E059
:1017700080E090E00E94D30181E00E940D078091FB
:1017800090029091910260E372E08233910559F0EA
:1017900061E472E08A31910534F462E572E04297C7
:1017A00014F063E672E08BEA93E00E94CE07898131
:1017B0009A81009711F00E94820FA114B10409F4DC
:1017C0005ECE0E942405882309F455CE0E940000B5
:1017D00052CE6091C3037091C403762767277627A2
:1017E00090E080E00E948C0C2DEC3CEC4CEC5DE336
:1017F0000E94C90C99CF83E491E00E94BB0764E783
:1018000072E08FE992E00E94CE074D815E8169818E
:101810007A818FE992E00E94BA0461E471E08FE975
:1018200092E00E94210789819A81412C512C32013A
:10183000009719F00E94500C2B016FEF71E08FE9B7
:1018400092E00E94CE07C201880F991F840D951D5A
:101850000596B7010E94700E0E94A10781E00E94C8
:101860006106C6010197F1F780E00E940D0760E66E
:1018700071E08BEA93E00E94CE070E941102882358
:1018800051F08091C9038C3009F412CF08F0B5CE25
:101890008B3009F4CCCE60E070E080EC9FE7EFCEB7
:1018A0001F93FC0199278827BC01E89411911032FD
:1018B000E9F3193010F01E30C8F31B3251F01D321D
:1018C00049F4689406C00E94770C610F711D811D58
:1018D000911D119110531A30B0F33EF490958095FC
:1018E000709561957F4F8F4F9F4F1F910895592F8E
:1018F000482F372F262F660F771F881F991F660FD7
:10190000771F881F991F620F731F841F951F660F13
:10191000771F881F991F0895E89409C097FB3EF42C
:1019200090958095709561957F4F8F4F9F4F99232C
:10193000A9F0F92F96E9BB279395F69587957795AA
:101940006795B795F111F8CFFAF4BB0F11F460FF6A
:101950001BC06F5F7F4F8F4F9F4F16C0882311F0C2
:1019600096E911C0772321F09EE8872F762F05C0D6
:10197000662371F096E8862F70E060E02AF09A9571
:10198000660F771F881FDAF7880F9695879597F966
:1019900008950E94DC0C0C944D0D0E943F0D38F010
:1019A0000E94460D20F0952311F00C94360D0C94F6
:1019B0003C0D11240C94810D0E945E0D70F3959FD7
:1019C000C1F3950F50E0551F629FF001729FBB2736
:1019D000F00DB11D639FAA27F00DB11DAA1F649FD2
:1019E0006627B00DA11D661F829F2227B00DA11D85
:1019F000621F739FB00DA11D621F839FA00D611D0B
:101A0000221F749F3327A00D611D231F849F600D2B
:101A1000211D822F762F6A2F11249F5750409AF054
:101A2000F1F088234AF0EE0FFF1FBB1F661F771FE0
:101A3000881F91505040A9F79E3F510580F00C94AB
:101A4000360D0C94810D5F3FE4F3983ED4F38695F8
:101A500077956795B795F795E7959F5FC1F7FE2B4B
:101A6000880F911D9695879597F9089597F99F6727
:101A700080E870E060E008959FEF80EC0895002416
:101A80000A941616170618060906089500240A94E3
:101A900012161306140605060895092E0394000C69
:101AA00011F4882352F0BB0F40F4BF2B11F460FFF8
:101AB00004C06F5F7F4F8F4F9F4F089557FD905821
:101AC000440F551F59F05F3F71F04795880F97FB02
:101AD000991F61F09F3F79F08795089512161306BC
:101AE0001406551FF2CF4695F1DF08C016161706EB
:101AF0001806991FF1CF8695710561050894089520
:101B0000E894BB2766277727CB0197F908952F9292
:101B10003F924F925F926F927F928F929F92AF927D
:101B2000BF92CF92DF92EF92FF920F931F93CF93CA
:101B3000DF93CDB7DEB7CA1BDB0B0FB6F894DEBF61
:101B40000FBECDBF09942A88398848885F846E8487
:101B50007D848C849B84AA84B984C884DF80EE80D1
:101B6000FD800C811B81AA81B981CE0FD11D0FB6DA
:101B7000F894DEBF0FBECDBFED010895A29FB00166
:101B8000B39FC001A39F700D811D1124911DB29FB1
:101B9000700D811D1124911D08955058BB27AA274F
:101BA0000E94E50D0C944D0D0E943F0D38F00E94EF
:101BB000460D20F039F49F3F19F426F40C943C0DA7
:101BC0000EF4E095E7FB0C94360DE92F0E945E0DB4
:101BD00058F3BA17620773078407950720F079F462
:101BE000A6F50C94800D0EF4E0950B2EBA2FA02DC7
:101BF0000B01B90190010C01CA01A0011124FF27BA
:101C0000591B99F0593F50F4503E68F11A16F040B4
:101C1000A22F232F342F4427585FF3CF46953795B3
:101C20002795A795F0405395C9F77EF41F16BA0B78
:101C3000620B730B840BBAF09150A1F0FF0FBB1F26
:101C4000661F771F881FC2F70EC0BA0F621F731F6F
:101C5000841F48F4879577956795B795F7959E3FCC
:101C600008F0B0CF9395880F08F09927EE0F97955D
:101C7000879508950E94410E6894B1110C94810DCE
:101C800008950E94660D88F09F5798F0B92F992704
:101C9000B751B0F0E1F0660F771F881F991F1AF057
:101CA000BA95C9F714C0B13091F00E94800DB1E02F
:101CB00008950C94800D672F782F8827B85F39F02E
:101CC000B93FCCF3869577956795B395D9F73EF4F0
:101CD00090958095709561957F4F8F4F9F4F089598
:101CE00097FB072E16F4009407D077FD09D00E94C9
:101CF000CC0E07FC05D03EF4909581959F4F08953A
:101D0000709561957F4F0895A1E21A2EAA1BBB1B07
:101D1000FD010DC0AA1FBB1FEE1FFF1FA217B307B7
:101D2000E407F50720F0A21BB30BE40BF50B661FCD
:101D3000771F881F991F1A9469F760957095809591
:101D400090959B01AC01BD01CF010895052E97FB35
:101D50001EF400940E94BD0E57FD07D00E94840E11
:101D600007FC03D04EF40C94BD0E50954095309571
:101D700021953F4F4F4F5F4F0895909580957095F7
:101D800061957F4F8F4F9F4F08950E94BE0DB7FF03
:101D90000895821B930B0895AA1BBB1B51E107C03A
:101DA000AA1FBB1FA617B70710F0A61BB70B881FEB
:101DB000991F5A95A9F780959095BC01CD0108957A
:101DC000EE0FFF1F0590F491E02D09940F931F93E0
:101DD000CF93DF938230910510F482E090E0E091A0
:101DE000D803F091D90330E020E0B0E0A0E03097D4
:101DF00099F42115310509F44AC0281B390B243008
:101E00003105D8F58A819B816115710589F1FB0146
:101E100093838283FE0111C040815181028113812D
:101E200048175907E0F04817590799F4109761F0DF
:101E300012960C93129713961C933296CF01DF9152
:101E4000CF911F910F9108950093D8031093D90358
:101E5000F4CF2115310551F04217530738F0A9018D
:101E6000DB019A01BD01DF01F801C1CFEF01F9CF1C
:101E70009093D9038093D803CDCFFE01E20FF31FD7
:101E8000819391932250310939832883D7CF2091B0
:101E9000D6033091D703232B41F4209115013091C3
:101EA00016013093D7032093D6032091130130916C
:101EB00014012115310541F42DB73EB740911701AA
:101EC00050911801241B350BE091D603F091D703F4
:101ED000E217F307A0F42E1B3F0B2817390778F001
:101EE000AC014E5F5F4F2417350748F04E0F5F1F60
:101EF0005093D7034093D603819391939FCFF0E003
:101F0000E0E09CCFCF93DF930097E9F0FC0132979C
:101F100013821282A091D803B091D903ED0130E071
:101F200020E01097A1F420813181820F931F20912E
:101F3000D6033091D7032817390709F061C0F09311
:101F4000D703E093D603DF91CF910895EA01CE172E
:101F5000DF07E8F54A815B819E0141155105B1F724
:101F6000E901FB83EA8349915991C40FD51FEC170E
:101F7000FD0761F4808191810296840F951FE9012C
:101F800099838883828193819B838A83F0E0E0E058
:101F900012968D919C9113970097B9F52D913C91D4
:101FA0001197CD010296820F931F2091D603309195
:101FB000D7032817390739F6309751F51092D9030E
:101FC0001092D803B093D703A093D603BCCFD3838A
:101FD000C28340815181840F951FC817D90761F4CE
:101FE0004E5F5F4F88819981480F591F518340830D
:101FF0008A819B81938382832115310509F0B0CFBB
:10200000F093D903E093D8039ECFFD01DC01C0CF4C
:1020100013821282D7CFB0E0A0E0E1E1F0E10C94AE
:10202000890D8C01009751F4CB010E94E60E8C01C2
:10203000C801CDB7DEB7E0E10C94A50DFC01E60FB9
:10204000F71F9C0122503109E217F30708F49DC0E5
:10205000D901CD91DC911197C617D70798F0C530FB
:10206000D10530F3CE0104978617970708F3C61BF6
:10207000D70B2297C193D1936D937C93CF010E948C
:10208000820FD6CF5B01AC1ABD0A4C018C0E9D1E8F
:10209000A091D803B091D903512C412CF12CE12C03
:1020A000109731F58091D6039091D7038815990543
:1020B00009F05CC04616570608F058C0809113011D
:1020C00090911401009741F48DB79EB7409117018C
:1020D00050911801841B950BE817F90708F055C0BB
:1020E000F093D703E093D603F90171836083A0CF07
:1020F0008D919C91119712966C90129713967C90EB
:102100001397A815B90559F56C0142E0C40ED11C0E
:10211000CA14DB0420F1AC014A195B09DA011296FA
:10212000159780F06282738251834083D9016D9349
:102130007C93E114F10471F0D7011396FC93EE93B4
:10214000129776CF22968C0F9D1FF9019183808381
:10215000F301EFCFF093D903E093D80369CF48168A
:10216000590608F42C017D01D3019ACFCB010E94BE
:10217000E60E7C01009749F0AE01B8010E94C8103C
:10218000C8010E94820F870153CF10E000E050CFBA
:10219000FB01DC0102C001900D9241505040D8F784
:1021A0000895FB01DC0101900D920020E1F70895F4
:0421B000F894FFCFD1
:1021B400040302080706053132333435363738391B
:1021C4002A30230000DA038000000000005A05BA18
:1021D40004E704A7051805F6040A0500000000AA90
:1021E400016A013901000000001B07BA04C805C7D1
:1021F400050D0A00496E696369616C697A616E64F0
:102204006F2E2E2E004C4344206C6973746F2E0085
:10221400202020204C465941205450462020202084
:1022240000444854206C6973746F2E004C4544205C
:102234006C6973746F2E00504952206C6973746F0B
:102244002E00282A29207061726120696E677265E8
:1022540073617220636C617665207C2066696E61AF
:102264006C697A6120636F6E2028232900494C55DC
:102274004D494E4143494F4E3A200020563A2000E2
:102284006D6F76696D69656E746F00494E4752458E
:10229400534520434C415645002A2A2A20494E479B
:1022A4005245534520434C415645202A2A2A00765C
:1022B400616C69646172436C6176652C2066782078
:1022C4003D200054656D7065726174757261200003
:1022D4006F43202D2048756D6564616420002500DE
:1022E40020202020494E43454E44494F20202020A1
:1022F4000020202056454E54494C41444F52202042
:1023040020002043414C4546414343494F4E204F12
:102314004E200020202020204E4F524D414C2020A2
:1023240020202000456C20636F6469676F20696E0C
:0E2334006772657361646F2065733A20000064
:00000001FF
