:020000040000FA
:100000000C9463000C948B000C948B000C948B006C
:100010000C948B000C948B000C948B000C94D806E1
:100020000C948B000C948B000C948B000C948B0024
:100030000C948B000C948B000C948B000C948B0014
:100040000C948E060C948B000C945A070C94340775
:100050000C948B000C948B000C948B000C948B00F4
:100060000C948B000C948B000200000000240027ED
:10007000002A0000000000250028002B00000000DE
:100080000800020100000304070000000000000057
:1000900000000000002300260029000404040404DA
:1000A0000404040202020202020303030303030125
:1000B00002040810204080010204081020010204FC
:1000C000081020008C0711241FBECFEFD8E0DEBF40
:1000D000CDBF12E0A0E0B1E0E2EFFDE102C005908B
:1000E0000D92A033B107D9F723E0A0E3B2E001C03D
:1000F0001D92A938B207E1F710E0C3E6D0E004C0D2
:100100002197FE010E94DB0EC236D107C9F70E947B
:1001100060080C94F70E0C940000CF92DF92EF92DF
:10012000FF92CF93DF93B0917D03A0E08111AB2FBD
:1001300080917E0390E0880F991FAC014F565F4F6E
:10014000C0908303D0908403E0908503F0908603F1
:1001500030E020E0FA01C591D491E881B90190E046
:1001600080E0EB23EA130AC02F5F3F4F6C157D053B
:100170008E059F0578F36FEF7FEFCB01DF91CF9175
:10018000FF90EF90DF90CF90089596E0899FD00187
:100190001124A151BD4F90967C936E935F9791E08F
:1001A00091969C939197E0915C03F0915D039091FF
:1001B0005B03992339F0309751F0811108C0809189
:1001C0000B030994309719F05C968C91FACF08953F
:1001D000833081F028F4813099F08230A9F00895BD
:1001E0008730A9F08830C9F08430B1F48091800064
:1001F0008F7D03C0809180008F7780938000089569
:1002000084B58F7784BD089584B58F7DFBCF8091B1
:10021000B0008F778093B00008958091B0008F7DFB
:10022000F9CFCF93DF93282F30E0F901E358FF4F48
:100230008491F901E155FF4FD491F901E556FF4F43
:10024000C491CC23A1F081110E94E800EC2FF0E0D2
:10025000EE0FFF1FEF56FF4FA591B491EC91ED23E8
:1002600081E090E009F480E0DF91CF91089580E093
:1002700090E0FACF1F93CF93DF93282F30E0F9015E
:10028000E358FF4F8491F901E155FF4FD491F901F3
:10029000E556FF4FC491CC23A9F0162F81110E947F
:1002A000E800EC2FF0E0EE0FFF1FED58FF4FA59197
:1002B000B4918FB7F894EC91111108C0D095DE235A
:1002C000DC938FBFDF91CF911F910895DE2BF8CF84
:1002D000CF93DF9390E0FC01E155FF4F24918556C9
:1002E0009F4FFC0184918823C9F090E0880F991FEB
:1002F000FC01E759FF4FA591B491FC01ED58FF4F68
:10030000C591D49161110DC09FB7F8948C9120953F
:1003100082238C938881282328839FBFDF91CF91EC
:100320000895623051F49FB7F8943C91822F8095E4
:1003300083238C93E8812E2BEFCF8FB7F894EC9129
:100340002E2B2C938FBFEACF3FB7F89480914E02AB
:1003500090914F02A0915002B091510226B5A89BF6
:1003600005C02F3F19F00196A11DB11D3FBFBA2F47
:10037000A92F982F8827BC01CD01620F711D811D07
:10038000911D42E0660F771F881F991F4A95D1F78C
:1003900008958F929F92AF92BF92CF92DF92EF9289
:1003A000FF924B015C010E94A4016B017C010E9441
:1003B000A4016C197D098E099F09683E734081056F
:1003C0009105A8F321E0821A9108A108B10888EEEE
:1003D000C80E83E0D81EE11CF11C81149104A10415
:1003E000B10429F7FF90EF90DF90CF90BF90AF90CE
:1003F0009F908F9008952FB7F89460914A02709162
:100400004B0280914C0290914D022FBF0895CF92E4
:10041000DF92EF92FF920F931F93CF93DF93CDB7AD
:10042000DEB7C054D1400FB6F894DEBF0FBECDBFCB
:100430000E94FB0100917F031091800320918103B2
:10044000309182036B017C01C01AD10AE20AF30ADF
:1004500097018601003D17402105310590F48091F8
:100460008703C05CDE4F0FB6F894DEBF0FBECDBF72
:10047000DF91CF911F910F91FF90EF90DF90CF9080
:10048000089560937F03709380038093810390931A
:10049000820310927A0310927903109278031092DB
:1004A00077031092760362E080917B030E946801DB
:1004B00061E070E080E090E00E94C90161E080911D
:1004C0007B030E94680160E080917B030E943A01F7
:1004D00080917C038551823020F58BE291E1019778
:1004E000F1F762E080917B030E94680180918803AC
:1004F00090E08230910538F0880F991F880F991F7E
:1005000005970197F1F7F89480E00E948D006F3F06
:100510007F4F8F4F9F4F61F410928703789480E054
:10052000A0CF64E170E080E090E00E94C901D9CFE3
:1005300081E00E948D006F3F7F4F8F4F9F4F61F38F
:100540008E010F5F1F4F6E012FEBC21A2EEFD20AE2
:10055000780180E00E948D00F701608371838283BF
:10056000938381E00E948D00F70164837583868305
:100570009783F8E0EF0EF11CEC14FD0451F778942A
:1005800030E020E0F801C080D180E280F380448137
:10059000558166817781FFEFCF16DF06EF06FF06F4
:1005A00031F04F3F8FEF58076807780719F4109222
:1005B0008703B5CFF90183E0F595E7958A95E1F7D3
:1005C000EA58FC4F8081880FC416D506E606F70668
:1005D00010F180832F5F3F4F085F1F4F2832310596
:1005E00089F640917A032091760380917703280F52
:1005F0003327331F80917803280F311D80917903B1
:10060000820F932F911D99274817190681F681E0D3
:100610008093870326CF8160DCCF0F931F93CF9306
:10062000DF93C82FD62F86E0C89FF0011124E15137
:10063000FD4F11A2878D90A181309105F1F058F006
:1006400082309105F1F1039709F440C0DF91CF9119
:100650001F910F9108956623C9F361E070E08C2F1C
:100660000E94C5000E94FB016093470370934803FA
:100670008093490390934A03E9CF0E94FB010091C4
:100680004703109148032091490330914A03AB017D
:10069000BC01401B510B620B730B8091590390916D
:1006A0005A03B0E0A0E084179507A607B70748F4FF
:1006B00062E070E08C2FDF91CF911F910F910C942D
:1006C000C50063E070E0D111C1CFF4CF70E060E00D
:1006D000F1CF862F642F0C946801862F642F0C9421
:1006E0003A01862F0C9411019091000189130BC0DF
:1006F000E8E6F0E0E4919FEF90930001E13049F0EB
:1007000028F0E23061F060E00C943A0110926E0043
:10071000FACF90916F009D7F90936F00F4CF9091EE
:1007200070009D7F9093700091E09093B000909145
:10073000B100987F94609093B1001092B300E3CF22
:10074000AF92BF92CF92DF92EF92FF920F931F93DF
:10075000CF93DF936C017B018B01040F151FEB011D
:100760005E01AE18BF08C017D10759F06991D601D4
:10077000ED91FC910190F081E02DC6010995892B46
:1007800079F7C501DF91CF911F910F91FF90EF9005
:10079000DF90CF90BF90AF900895FC01538D448DB2
:1007A000252F30E0842F90E0821B930B541710F01C
:1007B000CF96089501970895FC01918D828D981729
:1007C00061F0A28DAE0FBF2FB11D5D968C91928D01
:1007D0009F5F9F73928F90E008958FEF9FEF089532
:1007E000FC01918D828D981731F0828DE80FF11DFB
:1007F000858D90E008958FEF9FEF0895FC01918D16
:10080000228D892F90E0805C9F4F821B91098F730E
:100810009927089582E592E00E94FE0321E0892B4A
:1008200009F420E0822F089580E090E0892B29F0E0
:100830000E940A0481110C9400000895FC01A48D0B
:10084000A80FB92FB11DA35ABF4F2C91848D90E0F2
:1008500001968F739927848FA689B7892C93A089D5
:10086000B1898C91837080648C93938D848D98135F
:1008700006C00288F389E02D80818F7D80830895F2
:10088000EF92FF920F931F93CF93DF93EC0181E0E0
:10089000888F9B8D8C8D98131AC0E889F989808187
:1008A00085FF15C09FB7F894EE89FF896083E889BA
:1008B000F98980818370806480839FBF81E090E0AC
:1008C000DF91CF911F910F91FF90EF900895F62E39
:1008D0000B8D10E00F5F1F4F0F731127E02E8C8DD3
:1008E0008E110CC00FB607FCFACFE889F989808118
:1008F00085FFF5CFCE010E941E04F1CFEB8DEC0FEA
:10090000FD2FF11DE35AFF4FF0829FB7F8940B8F34
:10091000EA89FB8980818062CFCFCF93DF93EC019E
:10092000888D8823B9F0AA89BB89E889F9898C91D7
:1009300085FD03C0808186FD0DC00FB607FCF7CF93
:100940008C9185FFF2CF808185FFEDCFCE010E9493
:100950001E04E9CFDF91CF910895089590E080E0E3
:100960000895CF93DF93EC0160E08E810E943A01FD
:1009700061E08E810E943A0160E08E810E943A011E
:100980008BE891E00197F1F7DF91CF910895CF9235
:10099000DF92EF92FF920F931F93CF93DF936C013F
:1009A0007C0187E0E80EF11CD0E0C0E0062F10E0EB
:1009B000B8010C2E02C0759567950A94E2F7617034
:1009C000F70181917F010E943A012196C430D1053F
:1009D00079F7C601DF91CF911F910F91FF90EF90B2
:1009E000DF90CF900C94B104CF92DF92EF92FF9200
:1009F0000F931F93CF93DF93EC01F62E642F8C811E
:100A00000E943A018D818F3F19F060E00E943A0107
:100A10000F2D10E08F8584FF25C06E0187E0C80E82
:100A2000D11CF12CE12CB8010E2C02C075956795F4
:100A30000A94E2F76170F60181916F010E943A0118
:100A4000FFEFEF1AFF0A88E0E816F10461F7CE0124
:100A5000DF91CF911F910F91FF90EF90DF90CF909A
:100A60000C94B104B80184E0759567958A95E1F717
:100A7000CE010E94C7046F2DCE01DF91CF911F914F
:100A80000F91FF90EF90DF90CF900C94C70440E05F
:100A9000682F8EE593E00C94F404CF93DF938230BB
:100AA00029F490916D03986090936D038093710386
:100AB0001092720380E48093730380E18093740347
:100AC00080E58093750361E0809162030E94680174
:100AD000809163038F3F19F061E00E94680161E03B
:100AE000809164030E946801CEE5D3E09E012E55FB
:100AF000334080916D0384FD0BC084E090E021962B
:100B00002817390744F461E08E810E946801EECF16
:100B100088E090E0F4CF8BE39DE00197F1F760E08F
:100B2000809162030E943A0160E0809164030E9418
:100B30003A01809163038F3F19F060E00E943A010F
:100B400080916D0384FD39C063E08EE593E00E94DF
:100B5000C704CBE4D6E4CE010197F1F763E08EE55C
:100B600093E00E94C7042197F1F763E08EE593E0DC
:100B70000E94C70483E592E00197F1F762E08EE5F9
:100B800093E00E94C70480916D0380620E94470534
:100B900084E080936E038CE00E94470581E00E9410
:100BA00047058BE39FE10197F1F782E080936F03A4
:100BB00086E0DF91CF910C94470580620E94470543
:100BC0008BE496E40197F1F780916D0380620E94B7
:100BD000470583E592E00197F1F780916D0380620C
:100BE0000E944705D0CF41E00E94F40481E090E0EC
:100BF0000895FB0101900020E9F73197AF01461BF2
:100C0000570BDC01ED91FC910280F381E02D0994FA
:100C10008F929F92AF92BF920F931F93CF93DF93C8
:100C2000CDB7DEB7A1970FB6F894DEBF0FBECDBF2C
:100C300019A2423008F44AE08E010F5D1F4F842E46
:100C4000912CB12CA12CA50194010E949A0EE62FA3
:100C5000B901CA01EA3004F5E05DD801EE938D01D7
:100C6000232B242B252B79F790E080E0109729F097
:100C7000BD0182E592E00E94F905A1960FB6F894B5
:100C8000DEBF0FBECDBFDF91CF911F910F91BF90FF
:100C9000AF909F908F900895E95CDFCFCF92DF9265
:100CA000EF92FF92CF93DF936B017C016DE282E5BF
:100CB00092E00E944004EC0166277727CB016C1973
:100CC0007D098E099F094AE00E9408068C0F9D1F2E
:100CD000DF91CF91FF90EF90DF90CF900895BC010E
:100CE000990F880B990B97FD0C944E064AE00C94D3
:100CF0000806CF93DF93BC0182E592E00E94F905DC
:100D0000EC016CE371E082E592E00E94F9058C0F42
:100D10009D1FDF91CF9108950C94F9051F920F92BA
:100D20000FB60F9211242F933F938F939F93AF93FE
:100D3000BF9380914A0290914B02A0914C02B091D6
:100D40004D023091490223E0230F2D3758F50196CB
:100D5000A11DB11D2093490280934A0290934B023A
:100D6000A0934C02B0934D0280914E0290914F029D
:100D7000A0915002B09151020196A11DB11D809326
:100D80004E0290934F02A0935002B0935102BF9134
:100D9000AF919F918F913F912F910F900FBE0F9028
:100DA0001F90189526E8230F0296A11DB11DD2CFE2
:100DB0001F920F920FB60F9211242F933F934F93D0
:100DC0005F936F937F938F939F93AF93BF93EF93B3
:100DD000FF938091350290913602A0913702B09135
:100DE0003802892B8A2B8B2BD1F190913002E09124
:100DF0003102F0913202808189278083809135020F
:100E000090913602A0913702B09138021816190657
:100E10001A061B069CF48091350290913602A0912F
:100E20003702B09138020197A109B10980933502C8
:100E300090933602A0933702B0933802FF91EF915E
:100E4000BF91AF919F918F917F916F915F914F91E2
:100E50003F912F910F900FBE0F901F90189580918A
:100E600000010E947403EACF1F920F920FB60F92F7
:100E700011242F933F934F935F936F937F938F939F
:100E80009F93AF93BF93EF93FF9382E592E00E940D
:100E90001E04FF91EF91BF91AF919F918F917F9130
:100EA0006F915F914F913F912F910F900FBE0F90D7
:100EB0001F9018951F920F920FB60F9211242F9327
:100EC0008F939F93EF93FF93E0916202F0916302FF
:100ED0008081E0916802F091690282FD1BC09081DF
:100EE00080916B028F5F8F7320916C02821741F0AB
:100EF000E0916B02F0E0EE5AFD4F958F80936B020C
:100F0000FF91EF919F918F912F910F900FBE0F90B6
:100F10001F9018958081F4CF1092550210925402C0
:100F200088EE93E0A0E0B0E08093560290935702E1
:100F3000A0935802B093590288E191E09093530234
:100F40008093520285EC90E090935F0280935E0262
:100F500084EC90E0909361028093600280EC90E0DA
:100F6000909363028093620281EC90E0909365021B
:100F70008093640282EC90E0909367028093660213
:100F800086EC90E0909369028093680210926B0265
:100F900010926C0210926D0210926E0283E18093A7
:100FA0007B038BE080937C03E2ECF0E0E491E09340
:100FB0007D03EEEAF0E0E491E0937E0340E85EE337
:100FC00060E070E040938303509384036093850353
:100FD00070938603109261031092600324E331E062
:100FE00030935F0320935E03809362038FEF8093BF
:100FF0006303109264038FE08093650380E1809324
:1010000066038AE08093670389E080936803109207
:10101000690310926A0310926B0310926C03109292
:101020006D0381E00E944D051092F1021092F502CD
:101030001092F4021092F6028AE291E09093F0028C
:101040008093EF02EBE0F3E01082148213821582AA
:10105000369683E0E734F807B9F784E091E090939F
:1010600052038093510381E091E090935403809365
:10107000530384E08093550383E08093560388E014
:1010800091E09093500380934F038AE090E0909317
:1010900058038093570384EF91E090935A03809311
:1010A000590310925D0310925C0310924B0310924F
:1010B0004C0310924D0310924E0310925B0308955F
:1010C000789484B5826084BD84B5816084BD85B523
:1010D000826085BD85B5816085BD80916E0081602F
:1010E00080936E00109281008091810082608093D5
:1010F00081008091810081608093810080918000D7
:101100008160809380008091B10084608093B10001
:101110008091B00081608093B00080917A008460FB
:1011200080937A0080917A00826080937A00809127
:101130007A00816080937A0080917A008068809341
:101140007A001092C100E0916202F091630282E0A5
:101150008083E0915E02F0915F021082E091600274
:10116000F091610280E1808310926A02E091660250
:10117000F091670286E08083E0916402F09165025D
:10118000808180618083E0916402F09165028081BA
:1011900088608083E0916402F091650280818068BC
:1011A0008083E0916402F091650280818F7D80836D
:1011B0008FE391E00E94790682E00E944D0580E570
:1011C00091E00E9479066BE571E08EE593E00E9464
:1011D0008C0662E080917B030E9468010E94FB0103
:1011E000605D77408109910960937F03709380036C
:1011F000809381039093820387E3809388038CE636
:1012000091E00E94790661E08CE00E94680187E726
:1012100091E00E94790660E082E10E94680182E824
:1012200091E00E947906212C312C210123948824FD
:101230008A94982C540180E480937C0080917A00F9
:10124000806480937A0080917A0086FDFCCFC09103
:101250007800D0917900D0934802C093470268EE9D
:1012600073E080E090E00E94C90120E137E2DE01F6
:101270000E94E10E6B017C01A0E0B4E0AC1BBD0B51
:1012800026E930E00E94E10E9B01AC01C701B601E6
:101290000E94BC0E30934602209345026DE871E037
:1012A00082E592E00E948C06809145029091460270
:1012B0000E946F066BE971E082E592E00E948C0665
:1012C0006091470270914802072E000C880B990B21
:1012D00097FF43C00E944E066CE371E082E592E006
:1012E0000E94F90582E10E941101019731F460EA40
:1012F00071E082E592E00E948C0681E080935B03BE
:101300000E94FB0100914B0310914C0320914D036F
:1013100030914E03AB01BC01401B510B620B730BB0
:101320008091570390915803B0E0A0E0841795078F
:10133000A607B70708F007C1C0E080915503C8179A
:1013400080F4E0915103F0915203EC0FF11D62E043
:1013500080810E946801CF5FF0CF4AE00E940806BA
:10136000BBCF712C80915603781608F05FC0072D13
:1013700010E0E0915303F0915403E00FF11F61E09E
:1013800080810E946801E0915303F0915403E00FC3
:10139000F11F60E080810E943A01D201C101072C57
:1013A00004C0880F991FAA1FBB1F0A94D2F76C01B3
:1013B0007C01E094F094612C809155036816F8F458
:1013C000C62DD0E0E0915103F0915203EC0FFD1FC8
:1013D00080810E9411012496CC0FDD1FC151DD4F89
:1013E000892B41F4888199818C299D29998388834F
:1013F0006394E2CF888199818E219F21F7CFE0917C
:101400005303F0915403E00FF11F61E080810E94CB
:101410003A018091530390915403080F191F60E023
:10142000F80180810E94680173949CCF0FEE12E056
:10143000E8018F8D98A1892B31F41C8E8FEF9FEFDF
:101440009E8F8D8F19A2269693E0CB32D90789F70C
:10145000F12C80915503F81608F053C0E12CCF2CE5
:10146000D12CCC0CDD1CF601E950FD4F6F01209111
:101470005603E21608F043C0F601608171810E2C1C
:1014800002C0769567950A94E2F7F29E90011124C6
:101490002E0D311DEFEEF2E080E0458D568D2417C4
:1014A000350709F4A7C28F5F36968A30B1F760FF1F
:1014B00024C0EFEEF2E090E080E0448D411118C0CE
:1014C000E0914F03F0915003E20FF31F408156E08B
:1014D000589FF001599FF00D1124E151FD4F448FA9
:1014E000368F258F10A2178E61E00E940D0305C074
:1014F000019636968A30910501F7E394B8CFF394BC
:10150000A8CFF12CF80181A18111F82E0A5F1F4F9D
:10151000C017D107B9F70E94FB0160934B0370938A
:101520004C0380934D0390934E03FF2061F0809114
:101530001003882341F080910E0390910F03C09116
:101540000B03019719F010925B03C0E064E670E0B2
:1015500080E090E00E94C9010E940702882341F0C8
:1015600080917C038C3009F462C038F48B30F1F048
:1015700060E070E080EC9FE741C085518230C0F7A9
:10158000D09178036D2F70E0762F662766277F77DE
:1015900080917903682B90E080E00E949F0D2DECF4
:1015A0003CEC4CEC5DE30E942D0E5DC06091780335
:1015B00070E090E080E00E949F0D6B017C01D09173
:1015C0007903D7FF0AC0AC019B0160E070E080E8BE
:1015D0009FEB0E94FC0C6B017C01DF706D2F70E0B3
:1015E00090E080E00E94A10D2DEC3CEC4CEC5DE322
:1015F0000E942D0EA70196010E94FD0C0E94690D0C
:1016000070934402609343020E940702882351F0C2
:1016100080917C038B3030F08D3048F185518230E1
:1016200008F4B4C060E070E080EC9FE73CC0D0916B
:1016300078036D2F70E090E080E00E949F0D6B01B9
:101640007C01609179036F7070E090E080E00E940F
:10165000A10D2DEC3CEC4CEC5DE30E942D0EA7019E
:1016600096010E94FD0CD7FFC9CF9058C7CF60915B
:10167000770370E090E080E00E94A10D2DEC3CEC3F
:101680004CEC5DE30E942D0E6B017C0160917603B2
:1016900070E090E080E00E94A10D9B01AC01C701C9
:1016A000B6010E94FD0C0E94690D70934202609386
:1016B00041026BEA71E082E592E00E948C06809123
:1016C0004302909144020E946F0668EB71E082E54C
:1016D00092E00E948C0680914102909142020E9409
:1016E0006F0686EC91E00E94790664EF71E080E07D
:1016F00090E00E94C901E0917103E23008F058C007
:10170000E150F0E0E25AFC4F848980680E9447056E
:10171000809143029091440268EC71E0823391051C
:1017200059F069ED71E08A31910534F46AEE71E0A7
:10173000429714F06BEF71E08EE593E00E948C0607
:10174000CC2309F43BC0EDEDEC0FE73108F036C0D7
:101750000E2E000CFF0BE155F44F0C94DB0EE30C46
:10176000DE0BDE0BDE0BDE0BDE0BDE0B030CDE0B0B
:10177000DE0BDE0BDE0BDE0BDE0BDA0BEB0BEE0B08
:10178000F10BF40BF70BFA0BFD0B000C60917603D9
:101790007091770376276727762790E080E00E9494
:1017A0009F0D2DEC3CEC4CEC5DE30E942D0E7BCFAD
:1017B000E1E0A7CF8CE092E00E94790680E090E023
:1017C000892B09F438CD0E940A04882309F433CD0B
:1017D0000E94000030CD80E192E0EECF84E192E003
:1017E000EBCF88E192E0E8CF8CE192E0E5CF80E2B8
:1017F00092E0E2CF84E292E0DFCF88E292E0DCCFB9
:101800008CE292E0D9CF809100018D3031F5E8E68D
:10181000F0E0C491C7FDC5C061E08DE00E946801A1
:10182000CC2309F48FC0C23009F0A0C08091B10070
:10183000887F86608093B1008DE88093B3008092AA
:10184000350290923602A0923702B092380280910F
:101850007000826080937000A4C08F3F09F0A1C027
:101860008DE080930001E8E6F0E0C491CF3F09F4F9
:1018700098C0C13029F150F0C23009F440C0C7FD12
:1018800090C061E08DE00E946801CDCF14BC15BC12
:1018900084B5826084BD85B5816085BDE8EAF0E0ED
:1018A0008491E82FF0E0EE0FFF1FED58FF4F859178
:1018B0009491ECEBF0E0E491E0933402C0E0ACCF23
:1018C0001092800010928100809181008860809346
:1018D000810080918100816080938100E8EAF0E0DE
:1018E0008491E82FF0E0EE0FFF1FED58FF4F859138
:1018F0009491ECEBF0E0E491E09333028DCF109201
:10190000B0001092B1008091B00082608093B0006E
:101910008091B10081608093B100E8EAF0E08491A9
:10192000E82FF0E0EE0FFF1FED58FF4F85919491E7
:101930009093320280933102ECEBF0E0E491E0937B
:1019400030026ACF85B5887F846085BD8DE887BD0C
:1019500080923D0290923E02A0923F02B0924002DD
:1019600080916E00826080936E001BC0C13019F5BB
:1019700080918100887F8160809381008AE09EE869
:1019800090938900809388008092390290923A0265
:10199000A0923B02B0923C0280916F0082608093E3
:1019A0006F0064EF71E080E090E00E94C9018DE07B
:1019B0000E94740303CFC23021F0C111F2CF8AE03C
:1019C000C6CF8AE03ACF61E08CE00E94680161E016
:1019D0008CE00E943A0164EF71E080E090E00E94A8
:1019E000C90161E08CE00E94680160E08CE00E9427
:1019F0003A01E4CE617079CD5058BB27AA270E94E6
:101A0000140D0C94F30D0E94E50D38F00E94EC0DBE
:101A100020F039F49F3F19F426F40C94E20D0EF4F3
:101A2000E095E7FB0C94DC0DE92F0E94040E58F3BF
:101A3000BA17620773078407950720F079F4A6F5B3
:101A40000C94260E0EF4E0950B2EBA2FA02D0B0150
:101A5000B90190010C01CA01A0011124FF27591BF3
:101A600099F0593F50F4503E68F11A16F040A22FF9
:101A7000232F342F4427585FF3CF4695379527956A
:101A8000A795F0405395C9F77EF41F16BA0B620B69
:101A9000730B840BBAF09150A1F0FF0FBB1F661FB0
:101AA000771F881FC2F70EC0BA0F621F731F841FF3
:101AB00048F4879577956795B795F7959E3F08F019
:101AC000B0CF9395880F08F09927EE0F97958795DB
:101AD00008950E94700D6894B1110C94270E08951A
:101AE0000E940C0E88F09F5798F0B92F9927B75194
:101AF000B0F0E1F0660F771F881F991F1AF0BA95B2
:101B0000C9F714C0B13091F00E94260EB1E00895DB
:101B10000C94260E672F782F8827B85F39F0B93FCD
:101B2000CCF3869577956795B395D9F73EF4909564
:101B30008095709561957F4F8F4F9F4F0895E894E2
:101B400009C097FB3EF490958095709561957F4F05
:101B50008F4F9F4F9923A9F0F92F96E9BB279395B3
:101B6000F695879577956795B795F111F8CFFAF4C3
:101B7000BB0F11F460FF1BC06F5F7F4F8F4F9F4FF4
:101B800016C0882311F096E911C0772321F09EE852
:101B9000872F762F05C0662371F096E8862F70E0B8
:101BA00060E02AF09A95660F771F881FDAF7880F92
:101BB0009695879597F9089597F99F6780E870E063
:101BC00060E008959FEF80EC089500240A941616B3
:101BD000170618060906089500240A94121613061B
:101BE000140605060895092E0394000C11F48823A9
:101BF00052F0BB0F40F4BF2B11F460FF04C06F5FC5
:101C00007F4F8F4F9F4F089557FD9058440F551F9A
:101C100059F05F3F71F04795880F97FB991F61F06E
:101C20009F3F79F087950895121613061406551FE5
:101C3000F2CF4695F1DF08C0161617061806991F51
:101C4000F1CF86957105610508940895E894BB2746
:101C500066277727CB0197F908950E94400E0C94D0
:101C6000F30D0E94E50D38F00E94EC0D20F0952355
:101C700011F00C94DC0D0C94E20D11240C94270E41
:101C80000E94040E70F3959FC1F3950F50E0551F0D
:101C9000629FF001729FBB27F00DB11D639FAA27C1
:101CA000F00DB11DAA1F649F6627B00DA11D661F10
:101CB000829F2227B00DA11D621F739FB00DA11D31
:101CC000621F839FA00D611D221F749F3327A00DEB
:101CD000611D231F849F600D211D822F762F6A2F87
:101CE00011249F5750409AF0F1F088234AF0EE0FEC
:101CF000FF1FBB1F661F771F881F91505040A9F719
:101D00009E3F510580F00C94DC0D0C94270E5F3F34
:101D1000E4F3983ED4F3869577956795B795F79554
:101D2000E7959F5FC1F7FE2B880F911D96958795CC
:101D300097F90895A1E21A2EAA1BBB1BFD010DC045
:101D4000AA1FBB1FEE1FFF1FA217B307E407F5076B
:101D500020F0A21BB30BE40BF50B661F771F881F47
:101D6000991F1A9469F760957095809590959B01DD
:101D7000AC01BD01CF010895052E97FB1EF4009420
:101D80000E94D30E57FD07D00E949A0E07FC03D085
:101D90004EF40C94D30E50954095309521953F4FBD
:101DA0004F4F5F4F089590958095709561957F4F47
:101DB0008F4F9F4F0895EE0FFF1F0590F491E02D78
:101DC00009940E94E80EB7FF0895821B930B0895B3
:101DD000A29FB001B39FC001A39F700D811D11246C
:101DE000911DB29F700D811D1124911D0895F894CD
:101DF000FFCFFF04030208070605313233343536BE
:101E00003738392A3023000000004004A003CD03F6
:101E10008D04FE03DC03F0030000000069036D0382
:101E2000710300000000F305A003AE04AD040D0A29
:101E300000496E696369616C697A616E646F2E2E08
:101E40002E004C4344206C6973746F2E00202020B8
:101E5000204C465941205450462020202000444820
:101E600054206C6973746F2E004C4544206C697368
:101E7000746F2E00504952206C6973746F2E0049A4
:101E80004C554D494E4143494F4E3A200020563A59
:101E900020006D6F76696D69656E746F0054656DB5
:101EA000706572617475726120006F43202D204847
:101EB000756D656461642000250020202020494E56
:101EC00043454E44494F20202020002020205645E5
:101ED0004E54494C41444F52202020002043414C55
:101EE0004546414343494F4E204F4E20002020207D
:101EF00020204E4F524D414C2020202020003E20DB
:101F000031003E2032003E2033003E2034003E208F
:101F100035003E2036003E2037003E2038003E206F
:021F2000390086
:107E0000112484B714BE81FFF0D085E080938100F7
:107E100082E08093C00088E18093C10086E0809377
:107E2000C20080E18093C4008EE0C9D0259A86E02C
:107E300020E33CEF91E0309385002093840096BBD3
:107E4000B09BFECF1D9AA8958150A9F7CC24DD24C4
:107E500088248394B5E0AB2EA1E19A2EF3E0BF2EE7
:107E6000A2D0813461F49FD0082FAFD0023811F036
:107E7000013811F484E001C083E08DD089C08234E0
:107E800011F484E103C0853419F485E0A6D080C0E4
:107E9000853579F488D0E82EFF2485D0082F10E0AE
:107EA000102F00270E291F29000F111F8ED06801E7
:107EB0006FC0863521F484E090D080E0DECF843638
:107EC00009F040C070D06FD0082F6DD080E0C81688
:107ED00080E7D80618F4F601B7BEE895C0E0D1E017
:107EE00062D089930C17E1F7F0E0CF16F0E7DF06D8
:107EF00018F0F601B7BEE89568D007B600FCFDCFD4
:107F0000A601A0E0B1E02C9130E011968C91119780
:107F100090E0982F8827822B932B1296FA010C0160
:107F200087BEE89511244E5F5F4FF1E0A038BF0790
:107F300051F7F601A7BEE89507B600FCFDCF97BE46
:107F4000E89526C08437B1F42ED02DD0F82E2BD052
:107F50003CD0F601EF2C8F010F5F1F4F84911BD097
:107F6000EA94F801C1F70894C11CD11CFA94CF0C13
:107F7000D11C0EC0853739F428D08EE10CD085E9AC
:107F80000AD08FE07ACF813511F488E018D01DD067
:107F900080E101D065CF982F8091C00085FFFCCF94
:107FA0009093C60008958091C00087FFFCCF809118
:107FB000C00084FD01C0A8958091C6000895E0E648
:107FC000F0E098E1908380830895EDDF803219F02E
:107FD00088E0F5DFFFCF84E1DECF1F93182FE3DFCA
:107FE0001150E9F7F2DF1F91089580E0E8DFEE27F6
:047FF000FF270994CA
:027FFE00040479
:00000001FF
