:100000000C9463000C948B000C948B000C948B006C
:100010000C948B000C948B000C948B000C94670A4E
:100020000C948B000C948B000C948B000C948B0024
:100030000C948B000C948B000C948B000C948B0014
:100040000C941D0A0C948B000C94E90A0C94C30ABE
:100050000C948B000C948B000C948B000C948B00F4
:100060000C948B000C948B000000000024002700EF
:100070002A0000000008000201000003040700003D
:1000800000000000000000000000230026002900FE
:1000900000000000250028002B00020404040404D2
:1000A0000404040202020202020303030303030125
:1000B00002040810204080010204081020010204FC
:1000C000081020001B0B11241FBECFEFD8E0DEBFAD
:1000D000CDBF24E0A4EEB2E001C01D92A534B2076A
:1000E000E1F712E0A0E0B1E0EEE8F8E202C005902E
:1000F0000D92A43EB107D9F710E0C3E6D0E004C0EA
:100100002197FE010E944D12C236D107C9F70E9405
:10011000EF0B0C9445140C940000CF92DF92EF92F9
:10012000FF92CF93DF93B0913504A0E08111AB2F04
:100130008091360490E0880F991FAC014A575F4FB9
:10014000C0903B04D0903C04E0903D04F0903E040D
:1001500030E020E0FA01C591D491E881B90190E046
:1001600080E0EB23EA130AC02F5F3F4F6C157D053B
:100170008E059F0578F36FEF7FEFCB01DF91CF9175
:10018000FF90EF90DF90CF90089596E0899FD00187
:100190001124A955BC4F90967C936E935F9791E084
:1001A00091969C939197E0911404F091150490918D
:1001B0001304992339F0309751F0811108C08091D0
:1001C000C3030994309719F05C968C91FACF089587
:1001D000833081F028F4813099F08230A9F00895BD
:1001E0008730A9F08830C9F08430B1F48091800064
:1001F0008F7D03C0809180008F7780938000089569
:1002000084B58F7784BD089584B58F7DFBCF8091B1
:10021000B0008F778093B00008958091B0008F7DFB
:10022000F9CFCF93DF93282F30E0F901EE58FF4F3D
:100230008491F901E155FF4FD491F901E556FF4F43
:10024000C491CC23A1F081110E94E800EC2FF0E0D2
:10025000EE0FFF1FEA57FF4FA591B491EC91ED23EC
:1002600081E090E009F480E0DF91CF91089580E093
:1002700090E0FACF862F0C9411011F93CF93DF9358
:10028000282F30E0F901EE58FF4F8491F901E15534
:10029000FF4FD491F901E556FF4FC491CC23A9F04B
:1002A000162F81110E94E800EC2FF0E0EE0FFF1FE7
:1002B000E057FF4FA591B4918FB7F894EC911111CD
:1002C00008C0D095DE23DC938FBFDF91CF911F91C3
:1002D0000895DE2BF8CF862F642F0C943D01CF9329
:1002E000DF9390E0FC01E155FF4F249185569F4F2D
:1002F000FC0184918823C9F090E0880F991FFC01CC
:10030000E859FF4FA591B491FC01E057FF4FC5910B
:10031000D49161110DC09FB7F8948C9120958223E0
:100320008C938881282328839FBFDF91CF910895E4
:10033000623051F49FB7F8943C91822F80958323CB
:100340008C93E8812E2BEFCF8FB7F894EC912E2B66
:100350002C938FBFEACF8F929F92AF92BF92CF9292
:10036000DF92EF92FF92CF936B0190910301891777
:1003700069F09F3F09F46FC0CF91FF90EF90DF903D
:10038000CF90BF90AF909F908F900895EAE9F0E0F2
:10039000C491C7FDF1CF61E00E946F01CC2319F039
:1003A000C23009F02CC1F12CE12C60E072E18AE747
:1003B00090E0A70196010E94131249015A01DA0147
:1003C000C9010197A109B1098F3F9105A105B105A7
:1003D00009F00CF4F8C060E472E48FE090E0A7014B
:1003E00096010E9413122150310941095109C2306E
:1003F00009F0AAC082E02F3F31054105510509F0FF
:100400000CF492C160E970ED83E090E0A7019601E1
:100410000E941312215031094109510983E02F3FF5
:1004200031054105510509F00CF47EC168E478EE10
:1004300081E090E0A70196010E941312215031093A
:10044000410951092F3F31054105510511F00CF0CB
:1004500099C084E069C180930301EAE9F0E0C491A6
:10046000CF3F09F489CFC13039F148F0C23009F4E7
:1004700045C0C7FD81CF61E00E946F0191CF14BCE0
:1004800015BC94B5926094BD95B5916095BD282F2B
:1004900030E0F901E556FF4FE491F0E0EE0FFF1F69
:1004A000E057FF4F45915491F901E155FF4FE49119
:1004B000E093FD02C0E06FCF1092800010928100A7
:1004C000909181009860909381009091810091605B
:1004D00090938100282F30E0F901E556FF4FE49119
:1004E000F0E0EE0FFF1FE057FF4F45915491F901E7
:1004F000E155FF4FE491E093FC024DCF1092B00024
:100500001092B1009091B00092609093B0009091E1
:10051000B10091609093B100282F30E0F901E556C9
:10052000FF4FE491F0E0EE0FFF1FE057FF4F4591C2
:1005300054915093FB024093FA02F901E155FF4FA9
:10054000E491E093F90227CF2F3F31054105510592
:1005500009F00CF452C068E478EE81E090E0A70165
:1005600096010E9413122150310941095109CC23EF
:1005700009F4AFC02F3F31054105510511F00CF0D2
:10058000B0C067CF64E274EF80E090E0A70196010D
:100590000E941312215031094109510985E02F3F72
:1005A00031054105510509F008F4BEC062E17AE762
:1005B00080E090E0A70196010E94131221503109BA
:1005C000410951099CC09C0181E0C111ADC095B5A4
:1005D000987F892B85BD27BD8FEF9FEFDC0180932E
:1005E000060390930703A0930803B0930903809137
:1005F0006E00826080936E00BFCE82E0E6CFF12C69
:10060000E12C60E072E18AE790E0A70196010E9488
:100610001312215031094109510991E02115310589
:1006200081E0480751056CF068E478EE81E090E0E5
:10063000A70196010E941312215031094109510965
:1006400093E0C13009F076C080918100887F892BCA
:100650008093810030938900209388008FEF9FEF73
:10066000DC018093020390930303A0930403B093EF
:10067000050380916F00826080936F007DCE209390
:10068000B3008FEF9FEFDC018093FE029093FF0297
:10069000A0930003B0930103809170008260809367
:1006A00070006ACE84E02F3F31054105510509F005
:1006B00008F48DCF9AE0B594A794979487949A956F
:1006C000D1F7A5019401215031094109510985E073
:1006D0007ECF83E02F3F31054105510509F00CF431
:1006E00076CF62E17AE780E090E0A70196010E9470
:1006F00013122150310941095109CC2399F286E0A6
:100700002F3F31054105510579F070F08AE0B5942D
:10071000A794979487948A95D1F7A50194012150C5
:1007200031094109510987E09091B100987F892BE7
:100730008093B100C13009F48DCFC23009F49FCF4E
:10074000C1111ACE48CF862F642F0C946F013FB78A
:10075000F8948091F5029091F602A091F702B09181
:10076000F80226B5A89B05C02F3F19F00196A11DE0
:10077000B11D3FBFBA2FA92F982F8827BC01CD01EB
:10078000620F711D811D911D42E0660F771F881F4A
:10079000991F4A95D1F708958F929F92AF92BF9279
:1007A000CF92DF92EF92FF924B015C010E94A70370
:1007B0006B017C010E94A7036C197D098E099F09BA
:1007C000683E734081059105A8F321E0821A9108E3
:1007D000A108B10888EEC80E83E0D81EE11CF11C08
:1007E00081149104A104B10429F7FF90EF90DF90E8
:1007F000CF90BF90AF909F908F9008952FB7F894AF
:100800006091F1027091F2028091F3029091F402F2
:100810002FBF0895CF92DF92EF92FF920F931F9315
:10082000CF93DF93CDB7DEB7C054D1400FB6F89465
:10083000DEBF0FBECDBF0E94FE03009137041091B2
:1008400038042091390430913A046B017C01C01ABC
:10085000D10AE20AF30A97018601003D17402105FB
:10086000310590F480913F04C05CDE4F0FB6F894E0
:10087000DEBF0FBECDBFDF91CF911F910F91FF90D3
:10088000EF90DF90CF900895609337047093380411
:100890008093390490933A041092320410923104F8
:1008A0001092300410922F0410922E0462E0809176
:1008B00033040E946F0161E070E080E090E00E94EC
:1008C000CC0361E0809133040E946F0160E080916D
:1008D00033040E943D01809134048551823020F51B
:1008E0008BE291E10197F1F762E0809133040E947D
:1008F0006F018091400490E08230910538F0880FBC
:10090000991F880F991F05970197F1F7F89480E0D8
:100910000E948D006F3F7F4F8F4F9F4F61F4109269
:100920003F04789480E0A0CF64E170E080E090E044
:100930000E94CC03D9CF81E00E948D006F3F7F4F92
:100940008F4F9F4F61F38E010F5F1F4F6E012FEB93
:10095000C21A2EEFD20A780180E00E948D00F701C2
:10096000608371838283938381E00E948D00F7010D
:100970006483758386839783F8E0EF0EF11CEC1493
:10098000FD0451F7789430E020E0F801C080D18078
:10099000E280F3804481558166817781FFEFCF1635
:1009A000DF06EF06FF0631F04F3F8FEF580768076D
:1009B000780719F410923F04B5CFF90183E0F5955B
:1009C000E7958A95E1F7E25DFB4F8081880FC416B9
:1009D000D506E606F70610F180832F5F3F4F085FCC
:1009E0001F4F2832310589F64091320420912E04A0
:1009F00080912F04280F3327331F80913004280F54
:100A0000311D80913104820F932F911D9927481732
:100A1000190681F681E080933F0426CF8160DCCF08
:100A20000F931F93CF93DF93C82FD62F86E0C89FD5
:100A3000F0011124E955FC4F11A2878D90A181305E
:100A40009105F1F058F082309105F1F1039709F426
:100A500040C0DF91CF911F910F9108956623C9F394
:100A600061E070E08C2F0E94C5000E94FE0360933D
:100A7000FF03709300048093010490930204E9CF74
:100A80000E94FE030091FF031091000420910104D5
:100A900030910204AB01BC01401B510B620B730B84
:100AA0008091110490911204B0E0A0E084179507A2
:100AB000A607B70748F462E070E08C2FDF91CF9172
:100AC0001F910F910C94C50063E070E0D111C1CF6C
:100AD000F4CF70E060E0F1CF6F927F928F929F929F
:100AE000AF92BF92CF92DF92EF92FF920F931F933C
:100AF000CF93DF9381E0809313040E94FE03009163
:100B00000304109104042091050430910604AB0104
:100B1000BC01401B510B620B730B80910F04909131
:100B20001004B0E0A0E084179507A607B70708F007
:100B300014C1C0E080910D04C81760F4E09109046D
:100B4000F0910A04EC0FF11D62E080810E946F01B8
:100B5000CF5FF0CF712C812C912C54018394809124
:100B60000E04781608F05FC0072D10E0E0910B042A
:100B7000F0910C04E00FF11F61E080810E946F0191
:100B8000E0910B04F0910C04E00FF11F60E0808114
:100B90000E943D01D501C401072C04C0880F991F94
:100BA000AA1FBB1F0A94D2F76C017C01E094F09459
:100BB000612C80910D046816F8F4C62DD0E0E09108
:100BC0000904F0910A04EC0FFD1F80810E941101BD
:100BD0002496CC0FDD1FC955DC4F892B41F4888149
:100BE00099818C299D29998388836394E2CF888198
:100BF00099818E219F21F7CFE0910B04F0910C0495
:100C0000E00FF11F61E080810E943D0180910B04A3
:100C100090910C04080F191F60E0F80180810E9478
:100C20006F0173949CCFC7EAD3E0FE018FEF9FEF73
:100C3000278D30A1232B21F4148E968F858F11A23E
:100C4000369623E0E33EF20799F7F12C96E0D92E91
:100C500080910D04F81608F050C0E12C0F2D10E023
:100C6000000F111F01551C4F20910E04E21608F0D1
:100C700042C0F801608171810E2C02C076956795A3
:100C80000A94E2F7F29E900111242E0D311DE7EA3D
:100C9000F3E080E0458D568D2417350709F461C0D7
:100CA0008F5F36968A30B1F760FF23C0E7EAF3E042
:100CB00090E080E0448D411117C0E0910704F0916D
:100CC0000804E20FF31F4081D89EF001D99EF00D79
:100CD0001124E955FC4F448F368F258F10A2178EB3
:100CE00061E00E94100505C0019636968A30910594
:100CF00009F7E394B9CFF394ABCF10E089A1811148
:100D0000182F2696F3E0C33EDF07C1F70E94FE03CB
:100D10006093030470930404809305049093060485
:100D20001123D9F08091C8038823B9F08091C603BC
:100D30009091C703019789F48091C303DF91CF910C
:100D40001F910F91FF90EF90DF90CF90BF90AF90E9
:100D50009F908F907F906F9008951092130480E081
:100D6000EDCF6170BECF9091030189130BC0EAE90A
:100D7000F0E0E4919FEF90930301E13049F028F017
:100D8000E23061F060E00C943D0110926E00FACF09
:100D900090916F009D7F90936F00F4CF90917000C1
:100DA0009D7F9093700091E09093B0009091B1007E
:100DB000987F94609093B1001092B300E3CFAF920C
:100DC000BF92CF92DF92EF92FF920F931F93CF9338
:100DD000DF936C017B018B01040F151FEB015E019A
:100DE000AE18BF08C017D10759F06991D601ED912F
:100DF000FC910190F081E02DC6010995892B79F7CE
:100E0000C501DF91CF911F910F91FF90EF90DF907F
:100E1000CF90BF90AF900895FC01538D448D252F46
:100E200030E0842F90E0821B930B541710F0CF9684
:100E3000089501970895FC01918D828D981761F0B6
:100E4000A28DAE0FBF2FB11D5D968C91928D9F5FCD
:100E50009F73928F90E008958FEF9FEF0895FC01AC
:100E6000918D828D981731F0828DE80FF11D858D5F
:100E700090E008958FEF9FEF0895FC01918D228DF2
:100E8000892F90E0805C9F4F821B91098F73992777
:100E900008958AE093E00E943D0721E0892B09F440
:100EA00020E0822F089580E090E0892B29F00E94B5
:100EB000490781110C9400000895FC01A48DA80F2E
:100EC000B92FB11DA35ABF4F2C91848D90E001968C
:100ED0008F739927848FA689B7892C93A089B189AC
:100EE0008C91837080648C93938D848D981306C04D
:100EF0000288F389E02D80818F7D80830895EF92B1
:100F0000FF920F931F93CF93DF93EC0181E0888FC3
:100F10009B8D8C8D98131AC0E889F989808185FF93
:100F200015C09FB7F894EE89FF896083E889F98935
:100F300080818370806480839FBF81E090E0DF9137
:100F4000CF911F910F91FF90EF900895F62E0B8D8A
:100F500010E00F5F1F4F0F731127E02E8C8D8E1145
:100F60000CC00FB607FCFACFE889F989808185FFAC
:100F7000F5CFCE010E945D07F1CFEB8DEC0FFD2F79
:100F8000F11DE35AFF4FF0829FB7F8940B8FEA8967
:100F9000FB8980818062CFCFCF93DF93EC01888D76
:100FA0008823B9F0AA89BB89E889F9898C9185FDE4
:100FB00003C0808186FD0DC00FB607FCF7CF8C9172
:100FC00085FFF2CF808185FFEDCFCE010E945D07C6
:100FD000E9CFDF91CF910895089590E080E00895E2
:100FE000CF93DF93EC0160E08E810E943D0161E0D0
:100FF0008E810E943D0160E08E810E943D018BE860
:1010000091E00197F1F7DF91CF910895CF92DF92B0
:10101000EF92FF920F931F93CF93DF936C017C01AC
:1010200087E0E80EF11CD0E0C0E0062F10E0B80128
:101030000C2E02C0759567950A94E2F76170F7016E
:1010400081917F010E943D012196C430D10579F73D
:10105000C601DF91CF911F910F91FF90EF90DF902C
:10106000CF900C94F007CF92DF92EF92FF920F9304
:101070001F93CF93DF93EC01F62E642F8C810E9497
:101080003D018D818F3F19F060E00E943D010F2DE1
:1010900010E08F8584FF25C06E0187E0C80ED11C4B
:1010A000F12CE12CB8010E2C02C0759567950A94BD
:1010B000E2F76170F60181916F010E943D01FFEF3F
:1010C000EF1AFF0A88E0E816F10461F7CE01DF911C
:1010D000CF911F910F91FF90EF90DF90CF900C94E4
:1010E000F007B80184E0759567958A95E1F7CE0120
:1010F0000E9406086F2DCE01DF91CF911F910F91B5
:10110000FF90EF90DF90CF900C94060840E0682F9E
:1011100086E194E00C943308CF93DF93823029F476
:10112000909125049860909325048093290410924F
:101130002A0480E480932B0480E180932C0480E5D2
:1011400080932D0461E080911A040E946F018091C8
:101150001B048F3F19F061E00E946F0161E08091F4
:101160001C040E946F01C6E1D4E09E012651344068
:101170008091250484FD0BC084E090E0219628171F
:10118000390744F461E08E810E946F01EECF88E060
:1011900090E0F4CF8BE39DE00197F1F760E0809160
:1011A0001A040E943D0160E080911C040E943D01F0
:1011B00080911B048F3F19F060E00E943D018091F7
:1011C000250484FD39C063E086E194E00E940608AE
:1011D000CBE4D6E4CE010197F1F763E086E194E039
:1011E0000E9406082197F1F763E086E194E00E94EF
:1011F000060883E592E00197F1F762E086E194E06A
:101200000E9406088091250480620E94860884E07E
:10121000809326048CE00E94860881E00E94860864
:101220008BE39FE10197F1F782E08093270486E04A
:10123000DF91CF910C94860880620E9486088BE42F
:1012400096E40197F1F78091250480620E94860858
:1012500083E592E00197F1F78091250480620E9476
:101260008608D0CF90912904891710F08FEF890F4D
:10127000E82FF0E0EA5EFB4F848980680C948608D2
:1012800041E00E94330881E090E00895FB01019065
:101290000020E9F73197AF01461B570BDC01ED91B8
:1012A000FC910280F381E02D09948F929F92AF927E
:1012B000BF920F931F93CF93DF93CDB7DEB7A19764
:1012C0000FB6F894DEBF0FBECDBF19A2423008F4AE
:1012D0004AE08E010F5D1F4F842E912CB12CA12C62
:1012E000A50194010E94F111E62FB901CA01EA306B
:1012F00004F5E05DD801EE938D01232B242B252BE3
:1013000079F790E080E0109729F0BD018AE093E042
:101310000E944609A1960FB6F894DEBF0FBECDBF5E
:10132000DF91CF911F910F91BF90AF909F908F90C1
:101330000895E95CDFCFCF92DF92EF92FF92CF93D7
:10134000DF936B017C016DE28AE093E00E947F07EE
:10135000EC0166277727CB016C197D098E099F095F
:101360004AE00E9455098C0F9D1FDF91CF91FF909D
:10137000EF90DF90CF900895BC01990F880B990BE7
:1013800097FD0C949B094AE00C945509CF93DF9389
:10139000BC01990F880B990B97FF0EC00E949B0907
:1013A000EC0165E471E08AE093E00E9446098C0F4D
:1013B0009D1FDF91CF9108954AE00E945509F0CF1B
:1013C000CF93DF93BC018AE093E00E944609EC01D1
:1013D00065E471E08AE093E00E9446098C0F9D1F4E
:1013E000DF91CF9108950C9446090F931F93CF93EB
:1013F000DF93EC0188819981009759F02A813B8124
:101400002617370730F081E0DF91CF911F910F91C0
:1014100008958B016F5F7F4F0E947813009759F0FA
:10142000998388831B830A832C813D81232B59F761
:10143000FC011082E8CF80E0E7CF1F920F920FB639
:101440000F9211242F933F938F939F93AF93BF934A
:101450008091F1029091F202A091F302B091F40216
:101460003091F00223E0230F2D3758F50196A11D8E
:10147000B11D2093F0028093F1029093F202A093A9
:10148000F302B093F4028091F5029091F602A091DC
:10149000F702B091F8020196A11DB11D8093F502EB
:1014A0009093F602A093F702B093F802BF91AF9128
:1014B0009F918F913F912F910F900FBE0F901F9092
:1014C000189526E8230F0296A11DB11DD2CF1F92B9
:1014D0000F920FB60F9211242F933F934F935F9368
:1014E0006F937F938F939F93AF93BF93EF93FF93EC
:1014F0008091FE029091FF02A0910003B091010340
:10150000892B8A2B8B2BD1F19091F902E091FA0271
:10151000F091FB028081892780838091FE02909167
:10152000FF02A0910003B0910103181619061A06D4
:101530001B069CF48091FE029091FF02A091000393
:10154000B09101030197A109B1098093FE02909324
:10155000FF02A0930003B0930103FF91EF91BF91AD
:10156000AF919F918F917F916F915F914F913F913B
:101570002F910F900FBE0F901F901895809103012F
:101580000E94B306EACF1F920F920FB60F9211245A
:101590002F933F934F935F936F937F938F939F937B
:1015A000AF93BF93EF93FF938AE093E00E945D07B0
:1015B000FF91EF91BF91AF919F918F917F916F912B
:1015C0005F914F913F912F910F900FBE0F901F9001
:1015D00018951F920F920FB60F9211242F938F938D
:1015E0009F93EF93FF93E0911A03F0911B03808187
:1015F000E0912003F091210382FD1BC09081809136
:1016000023038F5F8F7320912403821741F0E091B1
:101610002303F0E0E65FFC4F958F80932303FF9157
:10162000EF919F918F912F910F900FBE0F901F9070
:1016300018958081F4CF10920D0310920C0388EE60
:1016400093E0A0E0B0E080930E0390930F03A0938B
:101650001003B093110381E291E090930B03809308
:101660000A0385EC90E0909317038093160384ECB3
:1016700090E0909319038093180380EC90E090938E
:101680001B0380931A0381EC90E090931D038093D9
:101690001C0382EC90E090931F0380931E0386EC62
:1016A00090E09093210380932003109223031092E3
:1016B0002403109225031092260383E180933304C0
:1016C0008BE080933404E2ECF0E0E491E0933504A5
:1016D000EEEAF0E0E491E093360440E85EE360E097
:1016E00070E040933B0450933C0460933D0470933E
:1016F0003E0410921904109218042DE331E0309347
:1017000017042093160480931A048FEF80931B0410
:1017100010921C048FE080931D0480E180931E04CE
:101720008AE080931F0489E08093200410922104B2
:101730001092220410922304109224041092250483
:1017400081E00E948C081092A9031092AD031092C0
:10175000AC031092AE0383E391E09093A8038093CF
:10176000A703E3ECF3E0108214821382158236960D
:1017700083E0EF3FF807B9F787E091E090930A0420
:101780008093090484E091E090930C0480930B040F
:1017900084E080930D0483E080930E048BE091E05D
:1017A00090930804809307048AE090E090931004DB
:1017B00080930F0484EF91E09093120480931104BE
:1017C0001092150410921404109203041092040451
:1017D0001092050410920604109213040895CF93FA
:1017E000DF93CDB7DEB728970FB6F894DEBF0FBEF4
:1017F000CDBF789484B5826084BD84B5816084BD9A
:1018000085B5826085BD85B5816085BD80916E009E
:10181000816080936E0010928100809181008260CF
:10182000809381008091810081608093810080910C
:1018300080008160809380008091B10084608093FB
:10184000B1008091B00081608093B00080917A00F7
:10185000846080937A0080917A00826080937A001D
:1018600080917A00816080937A0080917A0080680C
:1018700080937A001092C100E0911A03F0911B034B
:1018800082E08083E0911603F09117031082E091CB
:101890001803F091190380E1808310922203E091F4
:1018A0001E03F0911F0386E08083E0911C03F091FA
:1018B0001D03808180618083E0911C03F0911D03F2
:1018C000808188608083E0911C03F0911D038081FA
:1018D00080688083E0911C03F0911D0380818F7DDF
:1018E000808388E491E00E94E00982E00E948C08F5
:1018F00089E591E00E94E00964E671E086E194E008
:101900000E94F30962E0809133040E946F010E94FB
:10191000FE03605D774081099109609337047093FD
:1019200038048093390490933A0487E38093400409
:1019300084E791E00E94E00961E08CE00E946F0181
:101940008FE791E00E94E00960E082E10E946F0170
:101950008AE891E00E94E00985E991E00E94E009AF
:1019600050E1E52E57E2F52E6BE3C62E6FE1D62E41
:1019700070ED872E77E0972E212C34E0332E40E057
:10198000A42E40E0B42E80E480937C0080917A0005
:10199000806480937A0080917A0086FDFCCF00916C
:1019A0007800109179001093EF020093EE0264E644
:1019B00070E080E090E00E94CC0320E137E2D801A3
:1019C0000E9432120E94890F2B013C01B101601B61
:1019D000710B072E000C880B990B0E94890F2DECC0
:1019E0003CE848E153E40E94C40F9B01AC01C301F1
:1019F000B2010E9435110E94A7117093ED0260930D
:101A0000EC0282E10E9411019093EB028093EA02C2
:101A100082E10E9411010E94C6098091EA02909120
:101A2000EB02019769F580910201882329F180EC8E
:101A300091E00E94E0091092E9021092E80290926F
:101A40000101809200010091E8021091E902033047
:101A50001105B4F460ED77E08DE00E94AB0168E51C
:101A600072E080E090E00E94CC030F5F1F4F109364
:101A7000E9020093E802E7CF88ED91E00E94E009D7
:101A80000E946C05182F1A8219821C821B821E82EA
:101A90001D8270E060E0CE0101960E94F509298167
:101AA0003A8181114DC02115310519F0C9010E94FB
:101AB000EF121A8219821E821D821C821B8268EE1E
:101AC00073E080E090E00E94CC031A3209F0BEC1BE
:101AD00080E00E9432096EEE71E086E194E00E949F
:101AE000F30981E00E9432098CEF91E00E94E00945
:101AF0000E946C05182F682F8AE093E00E947F07F0
:101B00001123B1F3133209F454C11F8318860D81D8
:101B10001E810F5F1F4FB801CE0101960E94F5098B
:101B2000882331F329813A818D819E81BE01695FCD
:101B30007F4F820F931F0E943E141E830D83D8CFC8
:101B40001E821D8267E471E0C9010E943E14B7CF76
:101B50008551823008F09AC110913004612F70E0F5
:101B6000762F662766277F7780913104682B90E077
:101B700080E00E94870F2DEC3CEC4CEC5DE30E9472
:101B8000C40F5DC06091300470E090E080E00E947E
:101B9000870F2B013C011091310417FF0AC0AC01E3
:101BA0009B0160E070E080E89FEB0E94C8102B0171
:101BB0003C011F70612F70E090E080E00E94890F6F
:101BC0002DEC3CEC4CEC5DE30E94C40FA3019201B0
:101BD0000E94C9100E94A7117093E7026093E60269
:101BE0000E940A04882351F0809134048B3030F035
:101BF0008D3048F18551823008F4ACC060E070E06F
:101C000080EC9FE73CC010913004612F70E090E0C1
:101C100080E00E94870F2B013C01609131046F70BE
:101C200070E090E080E00E94890F2DEC3CEC4CECE1
:101C30005DE30E94C40FA30192010E94C91017FF27
:101C4000C9CF9058C7CF60912F0470E090E080E03A
:101C50000E94890F2DEC3CEC4CEC5DE30E94C40F1C
:101C60002B013C0160912E0470E090E080E00E9426
:101C7000890F9B01AC01C301B2010E94C9100E94EF
:101C8000A7117093E5026093E40267E672E08AE0D0
:101C900093E00E94F3098091E6029091E7020E948E
:101CA000BC0964E772E08AE093E00E94F309809146
:101CB000E4029091E5020E94BC0982E892E00E9451
:101CC000E00964E670E080E090E00E94CC0380913F
:101CD000EC029091ED0261E0843691050CF04CC06D
:101CE0008CE00E946F0161E08CE00E943D0181E088
:101CF0000E9432098091E6029091E70282339105B9
:101D000009F03FC064E872E086E194E00E94F309C4
:101D100060910001709101018DE00E94AB0168E5C6
:101D200072E080E090E00E94CC0381E080930201A9
:101D300089819A81009711F00E94EF12A114B104D9
:101D400009F421CE0E944907882309F415CE0E9488
:101D5000000012CE60912E0470912F047627672721
:101D6000762790E080E00E94870F2DEC3CEC4CEC55
:101D70005DE30E94C40F83CF8CE00E946F0160E09E
:101D8000B3CF8A31910554F068E972E086E194E0BE
:101D90000E94F3098DE00E94B306CACF69EA72E09F
:101DA000429714F06AEB72E086E194E00E94F30936
:101DB000BFCF87E491E00E94E0096BEC72E08AE01B
:101DC00093E00E94F3094D815E8169817A818AE006
:101DD00093E00E94DF0665E471E08AE093E00E94F0
:101DE000460989819A81412C512C3201009719F0C2
:101DF0000E944B0F2B0162E172E08AE093E00E94A7
:101E0000F309C201880F991F840D951D0596B7012E
:101E10000E94DD118C010E94C6090B371E4039F467
:101E200081E08093020186E292E00E94E00981E075
:101E30000E948608C6010197F1F780E00E943209EE
:101E400060E472E086E194E00E94F30961E572E0EB
:101E50008AE093E00E94F3098091EC029091ED02F8
:101E60000E94BC096FE572E08AE093E00E94F309EA
:101E70000E940A04882351F0809134048C3009F4C4
:101E8000C2CE08F065CE8B3009F47CCE60E070E005
:101E900080EC9FE79FCE1F93FC0199278827BC0108
:101EA000E89411911032E9F3193010F01E30C8F3A4
:101EB0001B3251F01D3249F4689406C00E94720F23
:101EC000610F711D811D911D119110531A30B0F3D6
:101ED0003EF490958095709561957F4F8F4F9F4F01
:101EE0001F910895592F482F372F262F660F771FE0
:101EF000881F991F660F771F881F991F620F731F16
:101F0000841F951F660F771F881F991F0895E894F7
:101F100009C097FB3EF490958095709561957F4F31
:101F20008F4F9F4F9923A9F0F92F96E9BB279395DF
:101F3000F695879577956795B795F111F8CFFAF4EF
:101F4000BB0F11F460FF1BC06F5F7F4F8F4F9F4F20
:101F500016C0882311F096E911C0772321F09EE87E
:101F6000872F762F05C0662371F096E8862F70E0E4
:101F700060E02AF09A95660F771F881FDAF7880FBE
:101F80009695879597F908950E94D70F0C9448105D
:101F90000E943A1038F00E94411020F0952311F071
:101FA0000C9431100C94371011240C947C100E9466
:101FB000591070F3959FC1F3950F50E0551F629F24
:101FC000F001729FBB27F00DB11D639FAA27F00D92
:101FD000B11DAA1F649F6627B00DA11D661F829FB9
:101FE0002227B00DA11D621F739FB00DA11D621F9E
:101FF000839FA00D611D221F749F3327A00D611DBB
:10200000231F849F600D211D822F762F6A2F11249C
:102010009F5750409AF0F1F088234AF0EE0FFF1FCF
:10202000BB1F661F771F881F91505040A9F79E3F26
:10203000510580F00C9431100C947C105F3FE4F358
:10204000983ED4F3869577956795B795F795E7957C
:102050009F5FC1F7FE2B880F911D9695879597F985
:10206000089597F99F6780E870E060E008959FEF1A
:1020700080EC089500240A9416161706180609061F
:10208000089500240A9412161306140605060895EE
:10209000092E0394000C11F4882352F0BB0F40F476
:1020A000BF2B11F460FF04C06F5F7F4F8F4F9F4FB6
:1020B000089557FD9058440F551F59F05F3F71F038
:1020C0004795880F97FB991F61F09F3F79F087959F
:1020D0000895121613061406551FF2CF4695F1DF28
:1020E00008C0161617061806991FF1CF86957105B8
:1020F000610508940895E894BB2766277727CB01EC
:1021000097F908952F923F924F925F926F927F922C
:102110008F929F92AF92BF92CF92DF92EF92FF92F7
:102120000F931F93CF93DF93CDB7DEB7CA1BDB0BA3
:102130000FB6F894DEBF0FBECDBF09942A88398848
:1021400048885F846E847D848C849B84AA84B9844F
:10215000C884DF80EE80FD800C811B81AA81B9815B
:10216000CE0FD11D0FB6F894DEBF0FBECDBFED016F
:102170000895A29FB001B39FC001A39F700D811D60
:102180001124911DB29F700D811D1124911D089580
:102190005058BB27AA270E94E0100C9448100E94B8
:1021A0003A1038F00E94411020F039F49F3F19F4A2
:1021B00026F40C9437100EF4E095E7FB0C943110E4
:1021C000E92F0E94591058F3BA1762077307840762
:1021D000950720F079F4A6F50C947B100EF4E095A9
:1021E0000B2EBA2FA02D0B01B90190010C01CA01D1
:1021F000A0011124FF27591B99F0593F50F4503E7C
:1022000068F11A16F040A22F232F342F4427585F6D
:10221000F3CF469537952795A795F0405395C9F785
:102220007EF41F16BA0B620B730B840BBAF091503D
:10223000A1F0FF0FBB1F661F771F881FC2F70EC0DC
:10224000BA0F621F731F841F48F4879577956795AF
:10225000B795F7959E3F08F0B0CF9395880F08F09B
:102260009927EE0F9795879508950E9449110C9430
:1022700048100E94411058F00E943A1040F029F492
:102280005F3F29F00C94311051110C947C100C9488
:1022900037100E94591068F39923B1F3552391F335
:1022A000951B550BBB27AA2762177307840738F0C5
:1022B0009F5F5F4F220F331F441FAA1FA9F335D022
:1022C0000E2E3AF0E0E832D091505040E695001CD6
:1022D000CAF72BD0FE2F29D0660F771F881FBB1F90
:1022E000261737074807AB07B0E809F0BB0B802D6E
:1022F000BF01FF2793585F4F3AF09E3F510578F09A
:102300000C9431100C947C105F3FE4F3983ED4F3AE
:10231000869577956795B795F7959F5FC9F7880F6D
:10232000911D9695879597F90895E1E0660F771FBF
:10233000881FBB1F621773078407BA0720F0621B50
:10234000730B840BBA0BEE1F88F7E09508950E947B
:10235000AE116894B1110C947C1008950E94611024
:1023600088F09F5798F0B92F9927B751B0F0E1F056
:10237000660F771F881F991F1AF0BA95C9F714C006
:10238000B13091F00E947B10B1E008950C947B1065
:10239000672F782F8827B85F39F0B93FCCF386953F
:1023A00077956795B395D9F73EF49095809570959C
:1023B00061957F4F8F4F9F4F089597FB072E16F41F
:1023C000009407D077FD09D00E94391207FC05D090
:1023D0003EF4909581959F4F0895709561957F4F3C
:1023E0000895A1E21A2EAA1BBB1BFD010DC0AA1F56
:1023F000BB1FEE1FFF1FA217B307E407F50720F06E
:10240000A21BB30BE40BF50B661F771F881F991FE8
:102410001A9469F760957095809590959B01AC0131
:10242000BD01CF010895052E97FB1EF400940E9474
:102430002A1257FD07D00E94F11107FC03D04EF479
:102440000C942A1250954095309521953F4F4F4F4F
:102450005F4F089590958095709561957F4F8F4F50
:102460009F4F08950E94B910B7FF0895821B930BE8
:102470000895AA1BBB1B51E107C0AA1FBB1FA617CB
:10248000B70710F0A61BB70B881F991F5A95A9F71D
:1024900080959095BC01CD010895EE0FFF1F05902A
:1024A000F491E02D09940F931F93CF93DF93823023
:1024B000910510F482E090E0E0914304F09144042F
:1024C00030E020E0B0E0A0E0309799F4211531052C
:1024D00009F44AC0281B390B24303105D8F58A810C
:1024E0009B816115710589F1FB0193838283FE0154
:1024F00011C0408151810281138148175907E0F0D2
:102500004817590799F4109761F012960C93129797
:1025100013961C933296CF01DF91CF911F910F91AB
:1025200008950093430410934404F4CF211531051A
:1025300051F04217530738F0A901DB019A01BD01A0
:10254000DF01F801C1CFEF01F9CF909344048093EC
:102550004304CDCFFE01E20FF31F819391932250EC
:10256000310939832883D7CF209141043091420427
:10257000232B41F42091190130911A013093420428
:102580002093410420911701309118012115310544
:1025900041F42DB73EB740911B0150911C01241B03
:1025A000350BE0914104F0914204E217F307A0F4E7
:1025B0002E1B3F0B2817390778F0AC014E5F5F4F99
:1025C0002417350748F04E0F5F1F50934204409385
:1025D0004104819391939FCFF0E0E0E09CCFCF93B3
:1025E000DF930097E9F0FC01329713821282A091E9
:1025F0004304B0914404ED0130E020E01097A1F4D1
:1026000020813181820F931F209141043091420437
:102610002817390709F061C0F0934204E0934104A0
:10262000DF91CF910895EA01CE17DF07E8F54A81DF
:102630005B819E0141155105B1F7E901FB83EA83F6
:1026400049915991C40FD51FEC17FD0761F48081A2
:1026500091810296840F951FE90199838883828175
:1026600093819B838A83F0E0E0E012968D919C91A8
:1026700013970097B9F52D913C911197CD010296D2
:10268000820F931F2091410430914204281739078B
:1026900039F6309751F51092440410924304B093E8
:1026A0004204A0934104BCCFD383C28340815181B3
:1026B000840F951FC817D90761F44E5F5F4F88815B
:1026C0009981480F591F518340838A819B8193834D
:1026D00082832115310509F0B0CFF0934404E093D3
:1026E00043049ECFFD01DC01C0CF13821282D7CFFD
:1026F000B0E0A0E0EEE7F3E10C9484108C010097C9
:1027000051F4CB010E9453128C01C801CDB7DEB742
:10271000E0E10C94A010FC01E60FF71F9C01225091
:102720003109E217F30708F49DC0D901CD91DC917E
:102730001197C617D70798F0C530D10530F3CE01F1
:1027400004978617970708F3C61BD70B2297C193E8
:10275000D1936D937C93CF010E94EF12D6CF5B0192
:10276000AC1ABD0A4C018C0E9D1EA0914304B09181
:102770004404512C412CF12CE12C109731F580911F
:102780004104909142048815990509F05CC04616F1
:10279000570608F058C080911701909118010097D2
:1027A00041F48DB79EB740911B0150911C01841BD1
:1027B000950BE817F90708F055C0F0934204E09331
:1027C0004104F90171836083A0CF8D919C91119791
:1027D00012966C90129713967C901397A815B905D2
:1027E00059F56C0142E0C40ED11CCA14DB0420F17F
:1027F000AC014A195B09DA011296159780F06282E2
:10280000738251834083D9016D937C93E114F10469
:1028100071F0D7011396FC93EE93129776CF229620
:102820008C0F9D1FF90191838083F301EFCFF0930B
:102830004404E093430469CF4816590608F42C0178
:102840007D01D3019ACFCB010E9453127C010097E6
:1028500049F0AE01B8010E943514C8010E94EF1280
:10286000870153CF10E000E050CFFB01DC0102C034
:1028700001900D9241505040D8F70895FB01DC01C2
:0E28800001900D920020E1F70895F894FFCF2B
:10288E00DC0001FF0403020807060531323334353C
:10289E00363738392A302300004504800000000006
:1028AE00007F07DF060C07CC073D071B072F07002D
:1028BE00000000A3036B013A01000000004009DF95
:1028CE0006ED07EC070D0A00496E696369616C69D4
:1028DE007A616E646F2E2E2E004C4344206C697309
:1028EE00746F2E00202020204C46594170707020AD
:1028FE0020202000444854206C6973746F2E004CC5
:10290E004544206C6973746F2E00504952206C69D7
:10291E0073746F2E00282A29207061726120696EEF
:10292E0067726573617220636C617665207C2066C8
:10293E00696E616C697A6120636F6E2028232900AD
:10294E006D6F76696D69656E746F2064657465630D
:10295E007461646F202D20006D6F76696D69656EF0
:10296E00746F2073696E20616C61726D6100494EE7
:10297E00475245534520434C415645002A2A2A20AA
:10298E00494E475245534520434C415645202A2A2D
:10299E002A0076616C69646172436C6176652C20E5
:1029AE006678203D2000436C617665204F4B2E20CB
:1029BE00416C61726D61206163746976616461005E
:1029CE00202020204C465941726F6B6F2020202012
:1029DE0000494C756D696E6163696F6E3A20002017
:1029EE006C7578202D200054656D7065726174755C
:1029FE00726120006F43202D2048756D65646164FF
:102A0E002000250020494E43454E44494F2E20417B
:102A1E004C41524D4120200020202056454E544915
:102A2E004C41444F52202020002043414C4546410A
:102A3E004343494F4E204F4E200020202020204E51
:102A4E004F524D414C202020202000456C20636FBA
:102A5E006469676F20696E6772657361646F206564
:042A6E00733A200097
:00000001FF
