:020000040000FA
:100000000C9463000C948B000C948B000C948B006C
:100010000C948B000C948B000C948B000C94D306E6
:100020000C948B000C948B000C948B000C948B0024
:100030000C948B000C948B000C948B000C948B0014
:100040000C9489060C948B000C9455070C942F0784
:100050000C948B000C948B000C948B000C948B00F4
:100060000C948B000C948B000200000000240027ED
:10007000002A0000000000250028002B00000000DE
:100080000800020100000304070000000000000057
:1000900000000000002300260029000404040404DA
:1000A0000404040202020202020303030303030125
:1000B00002040810204080010204081020010204FC
:1000C00008102000870711241FBECFEFD8E0DEBF45
:1000D000CDBF11E0A0E0B1E0E8EBFDE102C005908A
:1000E0000D92AE3AB107D9F723E0AEEAB1E001C014
:1000F0001D92A530B207E1F710E0C3E6D0E004C0DE
:100100002197FE010E94BE0EC236D107C9F70E9498
:100110005D080C94DA0E0C94000096E0899FD001E3
:100120001124AA56BD4F90967C936E935F9791E0F1
:1001300091969C939197E0910303F0910403909121
:100140000203992339F0309751F0811108C0809152
:10015000B2020994309719F05C968C91FACF089509
:10016000CF92DF92EF92FF92CF93DF93B091720222
:10017000A0E08111AB2F8091730290E0880F991F4E
:10018000AC014F565F4FC0907802D0907902E0905A
:100190007A02F0907B0230E020E0FA01C591D49120
:1001A000E881B90190E080E0EB23EA130AC02F5FF9
:1001B0003F4F6C157D058E059F0578F36FEF7FEF40
:1001C000CB01DF91CF91FF90EF90DF90CF9008951A
:1001D000833081F028F4813099F08230A9F00895BD
:1001E0008730A9F08830C9F08430B1F48091800064
:1001F0008F7D03C0809180008F7780938000089569
:1002000084B58F7784BD089584B58F7DFBCF8091B1
:10021000B0008F778093B00008958091B0008F7DFB
:10022000F9CFCF93DF93282F30E0F901E358FF4F48
:100230008491F901E155FF4FD491F901E556FF4F43
:10024000C491CC23A1F081110E94E800EC2FF0E0D2
:10025000EE0FFF1FEF56FF4FA591B491EC91ED23E8
:1002600081E090E009F480E0DF91CF91089580E093
:1002700090E0FACF1F93CF93DF93282F30E0F9015E
:10028000E358FF4F8491F901E155FF4FD491F901F3
:10029000E556FF4FC491CC23A9F0162F81110E947F
:1002A000E800EC2FF0E0EE0FFF1FED58FF4FA59197
:1002B000B4918FB7F894EC91111108C0D095DE235A
:1002C000DC938FBFDF91CF911F910895DE2BF8CF84
:1002D000CF93DF9390E0FC01E155FF4F24918556C9
:1002E0009F4FFC0184918823C9F090E0880F991FEB
:1002F000FC01E759FF4FA591B491FC01ED58FF4F68
:10030000C591D49161110DC09FB7F8948C9120953F
:1003100082238C938881282328839FBFDF91CF91EC
:100320000895623051F49FB7F8943C91822F8095E4
:1003300083238C93E8812E2BEFCF8FB7F894EC9129
:100340002E2B2C938FBFEACF3FB7F8948091CA0130
:100350009091CB01A091CC01B091CD0126B5A89B85
:1003600005C02F3F19F00196A11DB11D3FBFBA2F47
:10037000A92F982F8827BC01CD01620F711D811D07
:10038000911D42E0660F771F881F991F4A95D1F78C
:1003900008958F929F92AF92BF92CF92DF92EF9289
:1003A000FF924B015C010E94A4016B017C010E9441
:1003B000A4016C197D098E099F09683E734081056F
:1003C0009105A8F321E0821A9108A108B10888EEEE
:1003D000C80E83E0D81EE11CF11C81149104A10415
:1003E000B10429F7FF90EF90DF90CF90BF90AF90CE
:1003F0009F908F9008952FB7F8946091C6017091E7
:10040000C7018091C8019091C9012FBF08950F9332
:100410001F93CF93DF93C82FD62F86E0C89FF0019C
:100420001124EA56FD4F11A2878D90A181309105CC
:10043000F1F058F082309105F1F1039709F440C0D2
:10044000DF91CF911F910F9108956623C9F361E069
:1004500070E08C2F0E948D000E94FB016093EE02E1
:100460007093EF028093F0029093F102E9CF0E9423
:10047000FB010091EE021091EF022091F002309109
:10048000F102AB01BC01401B510B620B730B80915D
:10049000000390910103B0E0A0E084179507A60740
:1004A000B70748F462E070E08C2FDF91CF911F9185
:1004B0000F910C948D0063E070E0D111C1CFF4CFA7
:1004C00070E060E0F1CFCF92DF92EF92FF920F9356
:1004D0001F93CF93DF93CDB7DEB7C054D1400FB693
:1004E000F894DEBF0FBECDBF0E94FB0100917402E5
:1004F0001091750220917602309177026B017C0198
:10050000C01AD10AE20AF30A97018601003D17409A
:100510002105310590F480917C02C05CDE4F0FB65E
:10052000F894DEBF0FBECDBFDF91CF911F910F9129
:10053000FF90EF90DF90CF900895609374027093D6
:100540007502809376029093770210926F02109258
:100550006E0210926D0210926C0210926B0262E0B9
:10056000809170020E94680161E070E080E090E09C
:100570000E94C90161E0809170020E94680160E000
:10058000809170020E943A018091710285518230FF
:1005900020F58BE291E10197F1F762E08091700222
:1005A0000E94680180917D0290E08230910538F0D0
:1005B000880F991F880F991F05970197F1F7F894F5
:1005C00080E00E94B0006F3F7F4F8F4F9F4F61F4DC
:1005D00010927C02789480E0A0CF64E170E080E02B
:1005E00090E00E94C901D9CF81E00E94B0006F3F26
:1005F0007F4F8F4F9F4F61F38E010F5F1F4F6E0133
:100600002FEBC21A2EEFD20A780180E00E94B000D0
:10061000F701608371838283938381E00E94B0003D
:10062000F7016483758386839783F8E0EF0EF11CEE
:10063000EC14FD0451F7789430E020E0F801C0801C
:10064000D180E280F3804481558166817781FFEF1C
:10065000CF16DF06EF06FF0631F04F3F8FEF58074A
:100660006807780719F410927C02B5CFF90183E08E
:10067000F595E7958A95E1F7E559FD4F8081880F5B
:10068000C416D506E606F70610F180832F5F3F4FAC
:10069000085F1F4F2832310589F640916F02209183
:1006A0006B0280916C02280F3327331F80916D02FB
:1006B000280F311D80916E02820F932F911D992773
:1006C0004817190681F681E080937C0226CF81606D
:1006D000DCCF862F642F0C946801862F642F0C9436
:1006E0003A01862F0C9411019091000189130BC0DF
:1006F000E8E6F0E0E4919FEF90930001E13049F0EB
:1007000028F0E23061F060E00C943A0110926E0043
:10071000FACF90916F009D7F90936F00F4CF9091EE
:1007200070009D7F9093700091E09093B000909145
:10073000B100987F94609093B1001092B300E3CF22
:10074000AF92BF92CF92DF92EF92FF920F931F93DF
:10075000CF93DF936C017B018B01040F151FEB011D
:100760005E01AE18BF08C017D10759F06991D601D4
:10077000ED91FC910190F081E02DC6010995892B46
:1007800079F7C501DF91CF911F910F91FF90EF9005
:10079000DF90CF90BF90AF900895FC01538D448DB2
:1007A000252F30E0842F90E0821B930B541710F01C
:1007B000CF96089501970895FC01918D828D981729
:1007C00061F0A28DAE0FBF2FB11D5D968C91928D01
:1007D0009F5F9F73928F90E008958FEF9FEF089532
:1007E000FC01918D828D981731F0828DE80FF11DFB
:1007F000858D90E008958FEF9FEF0895FC01918D16
:10080000228D892F90E0805C9F4F821B91098F730E
:10081000992708958EEC91E00E94FE0321E0892B38
:1008200009F420E0822F089580E090E0892B29F0E0
:100830000E940A0481110C9400000895FC01A48D0B
:10084000A80FB92FB11DA35ABF4F2C91848D90E0F2
:1008500001968F739927848FA689B7892C93A089D5
:10086000B1898C91837080648C93938D848D98135F
:1008700006C00288F389E02D80818F7D80830895F2
:10088000EF92FF920F931F93CF93DF93EC0181E0E0
:10089000888F9B8D8C8D98131AC0E889F989808187
:1008A00085FF15C09FB7F894EE89FF896083E889BA
:1008B000F98980818370806480839FBF81E090E0AC
:1008C000DF91CF911F910F91FF90EF900895F62E39
:1008D0000B8D10E00F5F1F4F0F731127E02E8C8DD3
:1008E0008E110CC00FB607FCFACFE889F989808118
:1008F00085FFF5CFCE010E941E04F1CFEB8DEC0FEA
:10090000FD2FF11DE35AFF4FF0829FB7F8940B8F34
:10091000EA89FB8980818062CFCFCF93DF93EC019E
:10092000888D8823B9F0AA89BB89E889F9898C91D7
:1009300085FD03C0808186FD0DC00FB607FCF7CF93
:100940008C9185FFF2CF808185FFEDCFCE010E9493
:100950001E04E9CFDF91CF910895089590E080E0E3
:100960000895CF93DF93EC0160E08E810E943A01FD
:1009700061E08E810E943A0160E08E810E943A011E
:100980008BE891E00197F1F7DF91CF910895CF9235
:10099000DF92EF92FF920F931F93CF93DF936C013F
:1009A0007C0187E0E80EF11CD0E0C0E0062F10E0EB
:1009B000B8010C2E02C0759567950A94E2F7617034
:1009C000F70181917F010E943A012196C430D1053F
:1009D00079F7C601DF91CF911F910F91FF90EF90B2
:1009E000DF90CF900C94B104CF92DF92EF92FF9200
:1009F0000F931F93CF93DF93EC01F62E642F8C811E
:100A00000E943A018D818F3F19F060E00E943A0107
:100A10000F2D10E08F8584FF25C06E0187E0C80E82
:100A2000D11CF12CE12CB8010E2C02C075956795F4
:100A30000A94E2F76170F60181916F010E943A0118
:100A4000FFEFEF1AFF0A88E0E816F10461F7CE0124
:100A5000DF91CF911F910F91FF90EF90DF90CF909A
:100A60000C94B104B80184E0759567958A95E1F717
:100A7000CE010E94C7046F2DCE01DF91CF911F914F
:100A80000F91FF90EF90DF90CF900C94C70440E05F
:100A9000682F8EE792E00C94F404CF93DF938230BA
:100AA00029F490918D02986090938D028093910229
:100AB0001092920280E48093930280E180939402EA
:100AC00080E58093950261E0809182020E94680136
:100AD000809183028F3F19F061E00E94680161E01C
:100AE000809184020E946801CEE7D2E09E012E57D9
:100AF000324080918D0284FD0BC084E090E021960D
:100B00002817390744F461E08E810E946801EECF16
:100B100088E090E0F4CF8BE39DE00197F1F760E08F
:100B2000809182020E943A0160E0809184020E94DA
:100B30003A01809183028F3F19F060E00E943A01F0
:100B400080918D0284FD39C063E08EE792E00E94BF
:100B5000C704CBE4D6E4CE010197F1F763E08EE75A
:100B600092E00E94C7042197F1F763E08EE792E0DC
:100B70000E94C70483E592E00197F1F762E08EE7F7
:100B800092E00E94C70480918D0280620E94470516
:100B900084E080938E028CE00E94470581E00E94F1
:100BA00047058BE39FE10197F1F782E080938F0285
:100BB00086E0DF91CF910C94470580620E94470543
:100BC0008BE496E40197F1F780918D0280620E9498
:100BD000470583E592E00197F1F780918D028062ED
:100BE0000E944705D0CF90919102891710F08FEFA6
:100BF000890FE82FF0E0E258FD4F848980680C945B
:100C0000470541E00E94F40481E090E00895FB0173
:100C100001900020E9F73197AF01461B570BDC012B
:100C2000ED91FC910280F381E02D09948F929F92C7
:100C3000AF92BF920F931F93CF93DF93CDB7DEB7E1
:100C4000A1970FB6F894DEBF0FBECDBF19A24230F8
:100C500008F44AE08E010F5D1F4F842E912CB12CB9
:100C6000A12CA50194010E947D0EE62FB901CA01B5
:100C7000EA3004F5E05DD801EE938D01232B242B9F
:100C8000252B79F790E080E0109729F0BD018EECDC
:100C900091E00E940706A1960FB6F894DEBF0FBE42
:100CA000CDBFDF91CF911F910F91BF90AF909F90DB
:100CB0008F900895E95CDFCFCF92DF92EF92FF92A1
:100CC000CF93DF936B017C016DE28EEC91E00E948B
:100CD0004004EC0166277727CB016C197D098E094A
:100CE0009F094AE00E9416068C0F9D1FDF91CF914D
:100CF000FF90EF90DF90CF900895BC01990F880B83
:100D0000990B97FD0C945C064AE00C9416060C9423
:100D100007061F920F920FB60F9211242F933F9345
:100D20008F939F93AF93BF938091C6019091C7011A
:100D3000A091C801B091C9013091C50123E0230FF2
:100D40002D3758F50196A11DB11D2093C501809343
:100D5000C6019093C701A093C801B093C9018091C7
:100D6000CA019091CB01A091CC01B091CD01019627
:100D7000A11DB11D8093CA019093CB01A093CC011A
:100D8000B093CD01BF91AF919F918F913F912F91E2
:100D90000F900FBE0F901F90189526E8230F029614
:100DA000A11DB11DD2CF1F920F920FB60F92112429
:100DB0002F933F934F935F936F937F938F939F9363
:100DC000AF93BF93EF93FF938091B3019091B401E0
:100DD000A091B501B091B601892B8A2B8B2BD1F153
:100DE0009091AE01E091AF01F091B001808189272F
:100DF00080838091B3019091B401A091B501B0912D
:100E0000B601181619061A061B069CF48091B30148
:100E10009091B401A091B501B091B6010197A109DB
:100E2000B1098093B3019093B401A093B501B0933D
:100E3000B601FF91EF91BF91AF919F918F917F91FB
:100E40006F915F914F913F912F910F900FBE0F9037
:100E50001F901895809100010E947403EACF1F92A1
:100E60000F920FB60F9211242F933F934F935F93DE
:100E70006F937F938F939F93AF93BF93EF93FF9362
:100E80008EEC91E00E941E04FF91EF91BF91AF9113
:100E90009F918F917F916F915F914F913F912F9192
:100EA0000F900FBE0F901F9018951F920F920FB6C4
:100EB0000F9211242F938F939F93EF93FF93E091C1
:100EC000DE01F091DF018081E091E401F091E50124
:100ED00082FD1BC090818091E7018F5F8F7320910D
:100EE000E801821741F0E091E701F0E0E253FE4FA4
:100EF000958F8093E701FF91EF919F918F912F91B3
:100F00000F900FBE0F901F9018958081F4CFCF9354
:100F10001092D1011092D00188EE93E0A0E0B0E0F1
:100F20008093D2019093D301A093D401B093D501C3
:100F300088E191E09093CF018093CE0185EC90E021
:100F40009093DB018093DA0184EC90E09093DD01D3
:100F50008093DC0180EC90E09093DF018093DE01D0
:100F600081EC90E09093E1018093E00182EC90E0CD
:100F70009093E3018093E20186EC90E09093E50189
:100F80008093E4011092E7011092E8011092E901C8
:100F90001092EA011092980210929C0210929B0209
:100FA00010929D0286E391E09093970280939602BF
:100FB000E2EBF2E01082148213821582369682E010
:100FC000EE3EF807B9F784E091E09093F902809340
:100FD000F80281E091E09093FB028093FA0284E0B2
:100FE0008093FC0283E08093FD0288E091E090937F
:100FF000F7028093F6028AE090E09093FF028093DC
:10100000FE0284EF91E0909301038093000310921D
:101010000403109203031092F2021092F302109252
:10102000F4021092F50210920203109281021092C3
:1010300080028AE291E090937F0280937E02CBE06F
:10104000C09382028FEF80938302109284028FE01C
:101050008093850280E1809386028AE080938702F4
:1010600089E0809388021092890210928A0210927D
:101070008B0210928C0210928D0281E00E944D052D
:1010800083E180937002C0937102E2ECF0E0E4919E
:10109000E0937202EEEAF0E0E491E093730280E8FC
:1010A0009EE3A0E0B0E08093780290937902A09351
:1010B0007A02B0937B02CF910895789484B58260D0
:1010C00084BD84B5816084BD85B5826085BD85B5EC
:1010D000816085BD80916E00816080936E0010926A
:1010E00081008091810082608093810080918100E5
:1010F0008160809381008091800081608093800076
:101100008091B10084608093B1008091B0008160D3
:101110008093B00080917A00846080937A008091FF
:101120007A00826080937A0080917A008160809357
:101130007A0080917A00806880937A001092C100D2
:10114000E091DE01F091DF0182E08083E091DA013D
:10115000F091DB011082E091DC01F091DD0180E192
:1011600080831092E601E091E201F091E30186E0D4
:101170008083E091E001F091E101808180618083D2
:10118000E091E001F091E101808188608083E0914D
:10119000E001F091E101808180688083E091E001CD
:1011A000F091E10180818F7D808362E08091700207
:1011B0000E9468010E94FB01605D774081099109EE
:1011C0006093740270937502809376029093770215
:1011D00087E380937D0282E00E944D056CE371E01D
:1011E0008EE792E00E94870661E08CE00E94680131
:1011F00060E082E10E946801212C312C21012394BE
:1012000088248A94982C54010E946302882341F018
:10121000809171028C3009F462C038F48B30F1F0A7
:1012200060E070E080EC9FE741C085518230C0F7FC
:10123000C0916D026C2F70E0762F662766277F774E
:1012400080916E02682B90E080E00E94820D2DEC70
:101250003CEC4CEC5DE30E94100E5DC060916D02B1
:1012600070E090E080E00E94820D6B017C01C091F3
:101270006E02C7FF0AC0AC019B0160E070E080E82D
:101280009FEB0E94DF0C6B017C01CF706C2F70E034
:1012900090E080E00E94840D2DEC3CEC4CEC5DE392
:1012A0000E94100EA70196010E94E00C0E944C0DB6
:1012B0007093C4016093C3010E946302882351F0BC
:1012C000809171028B3030F08D3048F18551823041
:1012D00008F496C060E070E080EC9FE73CC0C091ED
:1012E0006D026C2F70E090E080E00E94820D6B0137
:1012F0007C0160916E026F7070E090E080E00E946F
:10130000840D2DEC3CEC4CEC5DE30E94100EA7012B
:1013100096010E94E00CC7FFC9CF9058C7CF6091DB
:101320006C0270E090E080E00E94840D2DEC3CECBB
:101330004CEC5DE30E94100E6B017C0160916B022E
:1013400070E090E080E00E94840D9B01AC01C70139
:10135000B6010E94E00C0E944C0D7093C201609394
:10136000C10180E480937C0080917A008064809346
:101370007A0080917A0086FDFCCF80917800909170
:1013800079009093C0018093BF0182E10E94110116
:10139000019731F46DE471E08EEC91E00E948706D4
:1013A00081E0809302030E94FB010091F202109100
:1013B000F3022091F4023091F502AB01BC01401B15
:1013C000510B620B730B8091FE029091FF02B0E013
:1013D000A0E084179507A607B70708F015C1C0E07D
:1013E0008091FC02C817F0F4E091F802F091F90244
:1013F000EC0FF11D62E080810E946801CF5FF0CFA9
:1014000060916B0270916C0276276727762790E0D7
:1014100080E00E94820D2DEC3CEC4CEC5DE30E94E0
:10142000100E99CF712C8091FD02781608F05FC0E4
:10143000072D10E0E091FA02F091FB02E00FF11F9E
:1014400061E080810E946801E091FA02F091FB0264
:10145000E00FF11F60E080810E943A01D201C101DA
:10146000072C04C0880F991FAA1FBB1F0A94D2F72C
:101470006C017C01E094F094612C8091FC02681670
:10148000F8F4C62DD0E0E091F802F091F902EC0FEB
:10149000FD1F80810E9411012496CC0FDD1FCA56CA
:1014A000DD4F892B41F4888199818C299D2999836D
:1014B00088836394E2CF888199818E219F21F7CF21
:1014C000E091FA02F091FB02E00FF11F61E08081F0
:1014D0000E943A018091FA029091FB02080F191FB5
:1014E00060E0F80180810E94680173949CCF06E956
:1014F00012E0E8018F8D98A1892B31F41C8E8FEFBB
:101500009FEF9E8F8D8F19A2269692E0C23DD9073C
:1015100089F7F12C8091FC02F81608F053C0E12CF9
:10152000CF2CD12CCC0CDD1CF601E256FD4F6F0107
:101530002091FD02E21608F043C0F601608171813E
:101540000E2C02C0769567950A94E2F7F29E900100
:1015500011242E0D311DE6E9F2E080E0458D568D17
:101560002417350709F429C28F5F36968A30B1F700
:1015700060FF24C0E6E9F2E090E080E0448D411194
:1015800018C0E091F602F091F702E20FF31F4081DC
:1015900056E0589FF001599FF00D1124EA56FD4F77
:1015A000448F368F258F10A2178E61E00E940702AC
:1015B00005C0019636968A30910501F7E394B8CFBD
:1015C000F394A8CFF12CF80181A18111F82E0A5FC4
:1015D0001F4FC017D107B9F70E94FB016093F202B9
:1015E0007093F3028093F4029093F502FF2061F070
:1015F0008091B702882341F08091B5029091B602A4
:10160000C091B202019719F010920203C0E068EE97
:1016100073E080E090E00E94C9014091BF015091C9
:10162000C00120E137E2DA010E94C40E6B017C01A7
:10163000A0E0B4E0A41BB50B26E930E00E94C40E84
:101640009B01AC01C701B6010E949F0EB901330F87
:10165000880B990B97FF64C00E945C0668E571E0F7
:101660008EEC91E00E94070664E670E080E090E076
:101670000E94C9016BE571E08EEC91E00E94870643
:101680008091C3019091C4010E947D0669E671E0DA
:101690008EEC91E00E9487066CE671E08EEC91E0A2
:1016A0000E9487068091C1019091C2010E947D062F
:1016B00067E771E08EEC91E00E94070668E571E053
:1016C0008EEC91E00E94070664EF71E080E090E00C
:1016D0000E94C901CC2309F430C0EDEDEC0FE731D5
:1016E00008F02BC00E2E000CFF0BE758F44F0C94A3
:1016F000BE0ECB0C9D0B9D0B9D0B9D0B9D0B9D0B57
:10170000DA0B9D0B9D0B9D0B9D0B9D0B9D0B940B65
:10171000AA0BB00BB60BBC0BC20BC80BCE0BD40B79
:101720004AE00E9416069ACF81E00E94F30569E71D
:1017300071E08EE792E00E94870680E090E0892BBE
:1017400009F462CD0E940A04882309F45DCD0E9449
:1017500000005ACD81E00E94F3056DE771E0E9CF0A
:1017600081E00E94F30561E871E0E3CF81E00E942F
:10177000F30565E871E0DDCF80E00E94F30569E8DC
:1017800071E0D7CF81E00E94F3056DE871E0D1CF21
:1017900081E00E94F30561E971E0CBCF81E00E9416
:1017A000F30565E971E0C5CF81E00E94F30569E9C1
:1017B00071E0BFCF80E00E94F3056DE971E08EE734
:1017C00092E00E94870661E08CE00E94680161E07F
:1017D0008CE00E943A01809100018D3031F5E8E6FD
:1017E000F0E0C491C7FDC5C061E08DE00E946801D2
:1017F000CC2309F48FC0C23009F0A0C08091B100A1
:10180000887F86608093B1008DE88093B3008092DA
:10181000B3019092B401A092B501B092B60180914B
:101820007000826080937000A4C08F3F09F0A1C057
:101830008DE080930001E8E6F0E0C491CF3F09F429
:1018400098C0C13029F150F0C23009F440C0C7FD42
:1018500090C061E08DE00E946801CDCF14BC15BC42
:1018600084B5826084BD85B5816085BDE8EAF0E01D
:101870008491E82FF0E0EE0FFF1FED58FF4F8591A8
:101880009491ECEBF0E0E491E093B201C0E0ACCFD6
:101890001092800010928100809181008860809376
:1018A000810080918100816080938100E8EAF0E00E
:1018B0008491E82FF0E0EE0FFF1FED58FF4F859168
:1018C0009491ECEBF0E0E491E093B1018DCF1092B4
:1018D000B0001092B1008091B00082608093B0009F
:1018E0008091B10081608093B100E8EAF0E08491DA
:1018F000E82FF0E0EE0FFF1FED58FF4F8591949118
:101900009093B0018093AF01ECEBF0E0E491E093B1
:10191000AE016ACF85B5887F846085BD8DE887BDBF
:101920008092BB019092BC01A092BD01B092BE0119
:1019300080916E00826080936E001BC0C13019F5EB
:1019400080918100887F8160809381008AE09EE899
:1019500090938900809388008092B7019092B8019B
:10196000A092B901B092BA0180916F008260809319
:101970006F0064EF71E080E090E00E94C9018DE0AB
:101980000E947403DACEC23021F0C111F2CF8AE096
:10199000C6CF8AE03ACF81E00E94F30565EA71E0A4
:1019A0008EE792E00E94870661E08CE00E94680169
:1019B00060E08CE00E943A01C0CE6170F7CD5058D3
:1019C000BB27AA270E94F70C0C94D60D0E94C80DC5
:1019D00038F00E94CF0D20F039F49F3F19F426F41F
:1019E0000C94C50D0EF4E095E7FB0C94BF0DE92FA8
:1019F0000E94E70D58F3BA1762077307840795072B
:101A000020F079F4A6F50C94090E0EF4E0950B2E57
:101A1000BA2FA02D0B01B90190010C01CA01A00140
:101A20001124FF27591B99F0593F50F4503E68F19B
:101A30001A16F040A22F232F342F4427585FF3CFDC
:101A4000469537952795A795F0405395C9F77EF4AD
:101A50001F16BA0B620B730B840BBAF09150A1F0F6
:101A6000FF0FBB1F661F771F881FC2F70EC0BA0F7C
:101A7000621F731F841F48F4879577956795B79504
:101A8000F7959E3F08F0B0CF9395880F08F09927FF
:101A9000EE0F9795879508950E94530D6894B111A4
:101AA0000C940A0E08950E94EF0D88F09F5798F04D
:101AB000B92F9927B751B0F0E1F0660F771F881F53
:101AC000991F1AF0BA95C9F714C0B13091F00E946D
:101AD000090EB1E008950C94090E672F782F88271E
:101AE000B85F39F0B93FCCF3869577956795B39594
:101AF000D9F73EF490958095709561957F4F8F4F03
:101B00009F4F0895E89409C097FB3EF49095809507
:101B1000709561957F4F8F4F9F4F9923A9F0F92FB3
:101B200096E9BB279395F695879577956795B79531
:101B3000F111F8CFFAF4BB0F11F460FF1BC06F5F17
:101B40007F4F8F4F9F4F16C0882311F096E911C029
:101B5000772321F09EE8872F762F05C0662371F04A
:101B600096E8862F70E060E02AF09A95660F771F5E
:101B7000881FDAF7880F9695879597F9089597F952
:101B80009F6780E870E060E008959FEF80EC089523
:101B900000240A941616170618060906089500244C
:101BA0000A9412161306140605060895092E0394C6
:101BB000000C11F4882352F0BB0F40F4BF2B11F43A
:101BC00060FF04C06F5F7F4F8F4F9F4F089557FD99
:101BD0009058440F551F59F05F3F71F04795880F9B
:101BE00097FB991F61F09F3F79F087950895121632
:101BF00013061406551FF2CF4695F1DF08C01616DE
:101C000017061806991FF1CF86957105610508948E
:101C10000895E894BB2766277727CB0197F90895A5
:101C20000E94230E0C94D60D0E94C80D38F00E941D
:101C3000CF0D20F0952311F00C94BF0D0C94C50D21
:101C400011240C940A0E0E94E70D70F3959FC1F3C6
:101C5000950F50E0551F629FF001729FBB27F00D5A
:101C6000B11D639FAA27F00DB11DAA1F649F6627AF
:101C7000B00DA11D661F829F2227B00DA11D621FFE
:101C8000739FB00DA11D621F839FA00D611D221FB8
:101C9000749F3327A00D611D231F849F600D211D9C
:101CA000822F762F6A2F11249F5750409AF0F1F01F
:101CB00088234AF0EE0FFF1FBB1F661F771F881F88
:101CC00091505040A9F79E3F510580F00C94BF0DF4
:101CD0000C940A0E5F3FE4F3983ED4F38695779513
:101CE0006795B795F795E7959F5FC1F7FE2B880F2E
:101CF000911D9695879597F90895A1E21A2EAA1B32
:101D0000BB1BFD010DC0AA1FBB1FEE1FFF1FA217AB
:101D1000B307E407F50720F0A21BB30BE40BF50BA8
:101D2000661F771F881F991F1A9469F76095709531
:101D3000809590959B01AC01BD01CF010895052EC2
:101D400097FB1EF400940E94B60E57FD07D00E9428
:101D50007D0E07FC03D04EF40C94B60E50954095C2
:101D6000309521953F4F4F4F5F4F08959095809547
:101D7000709561957F4F8F4F9F4F0895EE0FFF1F16
:101D80000590F491E02D09940E94CB0EB7FF0895C1
:101D9000821B930B0895A29FB001B39FC001A39F24
:101DA000700D811D1124911DB29F700D811D112494
:101DB000911D0895F894FFCFFF040302080706055C
:101DC0003132333435363738392A302300000000B9
:101DD0004004A003CD038D04FE03DC03F0030000E8
:101DE00000000106A003AE04AD040000000069037A
:101DF0006D037103202020202020205450462020F5
:101E000020202020006D6F76696D69656E746F000B
:101E10000D0A0054656D70657261747572613A20C7
:101E2000006F43002048756D656461643A200025A9
:101E3000003E2031003E2032003E2033003E203460
:101E4000003E2035003E2036003E2037003E203840
:101E5000003E2039007465636C613A2A0074656342
:061E60006C613A23000052
:107E0000112484B714BE81FFF0D085E080938100F7
:107E100082E08093C00088E18093C10086E0809377
:107E2000C20080E18093C4008EE0C9D0259A86E02C
:107E300020E33CEF91E0309385002093840096BBD3
:107E4000B09BFECF1D9AA8958150A9F7CC24DD24C4
:107E500088248394B5E0AB2EA1E19A2EF3E0BF2EE7
:107E6000A2D0813461F49FD0082FAFD0023811F036
:107E7000013811F484E001C083E08DD089C08234E0
:107E800011F484E103C0853419F485E0A6D080C0E4
:107E9000853579F488D0E82EFF2485D0082F10E0AE
:107EA000102F00270E291F29000F111F8ED06801E7
:107EB0006FC0863521F484E090D080E0DECF843638
:107EC00009F040C070D06FD0082F6DD080E0C81688
:107ED00080E7D80618F4F601B7BEE895C0E0D1E017
:107EE00062D089930C17E1F7F0E0CF16F0E7DF06D8
:107EF00018F0F601B7BEE89568D007B600FCFDCFD4
:107F0000A601A0E0B1E02C9130E011968C91119780
:107F100090E0982F8827822B932B1296FA010C0160
:107F200087BEE89511244E5F5F4FF1E0A038BF0790
:107F300051F7F601A7BEE89507B600FCFDCF97BE46
:107F4000E89526C08437B1F42ED02DD0F82E2BD052
:107F50003CD0F601EF2C8F010F5F1F4F84911BD097
:107F6000EA94F801C1F70894C11CD11CFA94CF0C13
:107F7000D11C0EC0853739F428D08EE10CD085E9AC
:107F80000AD08FE07ACF813511F488E018D01DD067
:107F900080E101D065CF982F8091C00085FFFCCF94
:107FA0009093C60008958091C00087FFFCCF809118
:107FB000C00084FD01C0A8958091C6000895E0E648
:107FC000F0E098E1908380830895EDDF803219F02E
:107FD00088E0F5DFFFCF84E1DECF1F93182FE3DFCA
:107FE0001150E9F7F2DF1F91089580E0E8DFEE27F6
:047FF000FF270994CA
:027FFE00040479
:00000001FF
