:100000000C9463000C948B000C948B000C948B006C
:100010000C948B000C948B000C948B000C94550862
:100020000C948B000C948B000C948B000C948B0024
:100030000C948B000C948B000C948B000C948B0014
:100040000C940B080C948B000C94D7080C94B108FA
:100050000C948B000C948B000C948B000C948B00F4
:100060000C948B000C948B000200000000240027ED
:10007000002A0000000000250028002B00000000DE
:100080000800020100000304070000000000000057
:1000900000000000002300260029000404040404DA
:1000A0000404040202020202020303030303030125
:1000B00002040810204080010204081020010204FC
:1000C00008102000090911241FBECFEFD8E0DEBFC1
:1000D000CDBF24E0ACEBB2E001C01D92AA31B20763
:1000E000E1F712E0A0E0B1E0E2E4F6E202C0059040
:1000F0000D92AC3BB107D9F710E0C3E6D0E004C0E5
:100100002197FE010E942711C236D107C9F70E942C
:10011000DD090C941F130C940000CF92DF92EF9234
:10012000FF92CF93DF93B0910A04A0E08111AB2F2F
:1001300080910B0490E0880F991FAC014F565F4FE0
:10014000C0901004D0901104E0901204F0901304B9
:1001500030E020E0FA01C591D491E881B90190E046
:1001600080E0EB23EA130AC02F5F3F4F6C157D053B
:100170008E059F0578F36FEF7FEFCB01DF91CF9175
:10018000FF90EF90DF90CF90089596E0899FD00187
:100190001124A458BC4F90967C936E935F9791E086
:1001A00091969C939197E091E903F091EA039091E5
:1001B000E803992339F0309751F0811108C08091FC
:1001C00098030994309719F05C968C91FACF0895B2
:1001D000833081F028F4813099F08230A9F00895BD
:1001E0008730A9F08830C9F08430B1F48091800064
:1001F0008F7D03C0809180008F7780938000089569
:1002000084B58F7784BD089584B58F7DFBCF8091B1
:10021000B0008F778093B00008958091B0008F7DFB
:10022000F9CFCF93DF93282F30E0F901E358FF4F48
:100230008491F901E155FF4FD491F901E556FF4F43
:10024000C491CC23A1F081110E94E800EC2FF0E0D2
:10025000EE0FFF1FEF56FF4FA591B491EC91ED23E8
:1002600081E090E009F480E0DF91CF91089580E093
:1002700090E0FACF862F0C9411011F93CF93DF9358
:10028000282F30E0F901E358FF4F8491F901E1553F
:10029000FF4FD491F901E556FF4FC491CC23A9F04B
:1002A000162F81110E94E800EC2FF0E0EE0FFF1FE7
:1002B000ED58FF4FA591B4918FB7F894EC911111BF
:1002C00008C0D095DE23DC938FBFDF91CF911F91C3
:1002D0000895DE2BF8CF862F642F0C943D01CF9329
:1002E000DF9390E0FC01E155FF4F249185569F4F2D
:1002F000FC0184918823C9F090E0880F991FFC01CC
:10030000E759FF4FA591B491FC01ED58FF4FC591FE
:10031000D49161110DC09FB7F8948C9120958223E0
:100320008C938881282328839FBFDF91CF910895E4
:10033000623051F49FB7F8943C91822F80958323CB
:100340008C93E8812E2BEFCF8FB7F894EC912E2B66
:100350002C938FBFEACF862F642F0C946F013FB789
:10036000F8948091DB029091DC02A091DD02B091C3
:10037000DE0226B5A89B05C02F3F19F00196A11DEE
:10038000B11D3FBFBA2FA92F982F8827BC01CD01DF
:10039000620F711D811D911D42E0660F771F881F3E
:1003A000991F4A95D1F708958F929F92AF92BF926D
:1003B000CF92DF92EF92FF924B015C010E94AF015E
:1003C0006B017C010E94AF016C197D098E099F09A8
:1003D000683E734081059105A8F321E0821A9108D7
:1003E000A108B10888EEC80E83E0D81EE11CF11CFC
:1003F00081149104A104B10429F7FF90EF90DF90DC
:10040000CF90BF90AF909F908F9008952FB7F894A2
:100410006091D7027091D8028091D9029091DA024E
:100420002FBF0895CF92DF92EF92FF920F931F9309
:10043000CF93DF93CDB7DEB7C054D1400FB6F89459
:10044000DEBF0FBECDBF0E94060200910C041091CA
:100450000D0420910E0430910F046B017C01C01A31
:10046000D10AE20AF30A97018601003D17402105EF
:10047000310590F480911404C05CDE4F0FB6F894FF
:10048000DEBF0FBECDBFDF91CF911F910F91FF90C7
:10049000EF90DF90CF90089560930C0470930D045B
:1004A00080930E0490930F04109207041092060498
:1004B00010920504109204041092030462E08091EB
:1004C00008040E946F0161E070E080E090E00E940B
:1004D000D40161E0809108040E946F0160E0809186
:1004E00008040E943D01809109048551823020F565
:1004F0008BE291E10197F1F762E0809108040E949C
:100500006F018091150490E08230910538F0880FDA
:10051000991F880F991F05970197F1F7F89480E0CC
:100520000E948D006F3F7F4F8F4F9F4F61F410925D
:100530001404789480E0A0CF64E170E080E090E063
:100540000E94D401D9CF81E00E948D006F3F7F4F80
:100550008F4F9F4F61F38E010F5F1F4F6E012FEB87
:10056000C21A2EEFD20A780180E00E948D00F701B6
:10057000608371838283938381E00E948D00F70101
:100580006483758386839783F8E0EF0EF11CEC1487
:10059000FD0451F7789430E020E0F801C080D1806C
:1005A000E280F3804481558166817781FFEFCF1629
:1005B000DF06EF06FF0631F04F3F8FEF5807680761
:1005C000780719F410921404B5CFF90183E0F5957A
:1005D000E7958A95E1F7ED5FFB4F8081880FC416A0
:1005E000D506E606F70610F180832F5F3F4F085FC0
:1005F0001F4F2832310589F64091070420910304EA
:1006000080910404280F3327331F80910504280F9D
:10061000311D80910604820F932F911D9927481751
:10062000190681F681E08093140426CF8160DCCF27
:100630000F931F93CF93DF93C82FD62F86E0C89FC9
:10064000F0011124E458FC4F11A2878D90A1813054
:100650009105F1F058F082309105F1F1039709F41A
:1006600040C0DF91CF911F910F9108956623C9F388
:1006700061E070E08C2F0E94C5000E94060260932A
:10068000D4037093D5038093D6039093D703E9CF17
:100690000E9406020091D4031091D5032091D60345
:1006A0003091D703AB01BC01401B510B620B730BA4
:1006B0008091E6039091E703B0E0A0E084179507EE
:1006C000A607B70748F462E070E08C2FDF91CF9166
:1006D0001F910F910C94C50063E070E0D111C1CF60
:1006E000F4CF70E060E0F1CF6F927F928F929F9293
:1006F000AF92BF92CF92DF92EF92FF920F931F9330
:10070000CF93DF9381E08093E8030E94060200917B
:10071000D8031091D9032091DA033091DB03AB01A8
:10072000BC01401B510B620B730B8091E403909151
:10073000E503B0E0A0E084179507A607B70708F027
:1007400014C1C0E08091E203C81760F4E091DE03B9
:10075000F091DF03EC0FF11D62E080810E946F01D8
:10076000CF5FF0CF712C812C912C54018394809118
:10077000E303781608F05FC0072D10E0E091E00376
:10078000F091E103E00FF11F61E080810E946F01B1
:10079000E091E003F091E103E00FF11F60E0808160
:1007A0000E943D01D501C401072C04C0880F991F88
:1007B000AA1FBB1F0A94D2F76C017C01E094F0944D
:1007C000612C8091E2036816F8F4C62DD0E0E09128
:1007D000DE03F091DF03EC0FFD1F80810E94110109
:1007E0002496CC0FDD1FC458DC4F892B41F488813F
:1007F00099818C299D29998388836394E2CF88818C
:1008000099818E219F21F7CFE091E003F091E103E0
:10081000E00FF11F61E080810E943D018091E003C3
:100820009091E103080F191F60E0F80180810E9498
:100830006F0173949CCFCCE7D3E0FE018FEF9FEF65
:10084000278D30A1232B21F4148E968F858F11A232
:10085000369623E0E83BF20799F7F12C96E0D92E83
:100860008091E203F81608F050C0E12C0F2D10E043
:10087000000F111F0C571C4F2091E303E21608F0E4
:1008800042C0F801608171810E2C02C07695679597
:100890000A94E2F7F29E900111242E0D311DECE72F
:1008A000F3E080E0458D568D2417350709F461C0CB
:1008B0008F5F36968A30B1F760FF23C0ECE7F3E034
:1008C00090E080E0448D411117C0E091DC03F0918D
:1008D000DD03E20FF31F4081D89EF001D99EF00D99
:1008E0001124E458FC4F448F368F258F10A2178EA9
:1008F00061E00E94180305C0019636968A30910582
:1009000009F7E394B9CFF394ABCF10E089A181113B
:10091000182F2696F3E0C83BDF07C1F70E940602B6
:100920006093D8037093D9038093DA039093DB0329
:100930001123D9F080919D038823B9F080919B0306
:1009400090919C03019789F480919803DF91CF9156
:100950001F910F91FF90EF90DF90CF90BF90AF90DD
:100960009F908F907F906F9008951092E80380E0A1
:10097000EDCF6170BECF9091000189130BC0E8E606
:10098000F0E0E4919FEF90930001E13049F028F00E
:10099000E23061F060E00C943D0110926E00FACFFD
:1009A00090916F009D7F90936F00F4CF90917000B5
:1009B0009D7F9093700091E09093B0009091B10072
:1009C000987F94609093B1001092B300E3CFAF9200
:1009D000BF92CF92DF92EF92FF920F931F93CF932C
:1009E000DF936C017B018B01040F151FEB015E018E
:1009F000AE18BF08C017D10759F06991D601ED9123
:100A0000FC910190F081E02DC6010995892B79F7C1
:100A1000C501DF91CF911F910F91FF90EF90DF9073
:100A2000CF90BF90AF900895FC01538D448D252F3A
:100A300030E0842F90E0821B930B541710F0CF9678
:100A4000089501970895FC01918D828D981761F0AA
:100A5000A28DAE0FBF2FB11D5D968C91928D9F5FC1
:100A60009F73928F90E008958FEF9FEF0895FC01A0
:100A7000918D828D981731F0828DE80FF11D858D53
:100A800090E008958FEF9FEF0895FC01918D228DE6
:100A9000892F90E0805C9F4F821B91098F7399276B
:100AA00008958FED92E00E94450521E0892B09F41D
:100AB00020E0822F089580E090E0892B29F00E94A9
:100AC000510581110C9400000895FC01A48DA80F1C
:100AD000B92FB11DA35ABF4F2C91848D90E0019680
:100AE0008F739927848FA689B7892C93A089B189A0
:100AF0008C91837080648C93938D848D981306C041
:100B00000288F389E02D80818F7D80830895EF92A4
:100B1000FF920F931F93CF93DF93EC0181E0888FB7
:100B20009B8D8C8D98131AC0E889F989808185FF87
:100B300015C09FB7F894EE89FF896083E889F98929
:100B400080818370806480839FBF81E090E0DF912B
:100B5000CF911F910F91FF90EF900895F62E0B8D7E
:100B600010E00F5F1F4F0F731127E02E8C8D8E1139
:100B70000CC00FB607FCFACFE889F989808185FFA0
:100B8000F5CFCE010E946505F1CFEB8DEC0FFD2F67
:100B9000F11DE35AFF4FF0829FB7F8940B8FEA895B
:100BA000FB8980818062CFCFCF93DF93EC01888D6A
:100BB0008823B9F0AA89BB89E889F9898C9185FDD8
:100BC00003C0808186FD0DC00FB607FCF7CF8C9166
:100BD00085FFF2CF808185FFEDCFCE010E946505B4
:100BE000E9CFDF91CF910895089590E080E00895D6
:100BF000CF93DF93EC0160E08E810E943D0161E0C4
:100C00008E810E943D0160E08E810E943D018BE853
:100C100091E00197F1F7DF91CF910895CF92DF92A4
:100C2000EF92FF920F931F93CF93DF936C017C01A0
:100C300087E0E80EF11CD0E0C0E0062F10E0B8011C
:100C40000C2E02C0759567950A94E2F76170F70162
:100C500081917F010E943D012196C430D10579F731
:100C6000C601DF91CF911F910F91FF90EF90DF9020
:100C7000CF900C94F805CF92DF92EF92FF920F93F2
:100C80001F93CF93DF93EC01F62E642F8C810E948B
:100C90003D018D818F3F19F060E00E943D010F2DD5
:100CA00010E08F8584FF25C06E0187E0C80ED11C3F
:100CB000F12CE12CB8010E2C02C0759567950A94B1
:100CC000E2F76170F60181916F010E943D01FFEF33
:100CD000EF1AFF0A88E0E816F10461F7CE01DF9110
:100CE000CF911F910F91FF90EF90DF90CF900C94D8
:100CF000F805B80184E0759567958A95E1F7CE010E
:100D00000E940E066F2DCE01DF91CF911F910F91A2
:100D1000FF90EF90DF90CF900C940E0640E0682F8C
:100D20008BEE93E00C943B06CF93DF93823029F453
:100D30009091FA0398609093FA038093FE031092C7
:100D4000FF0380E48093000480E18093010480E548
:100D50008093020461E08091EF030E946F01809113
:100D6000F0038F3F19F061E00E946F0161E0809114
:100D7000F1030E946F01CBEED3E09E012B5E334066
:100D80008091FA0384FD0BC084E090E0219628173F
:100D9000390744F461E08E810E946F01EECF88E054
:100DA00090E0F4CF8BE39DE00197F1F760E0809154
:100DB000EF030E943D0160E08091F1030E943D013C
:100DC0008091F0038F3F19F060E00E943D01809117
:100DD000FA0384FD39C063E08BEE93E00E940E06B7
:100DE000CBE4D6E4CE010197F1F763E08BEE93E01C
:100DF0000E940E062197F1F763E08BEE93E00E94CC
:100E00000E0683E592E00197F1F762E08BEE93E046
:100E10000E940E068091FA0380620E948E0684E092
:100E20008093FB038CE00E948E0681E00E948E0678
:100E30008BE39FE10197F1F782E08093FC0386E06A
:100E4000DF91CF910C948E0680620E948E068BE417
:100E500096E40197F1F78091FA0380620E948E0672
:100E600083E592E00197F1F78091FA0380620E9496
:100E70008E06D0CF9091FE03891710F08FEF890F67
:100E8000E82FF0E0E551FC4F848980680C948E06D1
:100E900041E00E943B0681E090E00895FB01019053
:100EA0000020E9F73197AF01461B570BDC01ED91AC
:100EB000FC910280F381E02D09948F929F92AF9272
:100EC000BF920F931F93CF93DF93CDB7DEB7A19758
:100ED0000FB6F894DEBF0FBECDBF19A2423008F4A2
:100EE0004AE08E010F5D1F4F842E912CB12CA12C56
:100EF000A50194010E94D210E62FB901CA01EA307F
:100F000004F5E05DD801EE938D01232B242B252BD6
:100F100079F790E080E0109729F0BD018FED92E025
:100F20000E944E07A1960FB6F894DEBF0FBECDBF4C
:100F3000DF91CF911F910F91BF90AF909F908F90B5
:100F40000895E95CDFCFCF92DF92EF92FF92CF93CB
:100F5000DF936B017C016DE28FED92E00E948705CB
:100F6000EC0166277727CB016C197D098E099F0953
:100F70004AE00E945D078C0F9D1FDF91CF91FF908B
:100F8000EF90DF90CF900895BC01990F880B990BDB
:100F900097FD0C94A3074AE00C945D07CF93DF9371
:100FA000BC018FED92E00E944E07EC0164E471E019
:100FB0008FED92E00E944E078C0F9D1FDF91CF9125
:100FC00008950C944E070F931F93CF93DF93EC017A
:100FD00088819981009759F02A813B81261737072C
:100FE00030F081E0DF91CF911F910F9108958B0137
:100FF0006F5F7F4F0E945212009759F09983888348
:101000001B830A832C813D81232B59F7FC0110821D
:10101000E8CF80E0E7CF1F920F920FB60F92112416
:101020002F933F938F939F93AF93BF938091D7025A
:101030009091D802A091D902B091DA023091D602F3
:1010400023E0230F2D3758F50196A11DB11D2093E4
:10105000D6028093D7029093D802A093D902B0937E
:10106000DA028091DB029091DC02A091DD02B09166
:10107000DE020196A11DB11D8093DB029093DC027C
:10108000A093DD02B093DE02BF91AF919F918F914B
:101090003F912F910F900FBE0F901F90189526E84B
:1010A000230F0296A11DB11DD2CF1F920F920FB632
:1010B0000F9211242F933F934F935F936F937F93DE
:1010C0008F939F93AF93BF93EF93FF938091C10250
:1010D0009091C202A091C302B091C402892B8A2BC5
:1010E0008B2BD1F19091BC02E091BD02F091BE0238
:1010F0008081892780838091C1029091C202A09152
:10110000C302B091C402181619061A061B069CF4F5
:101110008091C1029091C202A091C302B091C40219
:101120000197A109B1098093C1029093C202A093D3
:10113000C302B093C402FF91EF91BF91AF919F9111
:101140008F917F916F915F914F913F912F910F9070
:101150000FBE0F901F901895809100010E94BB0454
:10116000EACF1F920F920FB60F9211242F933F9345
:101170004F935F936F937F938F939F93AF93BF939F
:10118000EF93FF938FED92E00E946505FF91EF9141
:10119000BF91AF919F918F917F916F915F914F918F
:1011A0003F912F910F900FBE0F901F9018951F9297
:1011B0000F920FB60F9211242F938F939F93EF935B
:1011C000FF93E091EF02F091F0028081E091F5024F
:1011D000F091F60282FD1BC090818091F8028F5F32
:1011E0008F732091F902821741F0E091F802F0E04C
:1011F000E152FD4F958F8093F802FF91EF919F91FF
:101200008F912F910F900FBE0F901F901895808196
:10121000F4CF1092E2021092E10288EE93E0A0E097
:10122000B0E08093E3029093E402A093E502B093D0
:10123000E60280E291E09093E0028093DF0285EC89
:1012400090E09093EC028093EB0284EC90E090931A
:10125000EE028093ED0280EC90E09093F002809398
:10126000EF0281EC90E09093F2028093F10282EC25
:1012700090E09093F4028093F30286EC90E09093D8
:10128000F6028093F5021092F8021092F902109281
:10129000FA021092FB0283E1809308048BE08093B2
:1012A0000904E2ECF0E0E491E0930A04EEEAF0E0F5
:1012B000E491E0930B0440E85EE360E070E040936B
:1012C000100450931104609312047093130410924D
:1012D000EE031092ED032CE331E03093EC03209306
:1012E000EB038093EF038FEF8093F0031092F103F1
:1012F0008FE08093F20380E18093F3038AE0809390
:10130000F40389E08093F5031092F6031092F7033B
:101310001092F8031092F9031092FA0381E00E94F0
:10132000940610927E031092820310928103109211
:10133000830382E391E090937D0380937C03E8E94B
:10134000F3E01082148213821582369683E0E43D26
:10135000F807B9F786E091E09093DF038093DE030E
:1013600083E091E09093E1038093E00384E0809335
:10137000E20383E08093E3038AE091E09093DD034E
:101380008093DC038AE090E09093E5038093E4038C
:1013900084EF91E09093E7038093E6031092EA03D1
:1013A0001092E9031092D8031092D9031092DA0335
:1013B0001092DB031092E8030895CF93DF93CDB72B
:1013C000DEB728970FB6F894DEBF0FBECDBF789476
:1013D00084B5826084BD84B5816084BD85B582603A
:1013E00085BD85B5816085BD80916E0081608093EB
:1013F0006E00109281008091810082608093810054
:101400008091810081608093810080918000816063
:10141000809380008091B10084608093B1008091BE
:10142000B00081608093B00080917A0084608093E6
:101430007A0080917A00826080937A0080917A00AD
:10144000816080937A0080917A00806880937A002E
:101450001092C100E091EF02F091F00282E08083EF
:10146000E091EB02F091EC021082E091ED02F0913C
:10147000EE0280E180831092F702E091F302F09196
:10148000F40286E08083E091F102F091F202808123
:1014900080618083E091F102F091F20280818860A6
:1014A0008083E091F102F091F20280818068808374
:1014B000E091F102F091F20280818F7D808387E4D8
:1014C00091E00E94CE0782E00E94940688E591E0B8
:1014D0000E94CE0763E671E08BEE93E00E94E10785
:1014E00062E0809108040E946F010E940602605D24
:1014F00077408109910960930C0470930D048093E7
:101500000E0490930F0487E38093150484E791E021
:101510000E94CE0761E08CE00E946F018FE791E0AE
:101520000E94CE0760E082E10E946F018AE891E0AC
:101530000E94CE0785E991E00E94CE0788248A9414
:10154000982C540180E480937C0080917A00806420
:1015500080937A0080917A0086FDFCCF809178009C
:10156000909179009093D5028093D40264E670E064
:1015700080E090E00E94D40182E10E941101019775
:1015800009F002C28091D302882309F45EC280EC84
:1015900091E00E94CE071092D2021092D10280ED0B
:1015A00097E090930201809301017CEB272E70E07D
:1015B000372E8091D1029091D20203970CF0DEC1B8
:1015C000C0900101D0900201809100018D3009F09E
:1015D000C0C0E8E6F0E0149117FDA2C061E08DE024
:1015E0000E946F01112319F0123009F07AC1F12C19
:1015F000E12C60E072E18AE790E0A70196010E9489
:10160000F41029013A01DA01C9010197A109B109D0
:101610008F3F9105A105B10509F00CF449C160E4C3
:1016200072E48FE090E0A70196010E94F41021502F
:10163000310941095109123009F0FBC082E02F3F06
:1016400031054105510509F00CF45BC060E970ED0E
:1016500083E090E0A70196010E94F4102150310927
:101660004109510983E02F3F31054105510509F03A
:101670000CF447C068E478EE81E090E0A7019601A1
:101680000E94F410215031094109510984E02F3F93
:10169000310541055105A9F1A4F164E274EF80E040
:1016A00090E0A70196010E94F410215031094109F0
:1016B000510985E02F3F31054105510511F108F130
:1016C00062E17AE780E090E0A70196010E94F410C1
:1016D000215031094109510986E02F3F310541056B
:1016E000510579F070F09AE0759467945794479497
:1016F0009A95D1F7A301920121503109410951096D
:1017000087E09091B100987F892B8093B1001130D0
:1017100009F412C1123009F421C1112309F4D0C017
:1017200068E572E080E090E00E94D4018DE00E94C4
:10173000BB046AE070E080E090E00E94D4018091F8
:10174000D1029091D20201969093D2028093D1025D
:1017500030CF8F3F29F78DE080930001E8E6F0E07D
:1017600014911F3FE9F2113021F150F0123009F4C9
:101770003EC017FDD5CF61E08DE00E946F0134CFF0
:1017800014BC15BC84B5826084BD85B5816085BDFF
:10179000E8EAF0E08491E82FF0E0EE0FFF1FED584B
:1017A000FF4F85919491F10184918093C00210E0E4
:1017B00015CF109280001092810080918100886086
:1017C0008093810080918100816080938100E8EAAC
:1017D000F0E08491E82FF0E0EE0FFF1FED58FF4F8F
:1017E00085919491F10184918093BF02F7CE10927C
:1017F000B0001092B1008091B00082608093B00080
:101800008091B10081608093B100E8EAF0E08491BA
:10181000E82FF0E0EE0FFF1FED58FF4F85919491F8
:101820009093BE028093BD02F10184918093BC022B
:10183000D5CE2F3F31054105510509F00CF44FC0BD
:1018400068E478EE81E090E0A70196010E94F41030
:10185000215031094109510984E011112BCF83E056
:101860002F3F31054105510539F134F162E17AE745
:1018700080E090E0A70196010E94F4102150310908
:101880004109510984E02F3F310541055105A1F07F
:1018900098F08AE075946794579447948A95D1F7A5
:1018A000A3019201215031094109510985E004C089
:1018B0009C0181E0111125CF95B5987F892B85BDBD
:1018C00027BD8092C9029092CA02A092CB02B09228
:1018D000CC0280916E00826080936E0021CF82E006
:1018E000E9CFF12CE12C60E072E18AE790E0A701FA
:1018F00096010E94F410215031094109510991E0EB
:1019000021153105F1E04F0751056CF068E478EEE0
:1019100081E090E0A70196010E94F4102150310966
:101920004109510993E0113009F0F1CE8091810015
:10193000887F892B809381003093890020938800D1
:101940008092C5029092C602A092C702B092C802CD
:1019500080916F00826080936F00E2CE2093B3008D
:101960008092C1029092C202A092C302B092C402BD
:1019700080917000826080937000D2CE8091D302FB
:1019800091E089278093D3020E947403182F1A8252
:1019900019821C821B821E821D8270E060E0CE01D3
:1019A00001960E94E30729813A81811153C02115D4
:1019B000310519F0C9010E94C9111A8219821E82CB
:1019C0001D821C821B8268EE73E080E090E00E9422
:1019D000D4011A3209F0AEC180E00E943A076DEEE0
:1019E00071E08BEE93E00E94E10781E00E943A07EC
:1019F0008BEF91E00E94CE070E947403182F682F8E
:101A00008FED92E00E9487051123B1F3133209F4A0
:101A100034C11F831886ED80FE808FEFE81AF80A24
:101A2000B701CE0101960E94E307882329F329819B
:101A30003A818D819E81BE01695F7F4F820F931F26
:101A40000E941813FE82ED82D7CF87ED91E00E94AD
:101A5000CE079ACF1E821D8266E471E0C9010E9402
:101A60001813B1CF4AE00E945D0742C18551823010
:101A700008F06EC110910504612F70E0762F662783
:101A800066277F7780910604682B90E080E00E94B3
:101A9000E90E2DEC3CEC4CEC5DE30E94260F5DC0A2
:101AA0006091050470E090E080E00E94E90E6B0117
:101AB0007C011091060417FF0AC0AC019B0160E095
:101AC00070E080E89FEB0E941B106B017C011F708F
:101AD000612F70E090E080E00E94EB0E2DEC3CEC7A
:101AE0004CEC5DE30E94260FA70196010E941C109A
:101AF0000E9488107093D0026093CF020E9412025D
:101B0000882351F0809109048B3030F08D3048F1FA
:101B10008551823008F48FC060E070E080EC9FE770
:101B20003CC010910504612F70E090E080E00E94BD
:101B3000E90E6B017C01609106046F7070E090E02B
:101B400080E00E94EB0E2DEC3CEC4CEC5DE30E943F
:101B5000260FA70196010E941C1017FFC9CF9058AD
:101B6000C7CF6091040470E090E080E00E94EB0E2B
:101B70002DEC3CEC4CEC5DE30E94260F6B017C01EC
:101B80006091030470E090E080E00E94EB0E9B0106
:101B9000AC01C701B6010E941C100E94881070930E
:101BA000CE026093CD026FE372E08FED92E00E946F
:101BB000E1078091CF029091D0020E94C4076CE4AB
:101BC00072E08FED92E00E94E1078091CD0290914A
:101BD000CE020E94C4078AE592E00E94CE0764E626
:101BE00070E080E090E00E94D40181E00E943A071A
:101BF0008091CF029091D0028233910571F56CE50E
:101C000072E08BEE93E00E94E10781E08093D302C3
:101C100089819A81009711F00E94C91180E090E0BB
:101C2000892B09F48FCC0E945105882309F48ACCB2
:101C30000E94000087CC6091030470910404762711
:101C40006727762790E080E00E94E90E2DEC3CECBF
:101C50004CEC5DE30E94260FA0CF60E772E08A3172
:101C6000910534F461E872E0429714F062E972E0A1
:101C70008BEE93E00E94E107CBCF86E491E00E94D7
:101C8000CE0763EA72E08FED92E00E94E1074D819A
:101C90005E8169817A818FED92E00E94E70464E4BD
:101CA00071E08FED92E00E944E0789819A81C12CEC
:101CB000D12C7601009719F00E94AD0E6B0161E105
:101CC00072E08FED92E00E94E107C601880F991F34
:101CD0008C0D9D1D059660E177E20E94BE107C018F
:101CE000BC01990F880B990BF7FEBCCE0E94A3078D
:101CF00064E471E08FED92E00E944E07EBE7EE1690
:101D0000EEE0FE0639F481E08093D30285E292E0B2
:101D10000E94CE0781E00E948E068BE39FE101972F
:101D2000F1F780E00E943A0763E671E08BEE93E002
:101D30000E94E1070E941202882351F08091090459
:101D40008C3009F4EECE08F091CE8B3009F4A8CE99
:101D500060E070E080EC9FE7CBCE1F93FC019927F9
:101D60008827BC01E89411911032E9F3193010F082
:101D70001E30C8F31B3251F01D3249F4689406C07E
:101D80000E94D40E610F711D811D911D1191105380
:101D90001A30B0F33EF490958095709561957F4F21
:101DA0008F4F9F4F1F910895592F482F372F262F60
:101DB000660F771F881F991F660F771F881F991F4F
:101DC000620F731F841F951F660F771F881F991F4F
:101DD0000895E89409C097FB3EF49095809570951E
:101DE00061957F4F8F4F9F4F9923A9F0F92F96E967
:101DF000BB279395F695879577956795B795F111DC
:101E0000F8CFFAF4BB0F11F460FF1BC06F5F7F4F78
:101E10008F4F9F4F16C0882311F096E911C077238A
:101E200021F09EE8872F762F05C0662371F096E893
:101E3000862F70E060E02AF09A95660F771F881F62
:101E4000DAF7880F9695879597F908950E94390FCC
:101E50000C94AA0F0E949C0F38F00E94A30F20F050
:101E6000952311F00C94930F0C94990F11240C945A
:101E7000DE0F0E94BB0F70F3959FC1F3950F50E0EA
:101E8000551F629FF001729FBB27F00DB11D639F2C
:101E9000AA27F00DB11DAA1F649F6627B00DA11DD2
:101EA000661F829F2227B00DA11D621F739FB00D78
:101EB000A11D621F839FA00D611D221F749F3327E8
:101EC000A00D611D231F849F600D211D822F762F81
:101ED0006A2F11249F5750409AF0F1F088234AF05E
:101EE000EE0FFF1FBB1F661F771F881F91505040CA
:101EF000A9F79E3F510580F00C94930F0C94DE0FD0
:101F00005F3FE4F3983ED4F3869577956795B79550
:101F1000F795E7959F5FC1F7FE2B880F911D96956A
:101F2000879597F9089597F99F6780E870E060E0DA
:101F300008959FEF80EC089500240A941616170662
:101F400018060906089500240A94121613061406AA
:101F500005060895092E0394000C11F4882352F00D
:101F6000BB0F40F4BF2B11F460FF04C06F5F7F4FC5
:101F70008F4F9F4F089557FD9058440F551F59F0AC
:101F80005F3F71F04795880F97FB991F61F09F3F66
:101F900079F087950895121613061406551FF2CF8F
:101FA0004695F1DF08C0161617061806991FF1CFDF
:101FB00086957105610508940895E894BB27662706
:101FC0007727CB0197F908952F923F924F925F9216
:101FD0006F927F928F929F92AF92BF92CF92DF9239
:101FE000EF92FF920F931F93CF93DF93CDB7DEB79E
:101FF000CA1BDB0B0FB6F894DEBF0FBECDBF099432
:102000002A88398848885F846E847D848C849B8488
:10201000AA84B984C884DF80EE80FD800C811B8196
:10202000AA81B981CE0FD11D0FB6F894DEBF0FBEC5
:10203000CDBFED0108955058BB27AA270E94331049
:102040000C94AA0F0E949C0F38F00E94A30F20F05E
:1020500039F49F3F19F426F40C94990F0EF4E0958F
:10206000E7FB0C94930FE92F0E94BB0F58F3BA17AC
:10207000620773078407950720F079F4A6F50C949E
:10208000DD0F0EF4E0950B2EBA2FA02D0B01B90138
:1020900090010C01CA01A0011124FF27591B99F0DE
:1020A000593F50F4503E68F11A16F040A22F232FEA
:1020B000342F4427585FF3CF469537952795A7953A
:1020C000F0405395C9F77EF41F16BA0B620B730BE1
:1020D000840BBAF09150A1F0FF0FBB1F661F771F52
:1020E000881FC2F70EC0BA0F621F731F841F48F407
:1020F000879577956795B795F7959E3F08F0B0CF90
:102100009395880F08F09927EE0F97958795089576
:102110000E948F106894B1110C94DE0F08950E94F4
:10212000C30F88F09F5798F0B92F9927B751B0F097
:10213000E1F0660F771F881F991F1AF0BA95C9F74B
:1021400014C0B13091F00E94DD0FB1E008950C94FD
:10215000DD0F672F782F8827B85F39F0B93FCCF3B0
:10216000869577956795B395D9F73EF490958095C8
:10217000709561957F4F8F4F9F4F089597FB072E66
:1021800016F4009407D077FD09D00E94131107FCC4
:1021900005D03EF4909581959F4F08957095619577
:1021A0007F4F0895A1E21A2EAA1BBB1BFD010DC093
:1021B000AA1FBB1FEE1FFF1FA217B307E407F507F7
:1021C00020F0A21BB30BE40BF50B661F771F881FD3
:1021D000991F1A9469F760957095809590959B0169
:1021E000AC01BD01CF010895052E97FB1EF40094AC
:1021F0000E940B1157FD07D00E94D21007FC03D09C
:102200004EF40C940B1150954095309521953F4F0D
:102210004F4F5F4F089590958095709561957F4FD2
:102220008F4F9F4F0895AA1BBB1B51E107C0AA1FE8
:10223000BB1FA617B70710F0A61BB70B881F991F67
:102240005A95A9F780959095BC01CD010895EE0FA0
:10225000FF1F0590F491E02D09940F931F93CF93E6
:10226000DF938230910510F482E090E0E091180451
:10227000F091190430E020E0B0E0A0E0309799F44C
:102280002115310509F44AC0281B390B24303105CA
:10229000D8F58A819B816115710589F1FB019383D2
:1022A0008283FE0111C04081518102811381481750
:1022B0005907E0F04817590799F4109761F0129602
:1022C0000C93129713961C933296CF01DF91CF9106
:1022D0001F910F9108950093180410931904F4CFDF
:1022E0002115310551F04217530738F0A901DB01E0
:1022F0009A01BD01DF01F801C1CFEF01F9CF909341
:10230000190480931804CDCFFE01E20FF31F8193CF
:1023100091932250310939832883D7CF2091160415
:1023200030911704232B41F42091180130911901A9
:102330003093170420931604209116013091170151
:102340002115310541F42DB73EB740911A01509146
:102350001B01241B350BE0911604F0911704E217C2
:10236000F307A0F42E1B3F0B2817390778F0AC01B8
:102370004E5F5F4F2417350748F04E0F5F1F509395
:10238000170440931604819391939FCFF0E0E0E00F
:102390009CCFCF93DF930097E9F0FC013297138233
:1023A0001282A0911804B0911904ED0130E020E0F0
:1023B0001097A1F420813181820F931F2091160480
:1023C000309117042817390709F061C0F0931704FA
:1023D000E0931604DF91CF910895EA01CE17DF074D
:1023E000E8F54A815B819E0141155105B1F7E9018C
:1023F000FB83EA8349915991C40FD51FEC17FD0760
:1024000061F4808191810296840F951FE90199837F
:102410008883828193819B838A83F0E0E0E0129637
:102420008D919C9113970097B9F52D913C9111973F
:10243000CD010296820F931F20911604309117044C
:102440002817390739F6309751F510921904109270
:102450001804B0931704A0931604BCCFD383C2838F
:1024600040815181840F951FC817D90761F44E5FD1
:102470005F4F88819981480F591F518340838A811A
:102480009B81938382832115310509F0B0CFF093AE
:102490001904E09318049ECFFD01DC01C0CF138224
:1024A0001282D7CFB0E0A0E0E8E5F2E10C94E60FAD
:1024B0008C01009751F4CB010E942D118C01C801B1
:1024C000CDB7DEB7E0E10C940210FC01E60FF71F78
:1024D0009C0122503109E217F30708F49DC0D9018D
:1024E000CD91DC911197C617D70798F0C530D1056B
:1024F00030F3CE0104978617970708F3C61BD70B56
:102500002297C193D1936D937C93CF010E94C911FF
:10251000D6CF5B01AC1ABD0A4C018C0E9D1EA0915A
:102520001804B0911904512C412CF12CE12C109776
:1025300031F580911604909117048815990509F0DA
:102540005CC04616570608F058C08091160190915D
:102550001701009741F48DB79EB740911A01509131
:102560001B01841B950BE817F90708F055C0F09381
:102570001704E0931604F90171836083A0CF8D9155
:102580009C91119712966C90129713967C901397CA
:10259000A815B90559F56C0142E0C40ED11CCA1446
:1025A000DB0420F1AC014A195B09DA011296159798
:1025B00080F06282738251834083D9016D937C9352
:1025C000E114F10471F0D7011396FC93EE93129786
:1025D00076CF22968C0F9D1FF90191838083F301A2
:1025E000EFCFF0931904E093180469CF4816590609
:1025F00008F42C017D01D3019ACFCB010E942D114B
:102600007C01009749F0AE01B8010E940F13C80188
:102610000E94C911870153CF10E000E050CFFB01A9
:10262000DC0102C001900D9241505040D8F708954E
:10263000FB01DC0101900D920020E1F70895F89470
:02264000FFCFCA
:10264200FFDC000403020807060531323334353655
:102652003738392A302300001A04800000000000B5
:102662008705E7041405D405450523053705000051
:102672000000AB016B013A01000000004807E704CB
:10268200F505F4050D0A00496E696369616C697AA2
:10269200616E646F2E2E2E004C4344206C6973745D
:1026A2006F2E00202020204C4659412054504620B5
:1026B20020202000444854206C6973746F2E004C13
:1026C2004544206C6973746F2E00504952206C6926
:1026D20073746F2E00282A29207061726120696E3E
:1026E20067726573617220636C617665207C206617
:1026F200696E616C697A6120636F6E2028232900FC
:102702006D6F76696D69656E746F20636F6E20619F
:102712006C61726D6120006D6F76696D69656E74B2
:102722006F2073696E20616C61726D6100494E4762
:102732005245534520434C415645002A2A2A2049F6
:102742004E475245534520434C415645202A2A2A9A
:102752000076616C69646172436C6176652C2066F7
:1027620078203D2000436C617665204F4B2E20413E
:102772006C61726D61206163746976616461005499
:10278200656D706572617475726120006F43202DF2
:102792002048756D656461642000250020494E4320
:1027A200454E44494F2E20414C41524D412020007C
:1027B20020202056454E54494C41444F522020205F
:1027C200002043414C4546414343494F4E204F4E22
:1027D200200020202020204E4F524D414C2020200E
:1027E200202000456C20636F6469676F20696E6703
:0C27F20072657361646F2065733A20000B
:00000001FF
